{
  "contractName": "ERC721VaultFactory",
  "abi": [
    {
      "inputs": [
        {
          "internalType": "address",
          "name": "_settings",
          "type": "address"
        }
      ],
      "stateMutability": "nonpayable",
      "type": "constructor"
    },
    {
      "anonymous": false,
      "inputs": [
        {
          "indexed": true,
          "internalType": "address",
          "name": "token",
          "type": "address"
        },
        {
          "indexed": false,
          "internalType": "uint256",
          "name": "id",
          "type": "uint256"
        },
        {
          "indexed": false,
          "internalType": "uint256",
          "name": "price",
          "type": "uint256"
        },
        {
          "indexed": false,
          "internalType": "address",
          "name": "vault",
          "type": "address"
        },
        {
          "indexed": false,
          "internalType": "uint256",
          "name": "vaultId",
          "type": "uint256"
        }
      ],
      "name": "Mint",
      "type": "event"
    },
    {
      "anonymous": false,
      "inputs": [
        {
          "indexed": true,
          "internalType": "address",
          "name": "previousOwner",
          "type": "address"
        },
        {
          "indexed": true,
          "internalType": "address",
          "name": "newOwner",
          "type": "address"
        }
      ],
      "name": "OwnershipTransferred",
      "type": "event"
    },
    {
      "anonymous": false,
      "inputs": [
        {
          "indexed": false,
          "internalType": "address",
          "name": "account",
          "type": "address"
        }
      ],
      "name": "Paused",
      "type": "event"
    },
    {
      "anonymous": false,
      "inputs": [
        {
          "indexed": false,
          "internalType": "address",
          "name": "account",
          "type": "address"
        }
      ],
      "name": "Unpaused",
      "type": "event"
    },
    {
      "inputs": [],
      "name": "logic",
      "outputs": [
        {
          "internalType": "address",
          "name": "",
          "type": "address"
        }
      ],
      "stateMutability": "view",
      "type": "function"
    },
    {
      "inputs": [],
      "name": "owner",
      "outputs": [
        {
          "internalType": "address",
          "name": "",
          "type": "address"
        }
      ],
      "stateMutability": "view",
      "type": "function"
    },
    {
      "inputs": [],
      "name": "paused",
      "outputs": [
        {
          "internalType": "bool",
          "name": "",
          "type": "bool"
        }
      ],
      "stateMutability": "view",
      "type": "function"
    },
    {
      "inputs": [],
      "name": "renounceOwnership",
      "outputs": [],
      "stateMutability": "nonpayable",
      "type": "function"
    },
    {
      "inputs": [],
      "name": "settings",
      "outputs": [
        {
          "internalType": "address",
          "name": "",
          "type": "address"
        }
      ],
      "stateMutability": "view",
      "type": "function"
    },
    {
      "inputs": [
        {
          "internalType": "address",
          "name": "newOwner",
          "type": "address"
        }
      ],
      "name": "transferOwnership",
      "outputs": [],
      "stateMutability": "nonpayable",
      "type": "function"
    },
    {
      "inputs": [],
      "name": "vaultCount",
      "outputs": [
        {
          "internalType": "uint256",
          "name": "",
          "type": "uint256"
        }
      ],
      "stateMutability": "view",
      "type": "function"
    },
    {
      "inputs": [
        {
          "internalType": "uint256",
          "name": "",
          "type": "uint256"
        }
      ],
      "name": "vaults",
      "outputs": [
        {
          "internalType": "address",
          "name": "",
          "type": "address"
        }
      ],
      "stateMutability": "view",
      "type": "function"
    },
    {
      "inputs": [
        {
          "internalType": "string",
          "name": "_name",
          "type": "string"
        },
        {
          "internalType": "string",
          "name": "_symbol",
          "type": "string"
        },
        {
          "internalType": "address",
          "name": "_token",
          "type": "address"
        },
        {
          "internalType": "uint256",
          "name": "_id",
          "type": "uint256"
        },
        {
          "internalType": "uint256",
          "name": "_supply",
          "type": "uint256"
        },
        {
          "internalType": "uint256",
          "name": "_listPrice",
          "type": "uint256"
        },
        {
          "internalType": "uint256",
          "name": "_fee",
          "type": "uint256"
        }
      ],
      "name": "mint",
      "outputs": [
        {
          "internalType": "uint256",
          "name": "",
          "type": "uint256"
        }
      ],
      "stateMutability": "nonpayable",
      "type": "function"
    },
    {
      "inputs": [],
      "name": "pause",
      "outputs": [],
      "stateMutability": "nonpayable",
      "type": "function"
    },
    {
      "inputs": [],
      "name": "unpause",
      "outputs": [],
      "stateMutability": "nonpayable",
      "type": "function"
    }
  ],
  "bytecode": "0x60c06040523480156200001157600080fd5b5060405162007a1b38038062007a1b83398181016040528101906200003791906200025c565b620000576200004b6200011860201b60201c565b6200012060201b60201c565b60008060146101000a81548160ff0219169083151502179055508073ffffffffffffffffffffffffffffffffffffffff1660808173ffffffffffffffffffffffffffffffffffffffff168152505080604051620000b490620001e4565b620000c091906200029f565b604051809103906000f080158015620000dd573d6000803e3d6000fd5b5073ffffffffffffffffffffffffffffffffffffffff1660a08173ffffffffffffffffffffffffffffffffffffffff168152505050620002bc565b600033905090565b60008060009054906101000a900473ffffffffffffffffffffffffffffffffffffffff169050816000806101000a81548173ffffffffffffffffffffffffffffffffffffffff021916908373ffffffffffffffffffffffffffffffffffffffff1602179055508173ffffffffffffffffffffffffffffffffffffffff168173ffffffffffffffffffffffffffffffffffffffff167f8be0079c531659141344cd1fd0a4f28419497f9722a3daafe3b4186f6b6457e060405160405180910390a35050565b615e068062001c1583390190565b600080fd5b600073ffffffffffffffffffffffffffffffffffffffff82169050919050565b60006200022482620001f7565b9050919050565b620002368162000217565b81146200024257600080fd5b50565b60008151905062000256816200022b565b92915050565b600060208284031215620002755762000274620001f2565b5b6000620002858482850162000245565b91505092915050565b620002998162000217565b82525050565b6000602082019050620002b660008301846200028e565b92915050565b60805160a05161192c620002e96000396000818161053301526106e80152600061070c015261192c6000f3fe60806040523480156200001157600080fd5b5060043610620000b85760003560e01c80638da5cb5b116200007b5780638da5cb5b1462000139578063a7c6a100146200015b578063bdc01110146200017d578063d7dfa0dd14620001b3578063e06174e414620001d5578063f2fde38b14620001f757620000b8565b80633f4ba83a14620000bd5780635c975abb14620000c9578063715018a614620000eb5780638456cb5914620000f75780638c64ea4a1462000103575b600080fd5b620000c762000217565b005b620000d3620002a6565b604051620000e2919062000a7f565b60405180910390f35b620000f5620002bc565b005b620001016200034d565b005b6200012160048036038101906200011b919062000aeb565b620003dc565b60405162000130919062000b62565b60405180910390f35b620001436200040f565b60405162000152919062000b62565b60405180910390f35b6200016562000438565b60405162000174919062000b90565b60405180910390f35b6200019b600480360381019062000195919062000d40565b6200043e565b604051620001aa919062000b90565b60405180910390f35b620001bd620006e6565b604051620001cc919062000b62565b60405180910390f35b620001df6200070a565b604051620001ee919062000b62565b60405180910390f35b6200021560048036038101906200020f919062000e31565b6200072e565b005b6200022162000832565b73ffffffffffffffffffffffffffffffffffffffff16620002416200040f565b73ffffffffffffffffffffffffffffffffffffffff16146200029a576040517f08c379a0000000000000000000000000000000000000000000000000000000008152600401620002919062000ec4565b60405180910390fd5b620002a46200083a565b565b60008060149054906101000a900460ff16905090565b620002c662000832565b73ffffffffffffffffffffffffffffffffffffffff16620002e66200040f565b73ffffffffffffffffffffffffffffffffffffffff16146200033f576040517f08c379a0000000000000000000000000000000000000000000000000000000008152600401620003369062000ec4565b60405180910390fd5b6200034b6000620008e4565b565b6200035762000832565b73ffffffffffffffffffffffffffffffffffffffff16620003776200040f565b73ffffffffffffffffffffffffffffffffffffffff1614620003d0576040517f08c379a0000000000000000000000000000000000000000000000000000000008152600401620003c79062000ec4565b60405180910390fd5b620003da620009a8565b565b60026020528060005260406000206000915054906101000a900473ffffffffffffffffffffffffffffffffffffffff1681565b60008060009054906101000a900473ffffffffffffffffffffffffffffffffffffffff16905090565b60015481565b60006200044a620002a6565b156200048d576040517f08c379a0000000000000000000000000000000000000000000000000000000008152600401620004849062000f36565b60405180910390fd5b60003387878787878e8e604051602401620004b098979695949392919062000fda565b6040516020818303038152906040527f626fb2f0000000000000000000000000000000000000000000000000000000007bffffffffffffffffffffffffffffffffffffffffffffffffffffffff19166020820180517bffffffffffffffffffffffffffffffffffffffffffffffffffffffff8381831617835250505050905060007f000000000000000000000000000000000000000000000000000000000000000082604051620005619062000a54565b6200056e929190620010d3565b604051809103906000f0801580156200058b573d6000803e3d6000fd5b5090508773ffffffffffffffffffffffffffffffffffffffff167ff9c32fbc56ff04f32a233ebc26e388564223745e28abd8d0781dd906537f563e888784600154604051620005de949392919062001107565b60405180910390a28773ffffffffffffffffffffffffffffffffffffffff166342842e0e33838a6040518463ffffffff1660e01b8152600401620006259392919062001154565b600060405180830381600087803b1580156200064057600080fd5b505af115801562000655573d6000803e3d6000fd5b505050508060026000600154815260200190815260200160002060006101000a81548173ffffffffffffffffffffffffffffffffffffffff021916908373ffffffffffffffffffffffffffffffffffffffff16021790555060016000815480929190620006c290620011c0565b919050555060018054620006d791906200120e565b92505050979650505050505050565b7f000000000000000000000000000000000000000000000000000000000000000081565b7f000000000000000000000000000000000000000000000000000000000000000081565b6200073862000832565b73ffffffffffffffffffffffffffffffffffffffff16620007586200040f565b73ffffffffffffffffffffffffffffffffffffffff1614620007b1576040517f08c379a0000000000000000000000000000000000000000000000000000000008152600401620007a89062000ec4565b60405180910390fd5b600073ffffffffffffffffffffffffffffffffffffffff168173ffffffffffffffffffffffffffffffffffffffff16141562000824576040517f08c379a00000000000000000000000000000000000000000000000000000000081526004016200081b90620012bf565b60405180910390fd5b6200082f81620008e4565b50565b600033905090565b62000844620002a6565b62000886576040517f08c379a00000000000000000000000000000000000000000000000000000000081526004016200087d9062001331565b60405180910390fd5b60008060146101000a81548160ff0219169083151502179055507f5db9ee0a495bf2e6ff9c91a7834c1ba4fdd244a5e8aa4e537bd38aeae4b073aa620008cb62000832565b604051620008da919062000b62565b60405180910390a1565b60008060009054906101000a900473ffffffffffffffffffffffffffffffffffffffff169050816000806101000a81548173ffffffffffffffffffffffffffffffffffffffff021916908373ffffffffffffffffffffffffffffffffffffffff1602179055508173ffffffffffffffffffffffffffffffffffffffff168173ffffffffffffffffffffffffffffffffffffffff167f8be0079c531659141344cd1fd0a4f28419497f9722a3daafe3b4186f6b6457e060405160405180910390a35050565b620009b2620002a6565b15620009f5576040517f08c379a0000000000000000000000000000000000000000000000000000000008152600401620009ec9062000f36565b60405180910390fd5b6001600060146101000a81548160ff0219169083151502179055507f62e78cea01bee320cd4e420270b5ea74000d11b0c9f74754ebdbfc544b05a25862000a3b62000832565b60405162000a4a919062000b62565b60405180910390a1565b6105a3806200135483390190565b60008115159050919050565b62000a798162000a62565b82525050565b600060208201905062000a96600083018462000a6e565b92915050565b6000604051905090565b600080fd5b600080fd5b6000819050919050565b62000ac58162000ab0565b811462000ad157600080fd5b50565b60008135905062000ae58162000aba565b92915050565b60006020828403121562000b045762000b0362000aa6565b5b600062000b148482850162000ad4565b91505092915050565b600073ffffffffffffffffffffffffffffffffffffffff82169050919050565b600062000b4a8262000b1d565b9050919050565b62000b5c8162000b3d565b82525050565b600060208201905062000b79600083018462000b51565b92915050565b62000b8a8162000ab0565b82525050565b600060208201905062000ba7600083018462000b7f565b92915050565b600080fd5b600080fd5b6000601f19601f8301169050919050565b7f4e487b7100000000000000000000000000000000000000000000000000000000600052604160045260246000fd5b62000c028262000bb7565b810181811067ffffffffffffffff8211171562000c245762000c2362000bc8565b5b80604052505050565b600062000c3962000a9c565b905062000c47828262000bf7565b919050565b600067ffffffffffffffff82111562000c6a5762000c6962000bc8565b5b62000c758262000bb7565b9050602081019050919050565b82818337600083830152505050565b600062000ca862000ca28462000c4c565b62000c2d565b90508281526020810184848401111562000cc75762000cc662000bb2565b5b62000cd484828562000c82565b509392505050565b600082601f83011262000cf45762000cf362000bad565b5b813562000d0684826020860162000c91565b91505092915050565b62000d1a8162000b3d565b811462000d2657600080fd5b50565b60008135905062000d3a8162000d0f565b92915050565b600080600080600080600060e0888a03121562000d625762000d6162000aa6565b5b600088013567ffffffffffffffff81111562000d835762000d8262000aab565b5b62000d918a828b0162000cdc565b975050602088013567ffffffffffffffff81111562000db55762000db462000aab565b5b62000dc38a828b0162000cdc565b965050604062000dd68a828b0162000d29565b955050606062000de98a828b0162000ad4565b945050608062000dfc8a828b0162000ad4565b93505060a062000e0f8a828b0162000ad4565b92505060c062000e228a828b0162000ad4565b91505092959891949750929550565b60006020828403121562000e4a5762000e4962000aa6565b5b600062000e5a8482850162000d29565b91505092915050565b600082825260208201905092915050565b7f4f776e61626c653a2063616c6c6572206973206e6f7420746865206f776e6572600082015250565b600062000eac60208362000e63565b915062000eb98262000e74565b602082019050919050565b6000602082019050818103600083015262000edf8162000e9d565b9050919050565b7f5061757361626c653a2070617573656400000000000000000000000000000000600082015250565b600062000f1e60108362000e63565b915062000f2b8262000ee6565b602082019050919050565b6000602082019050818103600083015262000f518162000f0f565b9050919050565b600081519050919050565b60005b8381101562000f8357808201518184015260208101905062000f66565b8381111562000f93576000848401525b50505050565b600062000fa68262000f58565b62000fb2818562000e63565b935062000fc481856020860162000f63565b62000fcf8162000bb7565b840191505092915050565b60006101008201905062000ff2600083018b62000b51565b62001001602083018a62000b51565b62001010604083018962000b7f565b6200101f606083018862000b7f565b6200102e608083018762000b7f565b6200103d60a083018662000b7f565b81810360c083015262001051818562000f99565b905081810360e083015262001067818462000f99565b90509998505050505050505050565b600081519050919050565b600082825260208201905092915050565b60006200109f8262001076565b620010ab818562001081565b9350620010bd81856020860162000f63565b620010c88162000bb7565b840191505092915050565b6000604082019050620010ea600083018562000b51565b8181036020830152620010fe818462001092565b90509392505050565b60006080820190506200111e600083018762000b7f565b6200112d602083018662000b7f565b6200113c604083018562000b51565b6200114b606083018462000b7f565b95945050505050565b60006060820190506200116b600083018662000b51565b6200117a602083018562000b51565b62001189604083018462000b7f565b949350505050565b7f4e487b7100000000000000000000000000000000000000000000000000000000600052601160045260246000fd5b6000620011cd8262000ab0565b91507fffffffffffffffffffffffffffffffffffffffffffffffffffffffffffffffff82141562001203576200120262001191565b5b600182019050919050565b60006200121b8262000ab0565b9150620012288362000ab0565b9250828210156200123e576200123d62001191565b5b828203905092915050565b7f4f776e61626c653a206e6577206f776e657220697320746865207a65726f206160008201527f6464726573730000000000000000000000000000000000000000000000000000602082015250565b6000620012a760268362000e63565b9150620012b48262001249565b604082019050919050565b60006020820190508181036000830152620012da8162001298565b9050919050565b7f5061757361626c653a206e6f7420706175736564000000000000000000000000600082015250565b60006200131960148362000e63565b91506200132682620012e1565b602082019050919050565b600060208201905081810360008301526200134c816200130a565b905091905056fe60a060405234801561001057600080fd5b506040516105a33803806105a3833981810160405281019061003291906102fc565b8173ffffffffffffffffffffffffffffffffffffffff1660808173ffffffffffffffffffffffffffffffffffffffff16815250506000808373ffffffffffffffffffffffffffffffffffffffff168360405161008e919061039f565b600060405180830381855af49150503d80600081146100c9576040519150601f19603f3d011682016040523d82523d6000602084013e6100ce565b606091505b5091509150818190610116576040517f08c379a000000000000000000000000000000000000000000000000000000000815260040161010d919061040b565b60405180910390fd5b505050505061042d565b6000604051905090565b600080fd5b600080fd5b600073ffffffffffffffffffffffffffffffffffffffff82169050919050565b600061015f82610134565b9050919050565b61016f81610154565b811461017a57600080fd5b50565b60008151905061018c81610166565b92915050565b600080fd5b600080fd5b6000601f19601f8301169050919050565b7f4e487b7100000000000000000000000000000000000000000000000000000000600052604160045260246000fd5b6101e58261019c565b810181811067ffffffffffffffff82111715610204576102036101ad565b5b80604052505050565b6000610217610120565b905061022382826101dc565b919050565b600067ffffffffffffffff821115610243576102426101ad565b5b61024c8261019c565b9050602081019050919050565b60005b8381101561027757808201518184015260208101905061025c565b83811115610286576000848401525b50505050565b600061029f61029a84610228565b61020d565b9050828152602081018484840111156102bb576102ba610197565b5b6102c6848285610259565b509392505050565b600082601f8301126102e3576102e2610192565b5b81516102f384826020860161028c565b91505092915050565b600080604083850312156103135761031261012a565b5b60006103218582860161017d565b925050602083015167ffffffffffffffff8111156103425761034161012f565b5b61034e858286016102ce565b9150509250929050565b600081519050919050565b600081905092915050565b600061037982610358565b6103838185610363565b9350610393818560208601610259565b80840191505092915050565b60006103ab828461036e565b915081905092915050565b600081519050919050565b600082825260208201905092915050565b60006103dd826103b6565b6103e781856103c1565b93506103f7818560208601610259565b6104008161019c565b840191505092915050565b6000602082019050818103600083015261042581846103d2565b905092915050565b60805161015661044d60003960008181602d015260a201526101566000f3fe6080604052600436106100225760003560e01c8063d7dfa0dd1461007557610029565b3661002957005b60007f0000000000000000000000000000000000000000000000000000000000000000905060405136600082376000803683855af43d806000843e8160008114610071578184f35b8184fd5b34801561008157600080fd5b5061008a6100a0565b6040516100979190610105565b60405180910390f35b7f000000000000000000000000000000000000000000000000000000000000000081565b600073ffffffffffffffffffffffffffffffffffffffff82169050919050565b60006100ef826100c4565b9050919050565b6100ff816100e4565b82525050565b600060208201905061011a60008301846100f6565b9291505056fea26469706673582212201b26cc47022327e51df522d7ba7e9351966934350fb7b4e1f73866d293a1597c64736f6c63430008090033a2646970667358221220a1ce48fff9be856488d292e7ea2c86cf0ffb73b0a68690fb7f00e3ca77fedf7264736f6c6343000809003360a06040523480156200001157600080fd5b5060405162005e0638038062005e068339818101604052810190620000379190620000dc565b8073ffffffffffffffffffffffffffffffffffffffff1660808173ffffffffffffffffffffffffffffffffffffffff1681525050506200010e565b600080fd5b600073ffffffffffffffffffffffffffffffffffffffff82169050919050565b6000620000a48262000077565b9050919050565b620000b68162000097565b8114620000c257600080fd5b50565b600081519050620000d681620000ab565b92915050565b600060208284031215620000f557620000f462000072565b5b60006200010584828501620000c5565b91505092915050565b608051615c816200018560003960008181610b8501528181610ec9015281816110a801528181611152015281816116ec015281816117eb015281816119af01528181611aae01528181611ce3015281816120c901528181612743015281816129ec015281816135f8015261369c0152615c816000f3fe6080604052600436106102515760003560e01c806380436fe011610139578063be040fb0116100b6578063dd62ed3e1161007a578063dd62ed3e14610866578063ddca3f43146108a3578063e06174e4146108ce578063e66f53b7146108f9578063efbe1c1c14610924578063fc0c546a1461093b57610251565b8063be040fb0146107c6578063be9a6555146107dd578063c91de649146107e7578063d294f09314610824578063db2e1eed1461083b57610251565b80639a4e6d34116100fd5780639a4e6d34146106cb578063a457c2d7146106f6578063a9059cbb14610733578063adc1b95614610770578063af640d0f1461079b57610251565b806380436fe01461060c578063853a1b90146106355780639012c4a81461066057806395d89b4114610689578063961be391146106b457610251565b8063313ce567116101d2578063626fb2f011610196578063626fb2f0146104fc5780636a775714146105255780636da84e6c1461054e57806370a08231146105795780637b5581ed146105b65780637fb45099146105e157610251565b8063313ce56714610413578063325c25a21461043e57806339509351146104695780633fc8cef3146104a65780635c9920fc146104d157610251565b80631998aeef116102195780631998aeef1461034f57806323b872dd146103595780632a24f46c146103965780632a44f120146103c15780632bf33bd9146103ea57610251565b806306fdde0314610256578063095ea7b3146102815780630c6a62dd146102be578063150b7a02146102e757806318160ddd14610324575b600080fd5b34801561026257600080fd5b5061026b610966565b60405161027891906140b2565b60405180910390f35b34801561028d57600080fd5b506102a860048036038101906102a3919061417c565b6109f8565b6040516102b591906141d7565b60405180910390f35b3480156102ca57600080fd5b506102e560048036038101906102e091906141f2565b610a16565b005b3480156102f357600080fd5b5061030e60048036038101906103099190614354565b610aea565b60405161031b9190614412565b60405180910390f35b34801561033057600080fd5b50610339610afe565b604051610346919061443c565b60405180910390f35b610357610b08565b005b34801561036557600080fd5b50610380600480360381019061037b9190614457565b610dc9565b60405161038d91906141d7565b60405180910390f35b3480156103a257600080fd5b506103ab610ec1565b6040516103b8919061443c565b60405180910390f35b3480156103cd57600080fd5b506103e860048036038101906103e391906141f2565b610ec7565b005b3480156103f657600080fd5b50610411600480360381019061040c91906144aa565b611016565b005b34801561041f57600080fd5b50610428611274565b60405161043591906144f3565b60405180910390f35b34801561044a57600080fd5b5061045361127d565b604051610460919061443c565b60405180910390f35b34801561047557600080fd5b50610490600480360381019061048b919061417c565b611283565b60405161049d91906141d7565b60405180910390f35b3480156104b257600080fd5b506104bb61132f565b6040516104c8919061451d565b60405180910390f35b3480156104dd57600080fd5b506104e6611347565b6040516104f391906141d7565b60405180910390f35b34801561050857600080fd5b50610523600480360381019061051e91906145d9565b61135a565b005b34801561053157600080fd5b5061054c600480360381019061054791906144aa565b611567565b005b34801561055a57600080fd5b50610563611c79565b604051610570919061443c565b60405180910390f35b34801561058557600080fd5b506105a0600480360381019061059b91906141f2565b611c7f565b6040516105ad919061443c565b60405180910390f35b3480156105c257600080fd5b506105cb611cc8565b6040516105d8919061443c565b60405180910390f35b3480156105ed57600080fd5b506105f6611cce565b604051610603919061473e565b60405180910390f35b34801561061857600080fd5b50610633600480360381019061062e91906141f2565b611ce1565b005b34801561064157600080fd5b5061064a611fcd565b604051610657919061477a565b60405180910390f35b34801561066c57600080fd5b50610687600480360381019061068291906144aa565b611ff3565b005b34801561069557600080fd5b5061069e6121f4565b6040516106ab91906140b2565b60405180910390f35b3480156106c057600080fd5b506106c9612286565b005b3480156106d757600080fd5b506106e06123d4565b6040516106ed919061443c565b60405180910390f35b34801561070257600080fd5b5061071d6004803603810190610718919061417c565b6123da565b60405161072a91906141d7565b60405180910390f35b34801561073f57600080fd5b5061075a6004803603810190610755919061417c565b6124c5565b60405161076791906141d7565b60405180910390f35b34801561077c57600080fd5b506107856124e3565b604051610792919061443c565b60405180910390f35b3480156107a757600080fd5b506107b06124e9565b6040516107bd919061443c565b60405180910390f35b3480156107d257600080fd5b506107db6124ef565b005b6107e5612679565b005b3480156107f357600080fd5b5061080e600480360381019061080991906141f2565b612913565b60405161081b919061443c565b60405180910390f35b34801561083057600080fd5b5061083961292b565b005b34801561084757600080fd5b50610850612935565b60405161085d919061443c565b60405180910390f35b34801561087257600080fd5b5061088d60048036038101906108889190614795565b61295d565b60405161089a919061443c565b60405180910390f35b3480156108af57600080fd5b506108b86129e4565b6040516108c5919061443c565b60405180910390f35b3480156108da57600080fd5b506108e36129ea565b6040516108f0919061451d565b60405180910390f35b34801561090557600080fd5b5061090e612a0e565b60405161091b919061451d565b60405180910390f35b34801561093057600080fd5b50610939612a34565b005b34801561094757600080fd5b50610950612c4b565b60405161095d919061451d565b60405180910390f35b60606036805461097590614804565b80601f01602080910402602001604051908101604052809291908181526020018280546109a190614804565b80156109ee5780601f106109c3576101008083540402835291602001916109ee565b820191906000526020600020905b8154815290600101906020018083116109d157829003601f168201915b5050505050905090565b6000610a0c610a05612c71565b8484612c79565b6001905092915050565b609e60009054906101000a900473ffffffffffffffffffffffffffffffffffffffff1673ffffffffffffffffffffffffffffffffffffffff163373ffffffffffffffffffffffffffffffffffffffff1614610aa6576040517f08c379a0000000000000000000000000000000000000000000000000000000008152600401610a9d90614882565b60405180910390fd5b80609e60006101000a81548173ffffffffffffffffffffffffffffffffffffffff021916908373ffffffffffffffffffffffffffffffffffffffff16021790555050565b600063150b7a0260e01b9050949350505050565b6000603554905090565b60016003811115610b1c57610b1b6146c7565b5b609d60149054906101000a900460ff166003811115610b3e57610b3d6146c7565b5b14610b7e576040517f08c379a0000000000000000000000000000000000000000000000000000000008152600401610b75906148ee565b60405180910390fd5b60006103e87f000000000000000000000000000000000000000000000000000000000000000073ffffffffffffffffffffffffffffffffffffffff16637c513c0f6040518163ffffffff1660e01b8152600401602060405180830381600087803b158015610beb57600080fd5b505af1158015610bff573d6000803e3d6000fd5b505050506040513d601f19601f82011682018060405250810190610c239190614923565b610c2d919061497f565b905080609c54610c3d91906149d5565b6103e834610c4b91906149d5565b1015610c8c576040517f08c379a0000000000000000000000000000000000000000000000000000000008152600401610c8390614a7b565b60405180910390fd5b6099544210610cd0576040517f08c379a0000000000000000000000000000000000000000000000000000000008152600401610cc790614ae7565b60405180910390fd5b61038442609954610ce19190614b07565b11610d025761038460996000828254610cfa919061497f565b925050819055505b610d30609d60009054906101000a900473ffffffffffffffffffffffffffffffffffffffff16609c54612e44565b34609c8190555033609d60006101000a81548173ffffffffffffffffffffffffffffffffffffffff021916908373ffffffffffffffffffffffffffffffffffffffff1602179055503373ffffffffffffffffffffffffffffffffffffffff167fe684a55f31b79eca403df938249029212a5925ec6be8012e099b45bc1019e5d234604051610dbe919061443c565b60405180910390a250565b6000610dd6848484612f6e565b6000603460008673ffffffffffffffffffffffffffffffffffffffff1673ffffffffffffffffffffffffffffffffffffffff1681526020019081526020016000206000610e21612c71565b73ffffffffffffffffffffffffffffffffffffffff1673ffffffffffffffffffffffffffffffffffffffff16815260200190815260200160002054905082811015610ea1576040517f08c379a0000000000000000000000000000000000000000000000000000000008152600401610e9890614bad565b60405180910390fd5b610eb585610ead612c71565b858403612c79565b60019150509392505050565b60995481565b7f000000000000000000000000000000000000000000000000000000000000000073ffffffffffffffffffffffffffffffffffffffff16638da5cb5b6040518163ffffffff1660e01b815260040160206040518083038186803b158015610f2d57600080fd5b505afa158015610f41573d6000803e3d6000fd5b505050506040513d601f19601f82011682018060405250810190610f659190614be2565b73ffffffffffffffffffffffffffffffffffffffff163373ffffffffffffffffffffffffffffffffffffffff1614610fd2576040517f08c379a0000000000000000000000000000000000000000000000000000000008152600401610fc990614c5b565b60405180910390fd5b80609e60006101000a81548173ffffffffffffffffffffffffffffffffffffffff021916908373ffffffffffffffffffffffffffffffffffffffff16021790555050565b609e60009054906101000a900473ffffffffffffffffffffffffffffffffffffffff1673ffffffffffffffffffffffffffffffffffffffff163373ffffffffffffffffffffffffffffffffffffffff16146110a6576040517f08c379a000000000000000000000000000000000000000000000000000000000815260040161109d90614882565b60405180910390fd5b7f000000000000000000000000000000000000000000000000000000000000000073ffffffffffffffffffffffffffffffffffffffff1663a0b335e36040518163ffffffff1660e01b8152600401602060405180830381600087803b15801561110e57600080fd5b505af1158015611122573d6000803e3d6000fd5b505050506040513d601f19601f820116820180604052508101906111469190614923565b81101580156111f457507f000000000000000000000000000000000000000000000000000000000000000073ffffffffffffffffffffffffffffffffffffffff16630e519ef96040518163ffffffff1660e01b8152600401602060405180830381600087803b1580156111b857600080fd5b505af11580156111cc573d6000803e3d6000fd5b505050506040513d601f19601f820116820180604052508101906111f09190614923565b8111155b611233576040517f08c379a000000000000000000000000000000000000000000000000000000000815260040161122a90614cc7565b60405180910390fd5b80609a819055507f4ab86ae701798277aa378943b9dfd155d3b19703cd57be298908fadd32f7bf4681604051611269919061443c565b60405180910390a150565b60006012905090565b609a5481565b6000611325611290612c71565b84846034600061129e612c71565b73ffffffffffffffffffffffffffffffffffffffff1673ffffffffffffffffffffffffffffffffffffffff16815260200190815260200160002060008873ffffffffffffffffffffffffffffffffffffffff1673ffffffffffffffffffffffffffffffffffffffff16815260200190815260200160002054611320919061497f565b612c79565b6001905092915050565b73c02aaa39b223fe8d0a0e5c4f27ead9083c756cc281565b60a160009054906101000a900460ff1681565b600060019054906101000a900460ff1680611380575060008054906101000a900460ff16155b6113bf576040517f08c379a00000000000000000000000000000000000000000000000000000000081526004016113b690614d59565b60405180910390fd5b60008060019054906101000a900460ff16159050801561140f576001600060016101000a81548160ff02191690831515021790555060016000806101000a81548160ff0219169083151502179055505b61141983836131f2565b6114216132df565b87609760006101000a81548173ffffffffffffffffffffffffffffffffffffffff021916908373ffffffffffffffffffffffffffffffffffffffff160217905550866098819055506203f480609a8190555088609e60006101000a81548173ffffffffffffffffffffffffffffffffffffffff021916908373ffffffffffffffffffffffffffffffffffffffff16021790555083609f819055504260a0819055506000609d60146101000a81548160ff021916908360038111156114e8576114e76146c7565b5b02179055508460a360008b73ffffffffffffffffffffffffffffffffffffffff1673ffffffffffffffffffffffffffffffffffffffff1681526020019081526020016000208190555061153b89876133c0565b801561155c5760008060016101000a81548160ff0219169083151502179055505b505050505050505050565b6000600381111561157b5761157a6146c7565b5b609d60149054906101000a900460ff16600381111561159d5761159c6146c7565b5b146115dd576040517f08c379a00000000000000000000000000000000000000000000000000000000081526004016115d490614deb565b60405180910390fd5b600060a360003373ffffffffffffffffffffffffffffffffffffffff1673ffffffffffffffffffffffffffffffffffffffff16815260200190815260200160002054905080821415611664576040517f08c379a000000000000000000000000000000000000000000000000000000000815260040161165b90614e57565b60405180910390fd5b600061166f33611c7f565b9050600060a254141561169a578060a281905550828161168f91906149d5565b609b81905550611be2565b60a254811480156116ac575060008214155b156116c85782816116bd91906149d5565b609b81905550611be1565b600082141561192857600060a254609b546116e39190614ea6565b905060006103e87f000000000000000000000000000000000000000000000000000000000000000073ffffffffffffffffffffffffffffffffffffffff166309990a966040518163ffffffff1660e01b8152600401602060405180830381600087803b15801561175257600080fd5b505af1158015611766573d6000803e3d6000fd5b505050506040513d601f19601f8201168201806040525081019061178a9190614923565b8361179591906149d5565b61179f9190614ea6565b9050808510156117e4576040517f08c379a00000000000000000000000000000000000000000000000000000000081526004016117db90614f23565b60405180910390fd5b60006103e87f000000000000000000000000000000000000000000000000000000000000000073ffffffffffffffffffffffffffffffffffffffff16635410bfc96040518163ffffffff1660e01b8152600401602060405180830381600087803b15801561185157600080fd5b505af1158015611865573d6000803e3d6000fd5b505050506040513d601f19601f820116820180604052508101906118899190614923565b8461189491906149d5565b61189e9190614ea6565b9050808611156118e3576040517f08c379a00000000000000000000000000000000000000000000000000000000081526004016118da90614f8f565b60405180910390fd5b8360a260008282546118f5919061497f565b92505081905550858461190891906149d5565b609b6000828254611919919061497f565b92505081905550505050611be0565b6000831415611973578060a260008282546119439190614b07565b92505081905550818161195691906149d5565b609b60008282546119679190614b07565b92505081905550611bdf565b60008160a2546119839190614b07565b828461198f91906149d5565b609b5461199c9190614b07565b6119a69190614ea6565b905060006103e87f000000000000000000000000000000000000000000000000000000000000000073ffffffffffffffffffffffffffffffffffffffff166309990a966040518163ffffffff1660e01b8152600401602060405180830381600087803b158015611a1557600080fd5b505af1158015611a29573d6000803e3d6000fd5b505050506040513d601f19601f82011682018060405250810190611a4d9190614923565b83611a5891906149d5565b611a629190614ea6565b905080851015611aa7576040517f08c379a0000000000000000000000000000000000000000000000000000000008152600401611a9e90614f23565b60405180910390fd5b60006103e87f000000000000000000000000000000000000000000000000000000000000000073ffffffffffffffffffffffffffffffffffffffff16635410bfc96040518163ffffffff1660e01b8152600401602060405180830381600087803b158015611b1457600080fd5b505af1158015611b28573d6000803e3d6000fd5b505050506040513d601f19601f82011682018060405250810190611b4c9190614923565b84611b5791906149d5565b611b619190614ea6565b905080861115611ba6576040517f08c379a0000000000000000000000000000000000000000000000000000000008152600401611b9d90614f8f565b60405180910390fd5b8484611bb291906149d5565b8685611bbe91906149d5565b609b54611bcb919061497f565b611bd59190614b07565b609b819055505050505b5b5b5b8260a360003373ffffffffffffffffffffffffffffffffffffffff1673ffffffffffffffffffffffffffffffffffffffff168152602001908152602001600020819055503373ffffffffffffffffffffffffffffffffffffffff167f64e6e7bd72b853c4e62fd6ceaca05a104700c70a4cb567c75c7f2242ba7f037c84604051611c6c919061443c565b60405180910390a2505050565b609c5481565b6000603360008373ffffffffffffffffffffffffffffffffffffffff1673ffffffffffffffffffffffffffffffffffffffff168152602001908152602001600020549050919050565b609b5481565b609d60149054906101000a900460ff1681565b7f000000000000000000000000000000000000000000000000000000000000000073ffffffffffffffffffffffffffffffffffffffff16638da5cb5b6040518163ffffffff1660e01b815260040160206040518083038186803b158015611d4757600080fd5b505afa158015611d5b573d6000803e3d6000fd5b505050506040513d601f19601f82011682018060405250810190611d7f9190614be2565b73ffffffffffffffffffffffffffffffffffffffff163373ffffffffffffffffffffffffffffffffffffffff1614611dec576040517f08c379a0000000000000000000000000000000000000000000000000000000008152600401611de390614ffb565b60405180910390fd5b60006003811115611e0057611dff6146c7565b5b609d60149054906101000a900460ff166003811115611e2257611e216146c7565b5b14611e62576040517f08c379a0000000000000000000000000000000000000000000000000000000008152600401611e5990614deb565b60405180910390fd5b600060a360008373ffffffffffffffffffffffffffffffffffffffff1673ffffffffffffffffffffffffffffffffffffffff1681526020019081526020016000205490508060001415611eea576040517f08c379a0000000000000000000000000000000000000000000000000000000008152600401611ee190614e57565b60405180910390fd5b6000611ef583611c7f565b90508060a26000828254611f099190614b07565b925050819055508181611f1c91906149d5565b609b6000828254611f2d9190614b07565b92505081905550600060a360008573ffffffffffffffffffffffffffffffffffffffff1673ffffffffffffffffffffffffffffffffffffffff168152602001908152602001600020819055508273ffffffffffffffffffffffffffffffffffffffff167f64e6e7bd72b853c4e62fd6ceaca05a104700c70a4cb567c75c7f2242ba7f037c6000604051611fc09190615060565b60405180910390a2505050565b609d60009054906101000a900473ffffffffffffffffffffffffffffffffffffffff1681565b609e60009054906101000a900473ffffffffffffffffffffffffffffffffffffffff1673ffffffffffffffffffffffffffffffffffffffff163373ffffffffffffffffffffffffffffffffffffffff1614612083576040517f08c379a000000000000000000000000000000000000000000000000000000000815260040161207a90614882565b60405180910390fd5b609f5481106120c7576040517f08c379a00000000000000000000000000000000000000000000000000000000081526004016120be906150c7565b60405180910390fd5b7f000000000000000000000000000000000000000000000000000000000000000073ffffffffffffffffffffffffffffffffffffffff16638a364bc16040518163ffffffff1660e01b8152600401602060405180830381600087803b15801561212f57600080fd5b505af1158015612143573d6000803e3d6000fd5b505050506040513d601f19601f820116820180604052508101906121679190614923565b8111156121a9576040517f08c379a00000000000000000000000000000000000000000000000000000000081526004016121a090615159565b60405180910390fd5b6121b1613521565b80609f819055507f2d1dae59a9e9ec0bc2ab19d45b7d10c8c55304fa08b40a7998e9f67f03223d04609f546040516121e9919061443c565b60405180910390a150565b60606037805461220390614804565b80601f016020809104026020016040519081016040528092919081815260200182805461222f90614804565b801561227c5780601f106122515761010080835404028352916020019161227c565b820191906000526020600020905b81548152906001019060200180831161225f57829003601f168201915b5050505050905090565b6002600381111561229a576122996146c7565b5b609d60149054906101000a900460ff1660038111156122bc576122bb6146c7565b5b146122fc576040517f08c379a00000000000000000000000000000000000000000000000000000000081526004016122f3906151c5565b60405180910390fd5b600061230733611c7f565b90506000811161234c576040517f08c379a000000000000000000000000000000000000000000000000000000000815260040161234390615231565b60405180910390fd5b6000612356610afe565b478361236291906149d5565b61236c9190614ea6565b905061237833836138c0565b6123823382612e44565b3373ffffffffffffffffffffffffffffffffffffffff167f730831a1e4aa2d187ddd8e03d7beeac760a3927da5f112d645e0f8df7494b367826040516123c8919061443c565b60405180910390a25050565b60a25481565b600080603460006123e9612c71565b73ffffffffffffffffffffffffffffffffffffffff1673ffffffffffffffffffffffffffffffffffffffff16815260200190815260200160002060008573ffffffffffffffffffffffffffffffffffffffff1673ffffffffffffffffffffffffffffffffffffffff168152602001908152602001600020549050828110156124a6576040517f08c379a000000000000000000000000000000000000000000000000000000000815260040161249d906152c3565b60405180910390fd5b6124ba6124b1612c71565b85858403612c79565b600191505092915050565b60006124d96124d2612c71565b8484612f6e565b6001905092915050565b60a05481565b60985481565b60006003811115612503576125026146c7565b5b609d60149054906101000a900460ff166003811115612525576125246146c7565b5b14612565576040517f08c379a000000000000000000000000000000000000000000000000000000000815260040161255c9061532f565b60405180910390fd5b61257633612571610afe565b6138c0565b609760009054906101000a900473ffffffffffffffffffffffffffffffffffffffff1673ffffffffffffffffffffffffffffffffffffffff166323b872dd30336098546040518463ffffffff1660e01b81526004016125d79392919061534f565b600060405180830381600087803b1580156125f157600080fd5b505af1158015612605573d6000803e3d6000fd5b505050506003609d60146101000a81548160ff0219169083600381111561262f5761262e6146c7565b5b02179055503373ffffffffffffffffffffffffffffffffffffffff167fd1b5ea7fe0f1c2fa09d49c2aa9b2200664ba57a734f1d95481d95b7f99af991c60405160405180910390a2565b6000600381111561268d5761268c6146c7565b5b609d60149054906101000a900460ff1660038111156126af576126ae6146c7565b5b146126ef576040517f08c379a00000000000000000000000000000000000000000000000000000000081526004016126e6906153d2565b60405180910390fd5b6126f7612935565b341015612739576040517f08c379a00000000000000000000000000000000000000000000000000000000081526004016127309061543e565b60405180910390fd5b612741610afe565b7f000000000000000000000000000000000000000000000000000000000000000073ffffffffffffffffffffffffffffffffffffffff166332977c736040518163ffffffff1660e01b8152600401602060405180830381600087803b1580156127a957600080fd5b505af11580156127bd573d6000803e3d6000fd5b505050506040513d601f19601f820116820180604052508101906127e19190614923565b6127eb91906149d5565b6103e860a2546127fb91906149d5565b101561283c576040517f08c379a0000000000000000000000000000000000000000000000000000000008152600401612833906154aa565b60405180910390fd5b609a544261284a919061497f565b6099819055506001609d60146101000a81548160ff02191690836003811115612876576128756146c7565b5b021790555034609c8190555033609d60006101000a81548173ffffffffffffffffffffffffffffffffffffffff021916908373ffffffffffffffffffffffffffffffffffffffff1602179055503373ffffffffffffffffffffffffffffffffffffffff167fcfb9c5312b25ec7b809d61e638df25f749eae5d5c25399e1c93d1d319bfd582134604051612909919061443c565b60405180910390a2565b60a36020528060005260406000206000915090505481565b612933613521565b565b60008060a254146129555760a254609b546129509190614ea6565b612958565b60005b905090565b6000603460008473ffffffffffffffffffffffffffffffffffffffff1673ffffffffffffffffffffffffffffffffffffffff16815260200190815260200160002060008373ffffffffffffffffffffffffffffffffffffffff1673ffffffffffffffffffffffffffffffffffffffff16815260200190815260200160002054905092915050565b609f5481565b7f000000000000000000000000000000000000000000000000000000000000000081565b609e60009054906101000a900473ffffffffffffffffffffffffffffffffffffffff1681565b60016003811115612a4857612a476146c7565b5b609d60149054906101000a900460ff166003811115612a6a57612a696146c7565b5b14612aaa576040517f08c379a0000000000000000000000000000000000000000000000000000000008152600401612aa190615516565b60405180910390fd5b609954421015612aef576040517f08c379a0000000000000000000000000000000000000000000000000000000008152600401612ae690615582565b60405180910390fd5b612af7613521565b609760009054906101000a900473ffffffffffffffffffffffffffffffffffffffff1673ffffffffffffffffffffffffffffffffffffffff166323b872dd30609d60009054906101000a900473ffffffffffffffffffffffffffffffffffffffff166098546040518463ffffffff1660e01b8152600401612b7a939291906155f7565b600060405180830381600087803b158015612b9457600080fd5b505af1158015612ba8573d6000803e3d6000fd5b505050506002609d60146101000a81548160ff02191690836003811115612bd257612bd16146c7565b5b0217905550609d60009054906101000a900473ffffffffffffffffffffffffffffffffffffffff1673ffffffffffffffffffffffffffffffffffffffff167f8b01f9dd0400d6a1e84369a5fb8f6033934856ffa8ebadd707dca302ab551695609c54604051612c41919061443c565b60405180910390a2565b609760009054906101000a900473ffffffffffffffffffffffffffffffffffffffff1681565b600033905090565b600073ffffffffffffffffffffffffffffffffffffffff168373ffffffffffffffffffffffffffffffffffffffff161415612ce9576040517f08c379a0000000000000000000000000000000000000000000000000000000008152600401612ce0906156a0565b60405180910390fd5b600073ffffffffffffffffffffffffffffffffffffffff168273ffffffffffffffffffffffffffffffffffffffff161415612d59576040517f08c379a0000000000000000000000000000000000000000000000000000000008152600401612d5090615732565b60405180910390fd5b80603460008573ffffffffffffffffffffffffffffffffffffffff1673ffffffffffffffffffffffffffffffffffffffff16815260200190815260200160002060008473ffffffffffffffffffffffffffffffffffffffff1673ffffffffffffffffffffffffffffffffffffffff168152602001908152602001600020819055508173ffffffffffffffffffffffffffffffffffffffff168373ffffffffffffffffffffffffffffffffffffffff167f8c5be1e5ebec7d5bd14f71427d1e84f3dd0314c0f7b2291e5b200ac8c7c3b92583604051612e37919061443c565b60405180910390a3505050565b612e4e8282613a99565b612f6a5773c02aaa39b223fe8d0a0e5c4f27ead9083c756cc273ffffffffffffffffffffffffffffffffffffffff1663d0e30db0826040518263ffffffff1660e01b81526004016000604051808303818588803b158015612eae57600080fd5b505af1158015612ec2573d6000803e3d6000fd5b505050505073c02aaa39b223fe8d0a0e5c4f27ead9083c756cc273ffffffffffffffffffffffffffffffffffffffff1663a9059cbb83836040518363ffffffff1660e01b8152600401612f16929190615752565b602060405180830381600087803b158015612f3057600080fd5b505af1158015612f44573d6000803e3d6000fd5b505050506040513d601f19601f82011682018060405250810190612f6891906157a7565b505b5050565b600073ffffffffffffffffffffffffffffffffffffffff168373ffffffffffffffffffffffffffffffffffffffff161415612fde576040517f08c379a0000000000000000000000000000000000000000000000000000000008152600401612fd590615846565b60405180910390fd5b600073ffffffffffffffffffffffffffffffffffffffff168273ffffffffffffffffffffffffffffffffffffffff16141561304e576040517f08c379a0000000000000000000000000000000000000000000000000000000008152600401613045906158d8565b60405180910390fd5b613059838383613b15565b6000603360008573ffffffffffffffffffffffffffffffffffffffff1673ffffffffffffffffffffffffffffffffffffffff168152602001908152602001600020549050818110156130e0576040517f08c379a00000000000000000000000000000000000000000000000000000000081526004016130d79061596a565b60405180910390fd5b818103603360008673ffffffffffffffffffffffffffffffffffffffff1673ffffffffffffffffffffffffffffffffffffffff1681526020019081526020016000208190555081603360008573ffffffffffffffffffffffffffffffffffffffff1673ffffffffffffffffffffffffffffffffffffffff1681526020019081526020016000206000828254613175919061497f565b925050819055508273ffffffffffffffffffffffffffffffffffffffff168473ffffffffffffffffffffffffffffffffffffffff167fddf252ad1be2c89b69c2b068fc378daa952ba7f163c4a11628f55a4df523b3ef846040516131d9919061443c565b60405180910390a36131ec848484613cb6565b50505050565b600060019054906101000a900460ff1680613218575060008054906101000a900460ff16155b613257576040517f08c379a000000000000000000000000000000000000000000000000000000000815260040161324e90614d59565b60405180910390fd5b60008060019054906101000a900460ff1615905080156132a7576001600060016101000a81548160ff02191690831515021790555060016000806101000a81548160ff0219169083151502179055505b6132af613cbb565b6132b98383613d94565b80156132da5760008060016101000a81548160ff0219169083151502179055505b505050565b600060019054906101000a900460ff1680613305575060008054906101000a900460ff16155b613344576040517f08c379a000000000000000000000000000000000000000000000000000000000815260040161333b90614d59565b60405180910390fd5b60008060019054906101000a900460ff161590508015613394576001600060016101000a81548160ff02191690831515021790555060016000806101000a81548160ff0219169083151502179055505b61339c613e9d565b80156133bd5760008060016101000a81548160ff0219169083151502179055505b50565b600073ffffffffffffffffffffffffffffffffffffffff168273ffffffffffffffffffffffffffffffffffffffff161415613430576040517f08c379a0000000000000000000000000000000000000000000000000000000008152600401613427906159d6565b60405180910390fd5b61343c60008383613b15565b806035600082825461344e919061497f565b9250508190555080603360008473ffffffffffffffffffffffffffffffffffffffff1673ffffffffffffffffffffffffffffffffffffffff16815260200190815260200160002060008282546134a4919061497f565b925050819055508173ffffffffffffffffffffffffffffffffffffffff16600073ffffffffffffffffffffffffffffffffffffffff167fddf252ad1be2c89b69c2b068fc378daa952ba7f163c4a11628f55a4df523b3ef83604051613509919061443c565b60405180910390a361351d60008383613cb6565b5050565b60026003811115613535576135346146c7565b5b609d60149054906101000a900460ff166003811115613557576135566146c7565b5b1415613598576040517f08c379a000000000000000000000000000000000000000000000000000000000815260040161358f90615a68565b60405180910390fd5b60006103e86135a5610afe565b609f546135b291906149d5565b6135bc9190614ea6565b905060006301e13380826135d09190614ea6565b9050600060a054426135e29190614b07565b9050600082826135f291906149d5565b905060007f000000000000000000000000000000000000000000000000000000000000000073ffffffffffffffffffffffffffffffffffffffff1663b3f006746040518163ffffffff1660e01b8152600401602060405180830381600087803b15801561365e57600080fd5b505af1158015613672573d6000803e3d6000fd5b505050506040513d601f19601f820116820180604052508101906136969190615ab4565b905060007f000000000000000000000000000000000000000000000000000000000000000073ffffffffffffffffffffffffffffffffffffffff16630ea90a126040518163ffffffff1660e01b8152600401602060405180830381600087803b15801561370257600080fd5b505af1158015613716573d6000803e3d6000fd5b505050506040513d601f19601f8201168201806040525081019061373a9190614923565b90506103e8613747610afe565b8261375291906149d5565b61375c9190614ea6565b95506301e133808661376e9190614ea6565b94506000858561377e91906149d5565b90504260a081905550600073ffffffffffffffffffffffffffffffffffffffff16609e60009054906101000a900473ffffffffffffffffffffffffffffffffffffffff1673ffffffffffffffffffffffffffffffffffffffff161461384157613809609e60009054906101000a900473ffffffffffffffffffffffffffffffffffffffff16856133c0565b7f62b10e3ff3d45b5ff546e740b893897facb1680285f989a64ae932d62c5388e184604051613838919061443c565b60405180910390a15b600073ffffffffffffffffffffffffffffffffffffffff168373ffffffffffffffffffffffffffffffffffffffff16146138b75761387f83826133c0565b7f62b10e3ff3d45b5ff546e740b893897facb1680285f989a64ae932d62c5388e1816040516138ae919061443c565b60405180910390a15b50505050505050565b600073ffffffffffffffffffffffffffffffffffffffff168273ffffffffffffffffffffffffffffffffffffffff161415613930576040517f08c379a000000000000000000000000000000000000000000000000000000000815260040161392790615b53565b60405180910390fd5b61393c82600083613b15565b6000603360008473ffffffffffffffffffffffffffffffffffffffff1673ffffffffffffffffffffffffffffffffffffffff168152602001908152602001600020549050818110156139c3576040517f08c379a00000000000000000000000000000000000000000000000000000000081526004016139ba90615be5565b60405180910390fd5b818103603360008573ffffffffffffffffffffffffffffffffffffffff1673ffffffffffffffffffffffffffffffffffffffff168152602001908152602001600020819055508160356000828254613a1b9190614b07565b92505081905550600073ffffffffffffffffffffffffffffffffffffffff168373ffffffffffffffffffffffffffffffffffffffff167fddf252ad1be2c89b69c2b068fc378daa952ba7f163c4a11628f55a4df523b3ef84604051613a80919061443c565b60405180910390a3613a9483600084613cb6565b505050565b6000808373ffffffffffffffffffffffffffffffffffffffff168361753090604051613ac490615c36565b600060405180830381858888f193505050503d8060008114613b02576040519150601f19603f3d011682016040523d82523d6000602084013e613b07565b606091505b505090508091505092915050565b60006003811115613b2957613b286146c7565b5b609d60149054906101000a900460ff166003811115613b4b57613b4a6146c7565b5b1415613cb157600060a360008573ffffffffffffffffffffffffffffffffffffffff1673ffffffffffffffffffffffffffffffffffffffff168152602001908152602001600020549050600060a360008573ffffffffffffffffffffffffffffffffffffffff1673ffffffffffffffffffffffffffffffffffffffff168152602001908152602001600020549050818114613cae576000811415613c2b578260a26000828254613bfb9190614b07565b925050819055508183613c0e91906149d5565b609b6000828254613c1f9190614b07565b92505081905550613cad565b6000821415613c76578260a26000828254613c46919061497f565b925050819055508083613c5991906149d5565b609b6000828254613c6a919061497f565b92505081905550613cac565b8183613c8291906149d5565b8184613c8e91906149d5565b609b54613c9b919061497f565b613ca59190614b07565b609b819055505b5b5b50505b505050565b505050565b600060019054906101000a900460ff1680613ce1575060008054906101000a900460ff16155b613d20576040517f08c379a0000000000000000000000000000000000000000000000000000000008152600401613d1790614d59565b60405180910390fd5b60008060019054906101000a900460ff161590508015613d70576001600060016101000a81548160ff02191690831515021790555060016000806101000a81548160ff0219169083151502179055505b8015613d915760008060016101000a81548160ff0219169083151502179055505b50565b600060019054906101000a900460ff1680613dba575060008054906101000a900460ff16155b613df9576040517f08c379a0000000000000000000000000000000000000000000000000000000008152600401613df090614d59565b60405180910390fd5b60008060019054906101000a900460ff161590508015613e49576001600060016101000a81548160ff02191690831515021790555060016000806101000a81548160ff0219169083151502179055505b8260369080519060200190613e5f929190613f76565b508160379080519060200190613e76929190613f76565b508015613e985760008060016101000a81548160ff0219169083151502179055505b505050565b600060019054906101000a900460ff1680613ec3575060008054906101000a900460ff16155b613f02576040517f08c379a0000000000000000000000000000000000000000000000000000000008152600401613ef990614d59565b60405180910390fd5b60008060019054906101000a900460ff161590508015613f52576001600060016101000a81548160ff02191690831515021790555060016000806101000a81548160ff0219169083151502179055505b8015613f735760008060016101000a81548160ff0219169083151502179055505b50565b828054613f8290614804565b90600052602060002090601f016020900481019282613fa45760008555613feb565b82601f10613fbd57805160ff1916838001178555613feb565b82800160010185558215613feb579182015b82811115613fea578251825591602001919060010190613fcf565b5b509050613ff89190613ffc565b5090565b5b80821115614015576000816000905550600101613ffd565b5090565b600081519050919050565b600082825260208201905092915050565b60005b83811015614053578082015181840152602081019050614038565b83811115614062576000848401525b50505050565b6000601f19601f8301169050919050565b600061408482614019565b61408e8185614024565b935061409e818560208601614035565b6140a781614068565b840191505092915050565b600060208201905081810360008301526140cc8184614079565b905092915050565b6000604051905090565b600080fd5b600080fd5b600073ffffffffffffffffffffffffffffffffffffffff82169050919050565b6000614113826140e8565b9050919050565b61412381614108565b811461412e57600080fd5b50565b6000813590506141408161411a565b92915050565b6000819050919050565b61415981614146565b811461416457600080fd5b50565b60008135905061417681614150565b92915050565b60008060408385031215614193576141926140de565b5b60006141a185828601614131565b92505060206141b285828601614167565b9150509250929050565b60008115159050919050565b6141d1816141bc565b82525050565b60006020820190506141ec60008301846141c8565b92915050565b600060208284031215614208576142076140de565b5b600061421684828501614131565b91505092915050565b600080fd5b600080fd5b7f4e487b7100000000000000000000000000000000000000000000000000000000600052604160045260246000fd5b61426182614068565b810181811067ffffffffffffffff821117156142805761427f614229565b5b80604052505050565b60006142936140d4565b905061429f8282614258565b919050565b600067ffffffffffffffff8211156142bf576142be614229565b5b6142c882614068565b9050602081019050919050565b82818337600083830152505050565b60006142f76142f2846142a4565b614289565b90508281526020810184848401111561431357614312614224565b5b61431e8482856142d5565b509392505050565b600082601f83011261433b5761433a61421f565b5b813561434b8482602086016142e4565b91505092915050565b6000806000806080858703121561436e5761436d6140de565b5b600061437c87828801614131565b945050602061438d87828801614131565b935050604061439e87828801614167565b925050606085013567ffffffffffffffff8111156143bf576143be6140e3565b5b6143cb87828801614326565b91505092959194509250565b60007fffffffff0000000000000000000000000000000000000000000000000000000082169050919050565b61440c816143d7565b82525050565b60006020820190506144276000830184614403565b92915050565b61443681614146565b82525050565b6000602082019050614451600083018461442d565b92915050565b6000806000606084860312156144705761446f6140de565b5b600061447e86828701614131565b935050602061448f86828701614131565b92505060406144a086828701614167565b9150509250925092565b6000602082840312156144c0576144bf6140de565b5b60006144ce84828501614167565b91505092915050565b600060ff82169050919050565b6144ed816144d7565b82525050565b600060208201905061450860008301846144e4565b92915050565b61451781614108565b82525050565b6000602082019050614532600083018461450e565b92915050565b600067ffffffffffffffff82111561455357614552614229565b5b61455c82614068565b9050602081019050919050565b600061457c61457784614538565b614289565b90508281526020810184848401111561459857614597614224565b5b6145a38482856142d5565b509392505050565b600082601f8301126145c0576145bf61421f565b5b81356145d0848260208601614569565b91505092915050565b600080600080600080600080610100898b0312156145fa576145f96140de565b5b60006146088b828c01614131565b98505060206146198b828c01614131565b975050604061462a8b828c01614167565b965050606061463b8b828c01614167565b955050608061464c8b828c01614167565b94505060a061465d8b828c01614167565b93505060c089013567ffffffffffffffff81111561467e5761467d6140e3565b5b61468a8b828c016145ab565b92505060e089013567ffffffffffffffff8111156146ab576146aa6140e3565b5b6146b78b828c016145ab565b9150509295985092959890939650565b7f4e487b7100000000000000000000000000000000000000000000000000000000600052602160045260246000fd5b60048110614707576147066146c7565b5b50565b6000819050614718826146f6565b919050565b60006147288261470a565b9050919050565b6147388161471d565b82525050565b6000602082019050614753600083018461472f565b92915050565b6000614764826140e8565b9050919050565b61477481614759565b82525050565b600060208201905061478f600083018461476b565b92915050565b600080604083850312156147ac576147ab6140de565b5b60006147ba85828601614131565b92505060206147cb85828601614131565b9150509250929050565b7f4e487b7100000000000000000000000000000000000000000000000000000000600052602260045260246000fd5b6000600282049050600182168061481c57607f821691505b602082108114156148305761482f6147d5565b5b50919050565b7f7570646174653a6e6f742063757261746f720000000000000000000000000000600082015250565b600061486c601283614024565b915061487782614836565b602082019050919050565b6000602082019050818103600083015261489b8161485f565b9050919050565b7f6269643a61756374696f6e206973206e6f74206c697665000000000000000000600082015250565b60006148d8601783614024565b91506148e3826148a2565b602082019050919050565b60006020820190508181036000830152614907816148cb565b9050919050565b60008151905061491d81614150565b92915050565b600060208284031215614939576149386140de565b5b60006149478482850161490e565b91505092915050565b7f4e487b7100000000000000000000000000000000000000000000000000000000600052601160045260246000fd5b600061498a82614146565b915061499583614146565b9250827fffffffffffffffffffffffffffffffffffffffffffffffffffffffffffffffff038211156149ca576149c9614950565b5b828201905092915050565b60006149e082614146565b91506149eb83614146565b9250817fffffffffffffffffffffffffffffffffffffffffffffffffffffffffffffffff0483118215151615614a2457614a23614950565b5b828202905092915050565b7f6269643a746f6f206c6f77206269640000000000000000000000000000000000600082015250565b6000614a65600f83614024565b9150614a7082614a2f565b602082019050919050565b60006020820190508181036000830152614a9481614a58565b9050919050565b7f6269643a61756374696f6e20656e646564000000000000000000000000000000600082015250565b6000614ad1601183614024565b9150614adc82614a9b565b602082019050919050565b60006020820190508181036000830152614b0081614ac4565b9050919050565b6000614b1282614146565b9150614b1d83614146565b925082821015614b3057614b2f614950565b5b828203905092915050565b7f45524332303a207472616e7366657220616d6f756e742065786365656473206160008201527f6c6c6f77616e6365000000000000000000000000000000000000000000000000602082015250565b6000614b97602883614024565b9150614ba282614b3b565b604082019050919050565b60006020820190508181036000830152614bc681614b8a565b9050919050565b600081519050614bdc8161411a565b92915050565b600060208284031215614bf857614bf76140de565b5b6000614c0684828501614bcd565b91505092915050565b7f6b69636b3a6e6f7420676f760000000000000000000000000000000000000000600082015250565b6000614c45600c83614024565b9150614c5082614c0f565b602082019050919050565b60006020820190508181036000830152614c7481614c38565b9050919050565b7f7570646174653a696e76616c69642061756374696f6e206c656e677468000000600082015250565b6000614cb1601d83614024565b9150614cbc82614c7b565b602082019050919050565b60006020820190508181036000830152614ce081614ca4565b9050919050565b7f496e697469616c697a61626c653a20636f6e747261637420697320616c72656160008201527f647920696e697469616c697a6564000000000000000000000000000000000000602082015250565b6000614d43602e83614024565b9150614d4e82614ce7565b604082019050919050565b60006020820190508181036000830152614d7281614d36565b9050919050565b7f7570646174653a61756374696f6e206c6976652063616e6e6f7420757064617460008201527f6520707269636500000000000000000000000000000000000000000000000000602082015250565b6000614dd5602783614024565b9150614de082614d79565b604082019050919050565b60006020820190508181036000830152614e0481614dc8565b9050919050565b7f7570646174653a6e6f7420616e20757064617465000000000000000000000000600082015250565b6000614e41601483614024565b9150614e4c82614e0b565b602082019050919050565b60006020820190508181036000830152614e7081614e34565b9050919050565b7f4e487b7100000000000000000000000000000000000000000000000000000000600052601260045260246000fd5b6000614eb182614146565b9150614ebc83614146565b925082614ecc57614ecb614e77565b5b828204905092915050565b7f7570646174653a7265736572766520707269636520746f6f206c6f7700000000600082015250565b6000614f0d601c83614024565b9150614f1882614ed7565b602082019050919050565b60006020820190508181036000830152614f3c81614f00565b9050919050565b7f7570646174653a7265736572766520707269636520746f6f2068696768000000600082015250565b6000614f79601d83614024565b9150614f8482614f43565b602082019050919050565b60006020820190508181036000830152614fa881614f6c565b9050919050565b7f72656d6f76653a6e6f7420676f76000000000000000000000000000000000000600082015250565b6000614fe5600e83614024565b9150614ff082614faf565b602082019050919050565b6000602082019050818103600083015261501481614fd8565b9050919050565b6000819050919050565b6000819050919050565b600061504a6150456150408461501b565b615025565b614146565b9050919050565b61505a8161502f565b82525050565b60006020820190506150756000830184615051565b92915050565b7f7570646174653a63616e27742072616973650000000000000000000000000000600082015250565b60006150b1601283614024565b91506150bc8261507b565b602082019050919050565b600060208201905081810360008301526150e0816150a4565b9050919050565b7f7570646174653a63616e6e6f7420696e6372656173652066656520746869732060008201527f6869676800000000000000000000000000000000000000000000000000000000602082015250565b6000615143602483614024565b915061514e826150e7565b604082019050919050565b6000602082019050818103600083015261517281615136565b9050919050565b7f636173683a7661756c74206e6f7420636c6f7365642079657400000000000000600082015250565b60006151af601983614024565b91506151ba82615179565b602082019050919050565b600060208201905081810360008301526151de816151a2565b9050919050565b7f636173683a6e6f20746f6b656e7320746f2063617368206f7574000000000000600082015250565b600061521b601a83614024565b9150615226826151e5565b602082019050919050565b6000602082019050818103600083015261524a8161520e565b9050919050565b7f45524332303a2064656372656173656420616c6c6f77616e63652062656c6f7760008201527f207a65726f000000000000000000000000000000000000000000000000000000602082015250565b60006152ad602583614024565b91506152b882615251565b604082019050919050565b600060208201905081810360008301526152dc816152a0565b9050919050565b7f72656465656d3a6e6f2072656465656d696e6700000000000000000000000000600082015250565b6000615319601383614024565b9150615324826152e3565b602082019050919050565b600060208201905081810360008301526153488161530c565b9050919050565b6000606082019050615364600083018661450e565b615371602083018561450e565b61537e604083018461442d565b949350505050565b7f73746172743a6e6f2061756374696f6e20737461727473000000000000000000600082015250565b60006153bc601783614024565b91506153c782615386565b602082019050919050565b600060208201905081810360008301526153eb816153af565b9050919050565b7f73746172743a746f6f206c6f7720626964000000000000000000000000000000600082015250565b6000615428601183614024565b9150615433826153f2565b602082019050919050565b600060208201905081810360008301526154578161541b565b9050919050565b7f73746172743a6e6f7420656e6f75676820766f74657273000000000000000000600082015250565b6000615494601783614024565b915061549f8261545e565b602082019050919050565b600060208201905081810360008301526154c381615487565b9050919050565b7f656e643a7661756c742068617320616c726561647920636c6f73656400000000600082015250565b6000615500601c83614024565b915061550b826154ca565b602082019050919050565b6000602082019050818103600083015261552f816154f3565b9050919050565b7f656e643a61756374696f6e206c69766500000000000000000000000000000000600082015250565b600061556c601083614024565b915061557782615536565b602082019050919050565b6000602082019050818103600083015261559b8161555f565b9050919050565b60006155bd6155b86155b3846140e8565b615025565b6140e8565b9050919050565b60006155cf826155a2565b9050919050565b60006155e1826155c4565b9050919050565b6155f1816155d6565b82525050565b600060608201905061560c600083018661450e565b61561960208301856155e8565b615626604083018461442d565b949350505050565b7f45524332303a20617070726f76652066726f6d20746865207a65726f2061646460008201527f7265737300000000000000000000000000000000000000000000000000000000602082015250565b600061568a602483614024565b91506156958261562e565b604082019050919050565b600060208201905081810360008301526156b98161567d565b9050919050565b7f45524332303a20617070726f766520746f20746865207a65726f20616464726560008201527f7373000000000000000000000000000000000000000000000000000000000000602082015250565b600061571c602283614024565b9150615727826156c0565b604082019050919050565b6000602082019050818103600083015261574b8161570f565b9050919050565b6000604082019050615767600083018561450e565b615774602083018461442d565b9392505050565b615784816141bc565b811461578f57600080fd5b50565b6000815190506157a18161577b565b92915050565b6000602082840312156157bd576157bc6140de565b5b60006157cb84828501615792565b91505092915050565b7f45524332303a207472616e736665722066726f6d20746865207a65726f20616460008201527f6472657373000000000000000000000000000000000000000000000000000000602082015250565b6000615830602583614024565b915061583b826157d4565b604082019050919050565b6000602082019050818103600083015261585f81615823565b9050919050565b7f45524332303a207472616e7366657220746f20746865207a65726f206164647260008201527f6573730000000000000000000000000000000000000000000000000000000000602082015250565b60006158c2602383614024565b91506158cd82615866565b604082019050919050565b600060208201905081810360008301526158f1816158b5565b9050919050565b7f45524332303a207472616e7366657220616d6f756e742065786365656473206260008201527f616c616e63650000000000000000000000000000000000000000000000000000602082015250565b6000615954602683614024565b915061595f826158f8565b604082019050919050565b6000602082019050818103600083015261598381615947565b9050919050565b7f45524332303a206d696e7420746f20746865207a65726f206164647265737300600082015250565b60006159c0601f83614024565b91506159cb8261598a565b602082019050919050565b600060208201905081810360008301526159ef816159b3565b9050919050565b7f636c61696d3a63616e6e6f7420636c61696d2061667465722061756374696f6e60008201527f20656e6473000000000000000000000000000000000000000000000000000000602082015250565b6000615a52602583614024565b9150615a5d826159f6565b604082019050919050565b60006020820190508181036000830152615a8181615a45565b9050919050565b615a9181614759565b8114615a9c57600080fd5b50565b600081519050615aae81615a88565b92915050565b600060208284031215615aca57615ac96140de565b5b6000615ad884828501615a9f565b91505092915050565b7f45524332303a206275726e2066726f6d20746865207a65726f2061646472657360008201527f7300000000000000000000000000000000000000000000000000000000000000602082015250565b6000615b3d602183614024565b9150615b4882615ae1565b604082019050919050565b60006020820190508181036000830152615b6c81615b30565b9050919050565b7f45524332303a206275726e20616d6f756e7420657863656564732062616c616e60008201527f6365000000000000000000000000000000000000000000000000000000000000602082015250565b6000615bcf602283614024565b9150615bda82615b73565b604082019050919050565b60006020820190508181036000830152615bfe81615bc2565b9050919050565b600081905092915050565b50565b6000615c20600083615c05565b9150615c2b82615c10565b600082019050919050565b6000615c4182615c13565b915081905091905056fea264697066735822122083bc75da22a06aa49633218bc62a9b50e624155540850d572fbadc8bd2f27b2364736f6c63430008090033",
  "immutableReferences": {
    "3829": [
      {
        "length": 32,
        "start": 1804
      }
    ],
    "3832": [
      {
        "length": 32,
        "start": 1331
      },
      {
        "length": 32,
        "start": 1768
      }
    ]
  },
  "source": "//SPDX-License-Identifier: MIT\npragma solidity ^0.8.0;\n\nimport \"@openzeppelin/contracts/access/Ownable.sol\";\nimport \"@openzeppelin/contracts/security/Pausable.sol\";\n\nimport \"@openzeppelin/contracts/token/ERC721/IERC721.sol\";\n\nimport \"./InitializedProxy.sol\";\nimport \"./Settings.sol\";\nimport \"./ERC721TokenVault.sol\";\n\ncontract ERC721VaultFactory is Ownable, Pausable {\n    /// @notice the number of ERC721 vaults\n    uint256 public vaultCount;\n\n    /// @notice the mapping of vault number to vault contract\n    mapping(uint256 => address) public vaults;\n\n    /// @notice a settings contract controlled by governance\n    address public immutable settings;\n    /// @notice the TokenVault logic contract\n    address public immutable logic;\n\n    event Mint(\n        address indexed token,\n        uint256 id,\n        uint256 price,\n        address vault,\n        uint256 vaultId\n    );\n\n    constructor(address _settings) {\n        settings = _settings;\n        logic = address(new TokenVault(_settings));\n    }\n\n    /// @notice the function to mint a new vault\n    /// @param _name the desired name of the vault\n    /// @param _symbol the desired sumbol of the vault\n    /// @param _token the ERC721 token address fo the NFT\n    /// @param _id the uint256 ID of the token\n    /// @param _listPrice the initial price of the NFT\n    /// @return the ID of the vault\n    function mint(\n        string memory _name,\n        string memory _symbol,\n        address _token,\n        uint256 _id,\n        uint256 _supply,\n        uint256 _listPrice,\n        uint256 _fee\n    ) external whenNotPaused returns (uint256) {\n        bytes memory _initializationCalldata = abi.encodeWithSignature(\n            \"initialize(address,address,uint256,uint256,uint256,uint256,string,string)\",\n            msg.sender,\n            _token,\n            _id,\n            _supply,\n            _listPrice,\n            _fee,\n            _name,\n            _symbol\n        );\n\n        address vault = address(\n            new InitializedProxy(logic, _initializationCalldata)\n        );\n\n        emit Mint(_token, _id, _listPrice, vault, vaultCount);\n\n        IERC721(_token).safeTransferFrom(msg.sender, vault, _id);\n\n        vaults[vaultCount] = vault;\n        vaultCount++;\n\n        return vaultCount - 1;\n    }\n\n    function pause() external onlyOwner {\n        _pause();\n    }\n\n    function unpause() external onlyOwner {\n        _unpause();\n    }\n}\n",
  "sourcePath": "/home/user/Desktop/NFTY/contracts/fractional/ERC721VaultFactory.sol",
  "compiler": {
    "name": "solc",
    "version": "0.8.9+commit.e5eed63a.Emscripten.clang"
  },
  "schemaVersion": "3.4.3",
  "updatedAt": "2021-11-27T10:52:52.714Z",
  "devdoc": {
    "kind": "dev",
    "methods": {
      "mint(string,string,address,uint256,uint256,uint256,uint256)": {
        "params": {
          "_id": "the uint256 ID of the token",
          "_listPrice": "the initial price of the NFT",
          "_name": "the desired name of the vault",
          "_symbol": "the desired sumbol of the vault",
          "_token": "the ERC721 token address fo the NFT"
        },
        "returns": {
          "_0": "the ID of the vault"
        }
      },
      "owner()": {
        "details": "Returns the address of the current owner."
      },
      "paused()": {
        "details": "Returns true if the contract is paused, and false otherwise."
      },
      "renounceOwnership()": {
        "details": "Leaves the contract without owner. It will not be possible to call `onlyOwner` functions anymore. Can only be called by the current owner. NOTE: Renouncing ownership will leave the contract without an owner, thereby removing any functionality that is only available to the owner."
      },
      "transferOwnership(address)": {
        "details": "Transfers ownership of the contract to a new account (`newOwner`). Can only be called by the current owner."
      }
    },
    "version": 1
  },
  "userdoc": {
    "kind": "user",
    "methods": {
      "logic()": {
        "notice": "the TokenVault logic contract"
      },
      "mint(string,string,address,uint256,uint256,uint256,uint256)": {
        "notice": "the function to mint a new vault"
      },
      "settings()": {
        "notice": "a settings contract controlled by governance"
      },
      "vaultCount()": {
        "notice": "the number of ERC721 vaults"
      },
      "vaults(uint256)": {
        "notice": "the mapping of vault number to vault contract"
      }
    },
    "version": 1
  }
}