{
  "contractName": "InitializedProxy",
  "abi": [
    {
      "inputs": [
        {
          "internalType": "address",
          "name": "_logic",
          "type": "address"
        },
        {
          "internalType": "bytes",
          "name": "_initializationCalldata",
          "type": "bytes"
        }
      ],
      "stateMutability": "nonpayable",
      "type": "constructor"
    },
    {
      "stateMutability": "payable",
      "type": "fallback"
    },
    {
      "inputs": [],
      "name": "logic",
      "outputs": [
        {
          "internalType": "address",
          "name": "",
          "type": "address"
        }
      ],
      "stateMutability": "view",
      "type": "function"
    },
    {
      "stateMutability": "payable",
      "type": "receive"
    }
  ],
  "bytecode": "0x60a060405234801561001057600080fd5b506040516105a33803806105a3833981810160405281019061003291906102fc565b8173ffffffffffffffffffffffffffffffffffffffff1660808173ffffffffffffffffffffffffffffffffffffffff16815250506000808373ffffffffffffffffffffffffffffffffffffffff168360405161008e919061039f565b600060405180830381855af49150503d80600081146100c9576040519150601f19603f3d011682016040523d82523d6000602084013e6100ce565b606091505b5091509150818190610116576040517f08c379a000000000000000000000000000000000000000000000000000000000815260040161010d919061040b565b60405180910390fd5b505050505061042d565b6000604051905090565b600080fd5b600080fd5b600073ffffffffffffffffffffffffffffffffffffffff82169050919050565b600061015f82610134565b9050919050565b61016f81610154565b811461017a57600080fd5b50565b60008151905061018c81610166565b92915050565b600080fd5b600080fd5b6000601f19601f8301169050919050565b7f4e487b7100000000000000000000000000000000000000000000000000000000600052604160045260246000fd5b6101e58261019c565b810181811067ffffffffffffffff82111715610204576102036101ad565b5b80604052505050565b6000610217610120565b905061022382826101dc565b919050565b600067ffffffffffffffff821115610243576102426101ad565b5b61024c8261019c565b9050602081019050919050565b60005b8381101561027757808201518184015260208101905061025c565b83811115610286576000848401525b50505050565b600061029f61029a84610228565b61020d565b9050828152602081018484840111156102bb576102ba610197565b5b6102c6848285610259565b509392505050565b600082601f8301126102e3576102e2610192565b5b81516102f384826020860161028c565b91505092915050565b600080604083850312156103135761031261012a565b5b60006103218582860161017d565b925050602083015167ffffffffffffffff8111156103425761034161012f565b5b61034e858286016102ce565b9150509250929050565b600081519050919050565b600081905092915050565b600061037982610358565b6103838185610363565b9350610393818560208601610259565b80840191505092915050565b60006103ab828461036e565b915081905092915050565b600081519050919050565b600082825260208201905092915050565b60006103dd826103b6565b6103e781856103c1565b93506103f7818560208601610259565b6104008161019c565b840191505092915050565b6000602082019050818103600083015261042581846103d2565b905092915050565b60805161015661044d60003960008181602d015260a201526101566000f3fe6080604052600436106100225760003560e01c8063d7dfa0dd1461007557610029565b3661002957005b60007f0000000000000000000000000000000000000000000000000000000000000000905060405136600082376000803683855af43d806000843e8160008114610071578184f35b8184fd5b34801561008157600080fd5b5061008a6100a0565b6040516100979190610105565b60405180910390f35b7f000000000000000000000000000000000000000000000000000000000000000081565b600073ffffffffffffffffffffffffffffffffffffffff82169050919050565b60006100ef826100c4565b9050919050565b6100ff816100e4565b82525050565b600060208201905061011a60008301846100f6565b9291505056fea26469706673582212201b26cc47022327e51df522d7ba7e9351966934350fb7b4e1f73866d293a1597c64736f6c63430008090033",
  "immutableReferences": {
    "3971": [
      {
        "length": 32,
        "start": 45
      },
      {
        "length": 32,
        "start": 162
      }
    ]
  },
  "source": "// SPDX-License-Identifier: MIT\npragma solidity ^0.8.0;\n\n/**\n * @title InitializedProxy\n * @author Anna Carroll\n */\ncontract InitializedProxy {\n    // address of logic contract\n    address public immutable logic;\n\n    // ======== Constructor =========\n\n    constructor(\n        address _logic,\n        bytes memory _initializationCalldata\n    ) {\n        logic = _logic;\n        // Delegatecall into the logic contract, supplying initialization calldata\n        (bool _ok, bytes memory returnData) =\n            _logic.delegatecall(_initializationCalldata);\n        // Revert if delegatecall to implementation reverts\n        require(_ok, string(returnData));\n    }\n\n    // ======== Fallback =========\n\n    fallback() external payable {\n        address _impl = logic;\n        assembly {\n            let ptr := mload(0x40)\n            calldatacopy(ptr, 0, calldatasize())\n            let result := delegatecall(gas(), _impl, ptr, calldatasize(), 0, 0)\n            let size := returndatasize()\n            returndatacopy(ptr, 0, size)\n\n            switch result\n                case 0 {\n                    revert(ptr, size)\n                }\n                default {\n                    return(ptr, size)\n                }\n        }\n    }\n\n    // ======== Receive =========\n\n    receive() external payable {} // solhint-disable-line no-empty-blocks\n}",
  "sourcePath": "/home/user/Desktop/NFTY/contracts/fractional/InitializedProxy.sol",
  "compiler": {
    "name": "solc",
    "version": "0.8.9+commit.e5eed63a.Emscripten.clang"
  },
  "schemaVersion": "3.4.3",
  "updatedAt": "2021-11-27T10:52:52.731Z",
  "devdoc": {
    "author": "Anna Carroll",
    "kind": "dev",
    "methods": {},
    "title": "InitializedProxy",
    "version": 1
  },
  "userdoc": {
    "kind": "user",
    "methods": {},
    "version": 1
  }
}