{
  "contractName": "MessageFactory",
  "abi": [
    {
      "inputs": [
        {
          "internalType": "uint256",
          "name": "",
          "type": "uint256"
        }
      ],
      "name": "newContracts",
      "outputs": [
        {
          "internalType": "address",
          "name": "",
          "type": "address"
        }
      ],
      "stateMutability": "view",
      "type": "function",
      "constant": true
    },
    {
      "inputs": [
        {
          "internalType": "string",
          "name": "message",
          "type": "string"
        }
      ],
      "name": "createContract",
      "outputs": [],
      "stateMutability": "nonpayable",
      "type": "function"
    },
    {
      "inputs": [],
      "name": "viewMessage",
      "outputs": [
        {
          "internalType": "string",
          "name": "",
          "type": "string"
        }
      ],
      "stateMutability": "view",
      "type": "function",
      "constant": true
    }
  ],
  "bytecode": "0x608060405234801561001057600080fd5b50610c62806100206000396000f3fe60806040523480156200001157600080fd5b5060043610620000465760003560e01c806318f80bb9146200004b578063191384d1146200006b578063bd21ad19146200008d575b600080fd5b62000069600480360381019062000063919062000400565b620000c3565b005b6200007562000167565b604051620000849190620004e4565b60405180910390f35b620000ab6004803603810190620000a5919062000543565b6200023c565b604051620000ba9190620005ba565b60405180910390f35b600081604051620000d4906200027c565b620000e09190620004e4565b604051809103906000f080158015620000fd573d6000803e3d6000fd5b5090506000819080600181540180825580915050600190039060005260206000200160009091909190916101000a81548173ffffffffffffffffffffffffffffffffffffffff021916908373ffffffffffffffffffffffffffffffffffffffff1602179055505050565b6060600080600081548110620001825762000181620005d7565b5b9060005260206000200160009054906101000a900473ffffffffffffffffffffffffffffffffffffffff1690508073ffffffffffffffffffffffffffffffffffffffff1663e21f37ce6040518163ffffffff1660e01b815260040160006040518083038186803b158015620001f657600080fd5b505afa1580156200020b573d6000803e3d6000fd5b505050506040513d6000823e3d601f19601f8201168201806040525081019062000236919062000684565b91505090565b600081815481106200024d57600080fd5b906000526020600020016000915054906101000a900473ffffffffffffffffffffffffffffffffffffffff1681565b61055780620006d683390190565b6000604051905090565b600080fd5b600080fd5b600080fd5b600080fd5b6000601f19601f8301169050919050565b7f4e487b7100000000000000000000000000000000000000000000000000000000600052604160045260246000fd5b620002f382620002a8565b810181811067ffffffffffffffff82111715620003155762000314620002b9565b5b80604052505050565b60006200032a6200028a565b9050620003388282620002e8565b919050565b600067ffffffffffffffff8211156200035b576200035a620002b9565b5b6200036682620002a8565b9050602081019050919050565b82818337600083830152505050565b60006200039962000393846200033d565b6200031e565b905082815260208101848484011115620003b857620003b7620002a3565b5b620003c584828562000373565b509392505050565b600082601f830112620003e557620003e46200029e565b5b8135620003f784826020860162000382565b91505092915050565b60006020828403121562000419576200041862000294565b5b600082013567ffffffffffffffff8111156200043a576200043962000299565b5b6200044884828501620003cd565b91505092915050565b600081519050919050565b600082825260208201905092915050565b60005b838110156200048d57808201518184015260208101905062000470565b838111156200049d576000848401525b50505050565b6000620004b08262000451565b620004bc81856200045c565b9350620004ce8185602086016200046d565b620004d981620002a8565b840191505092915050565b60006020820190508181036000830152620005008184620004a3565b905092915050565b6000819050919050565b6200051d8162000508565b81146200052957600080fd5b50565b6000813590506200053d8162000512565b92915050565b6000602082840312156200055c576200055b62000294565b5b60006200056c848285016200052c565b91505092915050565b600073ffffffffffffffffffffffffffffffffffffffff82169050919050565b6000620005a28262000575565b9050919050565b620005b48162000595565b82525050565b6000602082019050620005d16000830184620005a9565b92915050565b7f4e487b7100000000000000000000000000000000000000000000000000000000600052603260045260246000fd5b60006200061d62000617846200033d565b6200031e565b9050828152602081018484840111156200063c576200063b620002a3565b5b620006498482856200046d565b509392505050565b600082601f8301126200066957620006686200029e565b5b81516200067b84826020860162000606565b91505092915050565b6000602082840312156200069d576200069c62000294565b5b600082015167ffffffffffffffff811115620006be57620006bd62000299565b5b620006cc8482850162000651565b9150509291505056fe608060405234801561001057600080fd5b5060405161055738038061055783398181016040528101906100329190610270565b806000908051906020019061004892919061004f565b505061031a565b82805461005b906102e8565b90600052602060002090601f01602090048101928261007d57600085556100c4565b82601f1061009657805160ff19168380011785556100c4565b828001600101855582156100c4579182015b828111156100c35782518255916020019190600101906100a8565b5b5090506100d191906100d5565b5090565b5b808211156100ee5760008160009055506001016100d6565b5090565b6000604051905090565b600080fd5b600080fd5b600080fd5b600080fd5b6000601f19601f8301169050919050565b7f4e487b7100000000000000000000000000000000000000000000000000000000600052604160045260246000fd5b61015982610110565b810181811067ffffffffffffffff8211171561017857610177610121565b5b80604052505050565b600061018b6100f2565b90506101978282610150565b919050565b600067ffffffffffffffff8211156101b7576101b6610121565b5b6101c082610110565b9050602081019050919050565b60005b838110156101eb5780820151818401526020810190506101d0565b838111156101fa576000848401525b50505050565b600061021361020e8461019c565b610181565b90508281526020810184848401111561022f5761022e61010b565b5b61023a8482856101cd565b509392505050565b600082601f83011261025757610256610106565b5b8151610267848260208601610200565b91505092915050565b600060208284031215610286576102856100fc565b5b600082015167ffffffffffffffff8111156102a4576102a3610101565b5b6102b084828501610242565b91505092915050565b7f4e487b7100000000000000000000000000000000000000000000000000000000600052602260045260246000fd5b6000600282049050600182168061030057607f821691505b60208210811415610314576103136102b9565b5b50919050565b61022e806103296000396000f3fe608060405234801561001057600080fd5b506004361061002b5760003560e01c8063e21f37ce14610030575b600080fd5b61003861004e565b6040516100459190610175565b60405180910390f35b6000805461005b906101c6565b80601f0160208091040260200160405190810160405280929190818152602001828054610087906101c6565b80156100d45780601f106100a9576101008083540402835291602001916100d4565b820191906000526020600020905b8154815290600101906020018083116100b757829003601f168201915b505050505081565b600081519050919050565b600082825260208201905092915050565b60005b838110156101165780820151818401526020810190506100fb565b83811115610125576000848401525b50505050565b6000601f19601f8301169050919050565b6000610147826100dc565b61015181856100e7565b93506101618185602086016100f8565b61016a8161012b565b840191505092915050565b6000602082019050818103600083015261018f818461013c565b905092915050565b7f4e487b7100000000000000000000000000000000000000000000000000000000600052602260045260246000fd5b600060028204905060018216806101de57607f821691505b602082108114156101f2576101f1610197565b5b5091905056fea264697066735822122078b5b6e7fb4c80b96707874e74eb087aa77a7fc53c03aeb8ff2b3f9e59e8048d64736f6c63430008090033a2646970667358221220bac1fea4300dfe4c01f00d0da77ee0eee34d5e282ef45e2582446d78429ed4c664736f6c63430008090033",
  "immutableReferences": {},
  "source": "//SPDX-License-Identifier: MIT\npragma solidity ^0.8.0;\n\nimport \"./Message.sol\";\n\ncontract MessageFactory {\n    address[] public newContracts;\n\n    function createContract (string memory message) public {\n        address newContract = address(new Message(message));\n        newContracts.push(newContract);\n    }\n\n    function viewMessage () public view returns (string memory) {\n        Message con = Message(newContracts[0]);\n\n        return con.message();\n    }\n}",
  "sourcePath": "/home/user/Desktop/NFTY/contracts/test-contracts/MessageFactory.sol",
  "compiler": {
    "name": "solc",
    "version": "0.8.9+commit.e5eed63a.Emscripten.clang"
  },
  "schemaVersion": "3.4.3",
  "updatedAt": "2021-11-27T11:00:12.695Z",
  "networkType": "ethereum",
  "devdoc": {
    "kind": "dev",
    "methods": {},
    "version": 1
  },
  "userdoc": {
    "kind": "user",
    "methods": {},
    "version": 1
  }
}