{
  "contractName": "Settings",
  "abi": [
    {
      "inputs": [],
      "stateMutability": "nonpayable",
      "type": "constructor"
    },
    {
      "anonymous": false,
      "inputs": [
        {
          "indexed": true,
          "internalType": "address",
          "name": "previousOwner",
          "type": "address"
        },
        {
          "indexed": true,
          "internalType": "address",
          "name": "newOwner",
          "type": "address"
        }
      ],
      "name": "OwnershipTransferred",
      "type": "event"
    },
    {
      "anonymous": false,
      "inputs": [
        {
          "indexed": false,
          "internalType": "uint256",
          "name": "_old",
          "type": "uint256"
        },
        {
          "indexed": false,
          "internalType": "uint256",
          "name": "_new",
          "type": "uint256"
        }
      ],
      "name": "UpdateCuratorFee",
      "type": "event"
    },
    {
      "anonymous": false,
      "inputs": [
        {
          "indexed": false,
          "internalType": "address",
          "name": "_old",
          "type": "address"
        },
        {
          "indexed": false,
          "internalType": "address",
          "name": "_new",
          "type": "address"
        }
      ],
      "name": "UpdateFeeReceiver",
      "type": "event"
    },
    {
      "anonymous": false,
      "inputs": [
        {
          "indexed": false,
          "internalType": "uint256",
          "name": "_old",
          "type": "uint256"
        },
        {
          "indexed": false,
          "internalType": "uint256",
          "name": "_new",
          "type": "uint256"
        }
      ],
      "name": "UpdateGovernanceFee",
      "type": "event"
    },
    {
      "anonymous": false,
      "inputs": [
        {
          "indexed": false,
          "internalType": "uint256",
          "name": "_old",
          "type": "uint256"
        },
        {
          "indexed": false,
          "internalType": "uint256",
          "name": "_new",
          "type": "uint256"
        }
      ],
      "name": "UpdateMaxAuctionLength",
      "type": "event"
    },
    {
      "anonymous": false,
      "inputs": [
        {
          "indexed": false,
          "internalType": "uint256",
          "name": "_old",
          "type": "uint256"
        },
        {
          "indexed": false,
          "internalType": "uint256",
          "name": "_new",
          "type": "uint256"
        }
      ],
      "name": "UpdateMaxReserveFactor",
      "type": "event"
    },
    {
      "anonymous": false,
      "inputs": [
        {
          "indexed": false,
          "internalType": "uint256",
          "name": "_old",
          "type": "uint256"
        },
        {
          "indexed": false,
          "internalType": "uint256",
          "name": "_new",
          "type": "uint256"
        }
      ],
      "name": "UpdateMinAuctionLength",
      "type": "event"
    },
    {
      "anonymous": false,
      "inputs": [
        {
          "indexed": false,
          "internalType": "uint256",
          "name": "_old",
          "type": "uint256"
        },
        {
          "indexed": false,
          "internalType": "uint256",
          "name": "_new",
          "type": "uint256"
        }
      ],
      "name": "UpdateMinBidIncrease",
      "type": "event"
    },
    {
      "anonymous": false,
      "inputs": [
        {
          "indexed": false,
          "internalType": "uint256",
          "name": "_old",
          "type": "uint256"
        },
        {
          "indexed": false,
          "internalType": "uint256",
          "name": "_new",
          "type": "uint256"
        }
      ],
      "name": "UpdateMinReserveFactor",
      "type": "event"
    },
    {
      "anonymous": false,
      "inputs": [
        {
          "indexed": false,
          "internalType": "uint256",
          "name": "_old",
          "type": "uint256"
        },
        {
          "indexed": false,
          "internalType": "uint256",
          "name": "_new",
          "type": "uint256"
        }
      ],
      "name": "UpdateMinVotePercentage",
      "type": "event"
    },
    {
      "inputs": [],
      "name": "feeReceiver",
      "outputs": [
        {
          "internalType": "address payable",
          "name": "",
          "type": "address"
        }
      ],
      "stateMutability": "view",
      "type": "function"
    },
    {
      "inputs": [],
      "name": "governanceFee",
      "outputs": [
        {
          "internalType": "uint256",
          "name": "",
          "type": "uint256"
        }
      ],
      "stateMutability": "view",
      "type": "function"
    },
    {
      "inputs": [],
      "name": "maxAuctionLength",
      "outputs": [
        {
          "internalType": "uint256",
          "name": "",
          "type": "uint256"
        }
      ],
      "stateMutability": "view",
      "type": "function"
    },
    {
      "inputs": [],
      "name": "maxCuratorFee",
      "outputs": [
        {
          "internalType": "uint256",
          "name": "",
          "type": "uint256"
        }
      ],
      "stateMutability": "view",
      "type": "function"
    },
    {
      "inputs": [],
      "name": "maxGovFee",
      "outputs": [
        {
          "internalType": "uint256",
          "name": "",
          "type": "uint256"
        }
      ],
      "stateMutability": "view",
      "type": "function"
    },
    {
      "inputs": [],
      "name": "maxMaxAuctionLength",
      "outputs": [
        {
          "internalType": "uint256",
          "name": "",
          "type": "uint256"
        }
      ],
      "stateMutability": "view",
      "type": "function"
    },
    {
      "inputs": [],
      "name": "maxMinBidIncrease",
      "outputs": [
        {
          "internalType": "uint256",
          "name": "",
          "type": "uint256"
        }
      ],
      "stateMutability": "view",
      "type": "function"
    },
    {
      "inputs": [],
      "name": "maxReserveFactor",
      "outputs": [
        {
          "internalType": "uint256",
          "name": "",
          "type": "uint256"
        }
      ],
      "stateMutability": "view",
      "type": "function"
    },
    {
      "inputs": [],
      "name": "minAuctionLength",
      "outputs": [
        {
          "internalType": "uint256",
          "name": "",
          "type": "uint256"
        }
      ],
      "stateMutability": "view",
      "type": "function"
    },
    {
      "inputs": [],
      "name": "minBidIncrease",
      "outputs": [
        {
          "internalType": "uint256",
          "name": "",
          "type": "uint256"
        }
      ],
      "stateMutability": "view",
      "type": "function"
    },
    {
      "inputs": [],
      "name": "minMinAuctionLength",
      "outputs": [
        {
          "internalType": "uint256",
          "name": "",
          "type": "uint256"
        }
      ],
      "stateMutability": "view",
      "type": "function"
    },
    {
      "inputs": [],
      "name": "minMinBidIncrease",
      "outputs": [
        {
          "internalType": "uint256",
          "name": "",
          "type": "uint256"
        }
      ],
      "stateMutability": "view",
      "type": "function"
    },
    {
      "inputs": [],
      "name": "minReserveFactor",
      "outputs": [
        {
          "internalType": "uint256",
          "name": "",
          "type": "uint256"
        }
      ],
      "stateMutability": "view",
      "type": "function"
    },
    {
      "inputs": [],
      "name": "minVotePercentage",
      "outputs": [
        {
          "internalType": "uint256",
          "name": "",
          "type": "uint256"
        }
      ],
      "stateMutability": "view",
      "type": "function"
    },
    {
      "inputs": [],
      "name": "owner",
      "outputs": [
        {
          "internalType": "address",
          "name": "",
          "type": "address"
        }
      ],
      "stateMutability": "view",
      "type": "function"
    },
    {
      "inputs": [],
      "name": "renounceOwnership",
      "outputs": [],
      "stateMutability": "nonpayable",
      "type": "function"
    },
    {
      "inputs": [
        {
          "internalType": "address",
          "name": "newOwner",
          "type": "address"
        }
      ],
      "name": "transferOwnership",
      "outputs": [],
      "stateMutability": "nonpayable",
      "type": "function"
    },
    {
      "inputs": [
        {
          "internalType": "uint256",
          "name": "_length",
          "type": "uint256"
        }
      ],
      "name": "setMaxAuctionLength",
      "outputs": [],
      "stateMutability": "nonpayable",
      "type": "function"
    },
    {
      "inputs": [
        {
          "internalType": "uint256",
          "name": "_length",
          "type": "uint256"
        }
      ],
      "name": "setMinAuctionLength",
      "outputs": [],
      "stateMutability": "nonpayable",
      "type": "function"
    },
    {
      "inputs": [
        {
          "internalType": "uint256",
          "name": "_fee",
          "type": "uint256"
        }
      ],
      "name": "setGovernanceFee",
      "outputs": [],
      "stateMutability": "nonpayable",
      "type": "function"
    },
    {
      "inputs": [
        {
          "internalType": "uint256",
          "name": "_fee",
          "type": "uint256"
        }
      ],
      "name": "setMaxCuratorFee",
      "outputs": [],
      "stateMutability": "nonpayable",
      "type": "function"
    },
    {
      "inputs": [
        {
          "internalType": "uint256",
          "name": "_min",
          "type": "uint256"
        }
      ],
      "name": "setMinBidIncrease",
      "outputs": [],
      "stateMutability": "nonpayable",
      "type": "function"
    },
    {
      "inputs": [
        {
          "internalType": "uint256",
          "name": "_min",
          "type": "uint256"
        }
      ],
      "name": "setMinVotePercentage",
      "outputs": [],
      "stateMutability": "nonpayable",
      "type": "function"
    },
    {
      "inputs": [
        {
          "internalType": "uint256",
          "name": "_factor",
          "type": "uint256"
        }
      ],
      "name": "setMaxReserveFactor",
      "outputs": [],
      "stateMutability": "nonpayable",
      "type": "function"
    },
    {
      "inputs": [
        {
          "internalType": "uint256",
          "name": "_factor",
          "type": "uint256"
        }
      ],
      "name": "setMinReserveFactor",
      "outputs": [],
      "stateMutability": "nonpayable",
      "type": "function"
    },
    {
      "inputs": [
        {
          "internalType": "address payable",
          "name": "_receiver",
          "type": "address"
        }
      ],
      "name": "setFeeReceiver",
      "outputs": [],
      "stateMutability": "nonpayable",
      "type": "function"
    }
  ],
  "bytecode": "0x608060405234801561001057600080fd5b5061002d6100226100b060201b60201c565b6100b860201b60201c565b621275006001819055506203f48060028190555033600960006101000a81548173ffffffffffffffffffffffffffffffffffffffff021916908373ffffffffffffffffffffffffffffffffffffffff16021790555060c86008819055506113886007819055506032600581905550606460048190555060fa60068190555061017c565b600033905090565b60008060009054906101000a900473ffffffffffffffffffffffffffffffffffffffff169050816000806101000a81548173ffffffffffffffffffffffffffffffffffffffff021916908373ffffffffffffffffffffffffffffffffffffffff1602179055508173ffffffffffffffffffffffffffffffffffffffff168173ffffffffffffffffffffffffffffffffffffffff167f8be0079c531659141344cd1fd0a4f28419497f9722a3daafe3b4186f6b6457e060405160405180910390a35050565b611a158061018b6000396000f3fe608060405234801561001057600080fd5b506004361061018e5760003560e01c80637c513c0f116100de578063a0b335e311610097578063d213b90011610071578063d213b90014610403578063efdcd97414610421578063f2fde38b1461043d578063fcd81e32146104595761018e565b8063a0b335e3146103ab578063affdafd8146103c9578063b3f00674146103e55761018e565b80637c513c0f146102fb578063846a4dd21461031957806384810309146103375780638a364bc1146103535780638da5cb5b146103715780639665eb0f1461038f5761018e565b806332a693301161014b57806357c74c6c1161012557806357c74c6c1461029d5780636109f5b5146102b95780636fc83db3146102d5578063715018a6146102f15761018e565b806332a6933014610245578063339f87ed146102615780635410bfc91461027f5761018e565b806309990a96146101935780630e519ef9146101b15780630ea90a12146101cf57806318fee3bf146101ed5780631a58364c1461020957806332977c7314610227575b600080fd5b61019b610477565b6040516101a891906111b8565b60405180910390f35b6101b961047d565b6040516101c691906111b8565b60405180910390f35b6101d7610483565b6040516101e491906111b8565b60405180910390f35b61020760048036038101906102029190611204565b610489565b005b61021161058e565b60405161021e91906111b8565b60405180910390f35b61022f610595565b60405161023c91906111b8565b60405180910390f35b61025f600480360381019061025a9190611204565b61059b565b005b6102696106a0565b60405161027691906111b8565b60405180910390f35b6102876106a5565b60405161029491906111b8565b60405180910390f35b6102b760048036038101906102b29190611204565b6106ab565b005b6102d360048036038101906102ce9190611204565b6107b1565b005b6102ef60048036038101906102ea9190611204565b610872565b005b6102f96109bd565b005b610303610a45565b60405161031091906111b8565b60405180910390f35b610321610a4b565b60405161032e91906111b8565b60405180910390f35b610351600480360381019061034c9190611204565b610a50565b005b61035b610b55565b60405161036891906111b8565b60405180910390f35b610379610b5b565b6040516103869190611272565b60405180910390f35b6103a960048036038101906103a49190611204565b610b84565b005b6103b3610ccd565b6040516103c091906111b8565b60405180910390f35b6103e360048036038101906103de9190611204565b610cd3565b005b6103ed610e1e565b6040516103fa91906112ae565b60405180910390f35b61040b610e44565b60405161041891906111b8565b60405180910390f35b61043b600480360381019061043691906112f5565b610e4b565b005b6104576004803603810190610452919061134e565b610fd6565b005b6104616110ce565b60405161046e91906111b8565b60405180910390f35b60085481565b60015481565b60035481565b6104916110d3565b73ffffffffffffffffffffffffffffffffffffffff166104af610b5b565b73ffffffffffffffffffffffffffffffffffffffff1614610505576040517f08c379a00000000000000000000000000000000000000000000000000000000081526004016104fc906113d8565b60405180910390fd5b6007548110610549576040517f08c379a000000000000000000000000000000000000000000000000000000000815260040161054090611444565b60405180910390fd5b7fa93910a1e82dcd753b639a2ff1def7bf84d6bb1bf6fe79212d0d9ae72afc6cfa6008548260405161057c929190611464565b60405180910390a18060088190555050565b6249d40081565b60065481565b6105a36110d3565b73ffffffffffffffffffffffffffffffffffffffff166105c1610b5b565b73ffffffffffffffffffffffffffffffffffffffff1614610617576040517f08c379a000000000000000000000000000000000000000000000000000000000815260040161060e906113d8565b60405180910390fd5b606481111561065b576040517f08c379a0000000000000000000000000000000000000000000000000000000008152600401610652906114d9565b60405180910390fd5b7f11b96af861c45de0c17127383516c92fc2a9d50eff86ea831b69e76a3fa87e2f6003548260405161068e929190611464565b60405180910390a18060038190555050565b600a81565b60075481565b6106b36110d3565b73ffffffffffffffffffffffffffffffffffffffff166106d1610b5b565b73ffffffffffffffffffffffffffffffffffffffff1614610727576040517f08c379a000000000000000000000000000000000000000000000000000000000815260040161071e906113d8565b60405180910390fd5b6103e881111561076c576040517f08c379a000000000000000000000000000000000000000000000000000000000815260040161076390611545565b60405180910390fd5b7ff8298d9709c2527c6ec1e2c605c5a163b44b0520bdd80335d5faba17e3f38fb86006548260405161079f929190611464565b60405180910390a18060068190555050565b6107b96110d3565b73ffffffffffffffffffffffffffffffffffffffff166107d7610b5b565b73ffffffffffffffffffffffffffffffffffffffff161461082d576040517f08c379a0000000000000000000000000000000000000000000000000000000008152600401610824906113d8565b60405180910390fd5b7f283f7179cc13a8f90c3123b415b98ca8a0ca9619eed3c981db52809ab62700f960035482604051610860929190611464565b60405180910390a18060048190555050565b61087a6110d3565b73ffffffffffffffffffffffffffffffffffffffff16610898610b5b565b73ffffffffffffffffffffffffffffffffffffffff16146108ee576040517f08c379a00000000000000000000000000000000000000000000000000000000081526004016108e5906113d8565b60405180910390fd5b62015180811015610934576040517f08c379a000000000000000000000000000000000000000000000000000000000815260040161092b906115b1565b60405180910390fd5b6001548110610978576040517f08c379a000000000000000000000000000000000000000000000000000000000815260040161096f9061161d565b60405180910390fd5b7f055017e5b2f20973817c668e2f744e7c1b68a6f20332f25bb7b9bbb2f0c7eca7600254826040516109ab929190611464565b60405180910390a18060028190555050565b6109c56110d3565b73ffffffffffffffffffffffffffffffffffffffff166109e3610b5b565b73ffffffffffffffffffffffffffffffffffffffff1614610a39576040517f08c379a0000000000000000000000000000000000000000000000000000000008152600401610a30906113d8565b60405180910390fd5b610a4360006110db565b565b60055481565b606481565b610a586110d3565b73ffffffffffffffffffffffffffffffffffffffff16610a76610b5b565b73ffffffffffffffffffffffffffffffffffffffff1614610acc576040517f08c379a0000000000000000000000000000000000000000000000000000000008152600401610ac3906113d8565b60405180910390fd5b6008548111610b10576040517f08c379a0000000000000000000000000000000000000000000000000000000008152600401610b0790611689565b60405180910390fd5b7febec08ac4f5f91f0463f6e09a9b1729f1cbea09d240d8a1807ed6b9cd171ef1960075482604051610b43929190611464565b60405180910390a18060078190555050565b60045481565b60008060009054906101000a900473ffffffffffffffffffffffffffffffffffffffff16905090565b610b8c6110d3565b73ffffffffffffffffffffffffffffffffffffffff16610baa610b5b565b73ffffffffffffffffffffffffffffffffffffffff1614610c00576040517f08c379a0000000000000000000000000000000000000000000000000000000008152600401610bf7906113d8565b60405180910390fd5b6064811115610c44576040517f08c379a0000000000000000000000000000000000000000000000000000000008152600401610c3b906116f5565b60405180910390fd5b600a811015610c88576040517f08c379a0000000000000000000000000000000000000000000000000000000008152600401610c7f90611761565b60405180910390fd5b7f3995c181714327dbf0232c3b20873e87ca6978b6418eec0f97a1447c5a4c43fc60055482604051610cbb929190611464565b60405180910390a18060058190555050565b60025481565b610cdb6110d3565b73ffffffffffffffffffffffffffffffffffffffff16610cf9610b5b565b73ffffffffffffffffffffffffffffffffffffffff1614610d4f576040517f08c379a0000000000000000000000000000000000000000000000000000000008152600401610d46906113d8565b60405180910390fd5b6249d400811115610d95576040517f08c379a0000000000000000000000000000000000000000000000000000000008152600401610d8c906117cd565b60405180910390fd5b6002548111610dd9576040517f08c379a0000000000000000000000000000000000000000000000000000000008152600401610dd090611839565b60405180910390fd5b7f06684837277f012a4c3a13c8ec0e53d85b843e328a811a8f5f25f5e1456d9f5960015482604051610e0c929190611464565b60405180910390a18060018190555050565b600960009054906101000a900473ffffffffffffffffffffffffffffffffffffffff1681565b6201518081565b610e536110d3565b73ffffffffffffffffffffffffffffffffffffffff16610e71610b5b565b73ffffffffffffffffffffffffffffffffffffffff1614610ec7576040517f08c379a0000000000000000000000000000000000000000000000000000000008152600401610ebe906113d8565b60405180910390fd5b600073ffffffffffffffffffffffffffffffffffffffff168173ffffffffffffffffffffffffffffffffffffffff161415610f37576040517f08c379a0000000000000000000000000000000000000000000000000000000008152600401610f2e906118a5565b60405180910390fd5b7f2861448678f0be67f11bfb5481b3e3b4cfeb3acc6126ad60a05f95bfc6530666600960009054906101000a900473ffffffffffffffffffffffffffffffffffffffff1682604051610f8a929190611924565b60405180910390a180600960006101000a81548173ffffffffffffffffffffffffffffffffffffffff021916908373ffffffffffffffffffffffffffffffffffffffff16021790555050565b610fde6110d3565b73ffffffffffffffffffffffffffffffffffffffff16610ffc610b5b565b73ffffffffffffffffffffffffffffffffffffffff1614611052576040517f08c379a0000000000000000000000000000000000000000000000000000000008152600401611049906113d8565b60405180910390fd5b600073ffffffffffffffffffffffffffffffffffffffff168173ffffffffffffffffffffffffffffffffffffffff1614156110c2576040517f08c379a00000000000000000000000000000000000000000000000000000000081526004016110b9906119bf565b60405180910390fd5b6110cb816110db565b50565b606481565b600033905090565b60008060009054906101000a900473ffffffffffffffffffffffffffffffffffffffff169050816000806101000a81548173ffffffffffffffffffffffffffffffffffffffff021916908373ffffffffffffffffffffffffffffffffffffffff1602179055508173ffffffffffffffffffffffffffffffffffffffff168173ffffffffffffffffffffffffffffffffffffffff167f8be0079c531659141344cd1fd0a4f28419497f9722a3daafe3b4186f6b6457e060405160405180910390a35050565b6000819050919050565b6111b28161119f565b82525050565b60006020820190506111cd60008301846111a9565b92915050565b600080fd5b6111e18161119f565b81146111ec57600080fd5b50565b6000813590506111fe816111d8565b92915050565b60006020828403121561121a576112196111d3565b5b6000611228848285016111ef565b91505092915050565b600073ffffffffffffffffffffffffffffffffffffffff82169050919050565b600061125c82611231565b9050919050565b61126c81611251565b82525050565b60006020820190506112876000830184611263565b92915050565b600061129882611231565b9050919050565b6112a88161128d565b82525050565b60006020820190506112c3600083018461129f565b92915050565b6112d28161128d565b81146112dd57600080fd5b50565b6000813590506112ef816112c9565b92915050565b60006020828403121561130b5761130a6111d3565b5b6000611319848285016112e0565b91505092915050565b61132b81611251565b811461133657600080fd5b50565b60008135905061134881611322565b92915050565b600060208284031215611364576113636111d3565b5b600061137284828501611339565b91505092915050565b600082825260208201905092915050565b7f4f776e61626c653a2063616c6c6572206973206e6f7420746865206f776e6572600082015250565b60006113c260208361137b565b91506113cd8261138c565b602082019050919050565b600060208201905081810360008301526113f1816113b5565b9050919050565b7f6d696e207265736572766520666163746f7220746f6f20686967680000000000600082015250565b600061142e601b8361137b565b9150611439826113f8565b602082019050919050565b6000602082019050818103600083015261145d81611421565b9050919050565b600060408201905061147960008301856111a9565b61148660208301846111a9565b9392505050565b7f66656520746f6f20686967680000000000000000000000000000000000000000600082015250565b60006114c3600c8361137b565b91506114ce8261148d565b602082019050919050565b600060208201905081810360008301526114f2816114b6565b9050919050565b7f6d696e20766f74652070657263656e7461676520746f6f206869676800000000600082015250565b600061152f601c8361137b565b915061153a826114f9565b602082019050919050565b6000602082019050818103600083015261155e81611522565b9050919050565b7f6d696e2061756374696f6e206c656e67746820746f6f206c6f77000000000000600082015250565b600061159b601a8361137b565b91506115a682611565565b602082019050919050565b600060208201905081810360008301526115ca8161158e565b9050919050565b7f6d696e2061756374696f6e206c656e67746820746f6f20686967680000000000600082015250565b6000611607601b8361137b565b9150611612826115d1565b602082019050919050565b60006020820190508181036000830152611636816115fa565b9050919050565b7f6d6178207265736572766520666163746f7220746f6f206c6f77000000000000600082015250565b6000611673601a8361137b565b915061167e8261163d565b602082019050919050565b600060208201905081810360008301526116a281611666565b9050919050565b7f6d696e2062696420696e63726561736520746f6f206869676800000000000000600082015250565b60006116df60198361137b565b91506116ea826116a9565b602082019050919050565b6000602082019050818103600083015261170e816116d2565b9050919050565b7f6d696e2062696420696e63726561736520746f6f206c6f770000000000000000600082015250565b600061174b60188361137b565b915061175682611715565b602082019050919050565b6000602082019050818103600083015261177a8161173e565b9050919050565b7f6d61782061756374696f6e206c656e67746820746f6f20686967680000000000600082015250565b60006117b7601b8361137b565b91506117c282611781565b602082019050919050565b600060208201905081810360008301526117e6816117aa565b9050919050565b7f6d61782061756374696f6e206c656e67746820746f6f206c6f77000000000000600082015250565b6000611823601a8361137b565b915061182e826117ed565b602082019050919050565b6000602082019050818103600083015261185281611816565b9050919050565b7f666565732063616e6e6f7420676f20746f203020616464726573730000000000600082015250565b600061188f601b8361137b565b915061189a82611859565b602082019050919050565b600060208201905081810360008301526118be81611882565b9050919050565b6000819050919050565b60006118ea6118e56118e084611231565b6118c5565b611231565b9050919050565b60006118fc826118cf565b9050919050565b600061190e826118f1565b9050919050565b61191e81611903565b82525050565b60006040820190506119396000830185611915565b6119466020830184611915565b9392505050565b7f4f776e61626c653a206e6577206f776e657220697320746865207a65726f206160008201527f6464726573730000000000000000000000000000000000000000000000000000602082015250565b60006119a960268361137b565b91506119b48261194d565b604082019050919050565b600060208201905081810360008301526119d88161199c565b905091905056fea2646970667358221220e8852aae8e39074921483d4a8694ad1ad812b03224558968d92c6742e33255eb64736f6c63430008090033",
  "immutableReferences": {},
  "source": "//SPDX-License-Identifier: MIT\npragma solidity ^0.8.0;\n\nimport \"@openzeppelin/contracts/access/Ownable.sol\";\nimport \"./Interfaces/ISettings.sol\";\n\ncontract Settings is Ownable, ISettings {\n    /// @notice the maximum auction length\n    uint256 public override maxAuctionLength;\n\n    /// @notice the longest an auction can ever be\n    uint256 public constant maxMaxAuctionLength = 8 weeks;\n\n    /// @notice the minimum auction length\n    uint256 public override minAuctionLength;\n\n    /// @notice the shortest an auction can ever be\n    uint256 public constant minMinAuctionLength = 1 days;\n\n    /// @notice governance fee max\n    uint256 public override governanceFee;\n\n    /// @notice 10% fee is max\n    uint256 public constant maxGovFee = 100;\n\n    /// @notice max curator fee\n    uint256 public override maxCuratorFee;\n\n    /// @notice the % bid increase required for a new bid\n    uint256 public override minBidIncrease;\n\n    /// @notice 10% bid increase is max\n    uint256 public constant maxMinBidIncrease = 100;\n\n    /// @notice 1% bid increase is min\n    uint256 public constant minMinBidIncrease = 10;\n\n    /// @notice the % of tokens required to be voting for an auction to start\n    uint256 public override minVotePercentage;\n\n    /// @notice the max % increase over the initial\n    uint256 public override maxReserveFactor;\n\n    /// @notice the max % decrease from the initial\n    uint256 public override minReserveFactor;\n\n    /// @notice the address who receives auction fees\n    address payable public override feeReceiver;\n\n    event UpdateMaxAuctionLength(uint256 _old, uint256 _new);\n\n    event UpdateMinAuctionLength(uint256 _old, uint256 _new);\n\n    event UpdateGovernanceFee(uint256 _old, uint256 _new);\n\n    event UpdateCuratorFee(uint256 _old, uint256 _new);\n\n    event UpdateMinBidIncrease(uint256 _old, uint256 _new);\n\n    event UpdateMinVotePercentage(uint256 _old, uint256 _new);\n\n    event UpdateMaxReserveFactor(uint256 _old, uint256 _new);\n\n    event UpdateMinReserveFactor(uint256 _old, uint256 _new);\n\n    event UpdateFeeReceiver(address _old, address _new);\n\n    constructor() {\n        maxAuctionLength = 2 weeks;\n        minAuctionLength = 3 days;\n        feeReceiver = payable(msg.sender);\n        minReserveFactor = 200; // 20%\n        maxReserveFactor = 5000; // 500%\n        minBidIncrease = 50; // 5%\n        maxCuratorFee = 100;\n        minVotePercentage = 250; // 25%\n    }\n\n    function setMaxAuctionLength(uint256 _length) external onlyOwner {\n        require(_length <= maxMaxAuctionLength, \"max auction length too high\");\n        require(_length > minAuctionLength, \"max auction length too low\");\n\n        emit UpdateMaxAuctionLength(maxAuctionLength, _length);\n\n        maxAuctionLength = _length;\n    }\n\n    function setMinAuctionLength(uint256 _length) external onlyOwner {\n        require(_length >= minMinAuctionLength, \"min auction length too low\");\n        require(_length < maxAuctionLength, \"min auction length too high\");\n\n        emit UpdateMinAuctionLength(minAuctionLength, _length);\n\n        minAuctionLength = _length;\n    }\n\n    function setGovernanceFee(uint256 _fee) external onlyOwner {\n        require(_fee <= maxGovFee, \"fee too high\");\n\n        emit UpdateGovernanceFee(governanceFee, _fee);\n\n        governanceFee = _fee;\n    }\n\n    function setMaxCuratorFee(uint256 _fee) external onlyOwner {\n        emit UpdateCuratorFee(governanceFee, _fee);\n\n        maxCuratorFee = _fee;\n    }\n\n    function setMinBidIncrease(uint256 _min) external onlyOwner {\n        require(_min <= maxMinBidIncrease, \"min bid increase too high\");\n        require(_min >= minMinBidIncrease, \"min bid increase too low\");\n\n        emit UpdateMinBidIncrease(minBidIncrease, _min);\n\n        minBidIncrease = _min;\n    }\n\n    function setMinVotePercentage(uint256 _min) external onlyOwner {\n        // 1000 is 100%\n        require(_min <= 1000, \"min vote percentage too high\");\n\n        emit UpdateMinVotePercentage(minVotePercentage, _min);\n\n        minVotePercentage = _min;\n    }\n\n    function setMaxReserveFactor(uint256 _factor) external onlyOwner {\n        require(_factor > minReserveFactor, \"max reserve factor too low\");\n\n        emit UpdateMaxReserveFactor(maxReserveFactor, _factor);\n\n        maxReserveFactor = _factor;\n    }\n\n    function setMinReserveFactor(uint256 _factor) external onlyOwner {\n        require(_factor < maxReserveFactor, \"min reserve factor too high\");\n\n        emit UpdateMinReserveFactor(minReserveFactor, _factor);\n\n        minReserveFactor = _factor;\n    }\n\n    function setFeeReceiver(address payable _receiver) external onlyOwner {\n        require(_receiver != address(0), \"fees cannot go to 0 address\");\n\n        emit UpdateFeeReceiver(feeReceiver, _receiver);\n\n        feeReceiver = _receiver;\n    }\n}\n",
  "sourcePath": "/home/user/Desktop/NFTY/contracts/fractional/Settings.sol",
  "compiler": {
    "name": "solc",
    "version": "0.8.9+commit.e5eed63a.Emscripten.clang"
  },
  "schemaVersion": "3.4.3",
  "updatedAt": "2021-11-27T10:52:52.745Z",
  "devdoc": {
    "kind": "dev",
    "methods": {
      "owner()": {
        "details": "Returns the address of the current owner."
      },
      "renounceOwnership()": {
        "details": "Leaves the contract without owner. It will not be possible to call `onlyOwner` functions anymore. Can only be called by the current owner. NOTE: Renouncing ownership will leave the contract without an owner, thereby removing any functionality that is only available to the owner."
      },
      "transferOwnership(address)": {
        "details": "Transfers ownership of the contract to a new account (`newOwner`). Can only be called by the current owner."
      }
    },
    "version": 1
  },
  "userdoc": {
    "kind": "user",
    "methods": {
      "feeReceiver()": {
        "notice": "the address who receives auction fees"
      },
      "governanceFee()": {
        "notice": "governance fee max"
      },
      "maxAuctionLength()": {
        "notice": "the maximum auction length"
      },
      "maxCuratorFee()": {
        "notice": "max curator fee"
      },
      "maxGovFee()": {
        "notice": "10% fee is max"
      },
      "maxMaxAuctionLength()": {
        "notice": "the longest an auction can ever be"
      },
      "maxMinBidIncrease()": {
        "notice": "10% bid increase is max"
      },
      "maxReserveFactor()": {
        "notice": "the max % increase over the initial"
      },
      "minAuctionLength()": {
        "notice": "the minimum auction length"
      },
      "minBidIncrease()": {
        "notice": "the % bid increase required for a new bid"
      },
      "minMinAuctionLength()": {
        "notice": "the shortest an auction can ever be"
      },
      "minMinBidIncrease()": {
        "notice": "1% bid increase is min"
      },
      "minReserveFactor()": {
        "notice": "the max % decrease from the initial"
      },
      "minVotePercentage()": {
        "notice": "the % of tokens required to be voting for an auction to start"
      }
    },
    "version": 1
  }
}