{
  "contractName": "TokenVault",
  "abi": [
    {
      "inputs": [
        {
          "internalType": "address",
          "name": "_settings",
          "type": "address"
        }
      ],
      "stateMutability": "nonpayable",
      "type": "constructor"
    },
    {
      "anonymous": false,
      "inputs": [
        {
          "indexed": true,
          "internalType": "address",
          "name": "owner",
          "type": "address"
        },
        {
          "indexed": true,
          "internalType": "address",
          "name": "spender",
          "type": "address"
        },
        {
          "indexed": false,
          "internalType": "uint256",
          "name": "value",
          "type": "uint256"
        }
      ],
      "name": "Approval",
      "type": "event"
    },
    {
      "anonymous": false,
      "inputs": [
        {
          "indexed": true,
          "internalType": "address",
          "name": "buyer",
          "type": "address"
        },
        {
          "indexed": false,
          "internalType": "uint256",
          "name": "price",
          "type": "uint256"
        }
      ],
      "name": "Bid",
      "type": "event"
    },
    {
      "anonymous": false,
      "inputs": [
        {
          "indexed": true,
          "internalType": "address",
          "name": "owner",
          "type": "address"
        },
        {
          "indexed": false,
          "internalType": "uint256",
          "name": "shares",
          "type": "uint256"
        }
      ],
      "name": "Cash",
      "type": "event"
    },
    {
      "anonymous": false,
      "inputs": [
        {
          "indexed": false,
          "internalType": "uint256",
          "name": "fee",
          "type": "uint256"
        }
      ],
      "name": "FeeClaimed",
      "type": "event"
    },
    {
      "anonymous": false,
      "inputs": [
        {
          "indexed": true,
          "internalType": "address",
          "name": "user",
          "type": "address"
        },
        {
          "indexed": false,
          "internalType": "uint256",
          "name": "price",
          "type": "uint256"
        }
      ],
      "name": "PriceUpdate",
      "type": "event"
    },
    {
      "anonymous": false,
      "inputs": [
        {
          "indexed": true,
          "internalType": "address",
          "name": "redeemer",
          "type": "address"
        }
      ],
      "name": "Redeem",
      "type": "event"
    },
    {
      "anonymous": false,
      "inputs": [
        {
          "indexed": true,
          "internalType": "address",
          "name": "buyer",
          "type": "address"
        },
        {
          "indexed": false,
          "internalType": "uint256",
          "name": "price",
          "type": "uint256"
        }
      ],
      "name": "Start",
      "type": "event"
    },
    {
      "anonymous": false,
      "inputs": [
        {
          "indexed": true,
          "internalType": "address",
          "name": "from",
          "type": "address"
        },
        {
          "indexed": true,
          "internalType": "address",
          "name": "to",
          "type": "address"
        },
        {
          "indexed": false,
          "internalType": "uint256",
          "name": "value",
          "type": "uint256"
        }
      ],
      "name": "Transfer",
      "type": "event"
    },
    {
      "anonymous": false,
      "inputs": [
        {
          "indexed": false,
          "internalType": "uint256",
          "name": "length",
          "type": "uint256"
        }
      ],
      "name": "UpdateAuctionLength",
      "type": "event"
    },
    {
      "anonymous": false,
      "inputs": [
        {
          "indexed": false,
          "internalType": "uint256",
          "name": "fee",
          "type": "uint256"
        }
      ],
      "name": "UpdateCuratorFee",
      "type": "event"
    },
    {
      "anonymous": false,
      "inputs": [
        {
          "indexed": true,
          "internalType": "address",
          "name": "buyer",
          "type": "address"
        },
        {
          "indexed": false,
          "internalType": "uint256",
          "name": "price",
          "type": "uint256"
        }
      ],
      "name": "Won",
      "type": "event"
    },
    {
      "inputs": [
        {
          "internalType": "address",
          "name": "owner",
          "type": "address"
        },
        {
          "internalType": "address",
          "name": "spender",
          "type": "address"
        }
      ],
      "name": "allowance",
      "outputs": [
        {
          "internalType": "uint256",
          "name": "",
          "type": "uint256"
        }
      ],
      "stateMutability": "view",
      "type": "function"
    },
    {
      "inputs": [
        {
          "internalType": "address",
          "name": "spender",
          "type": "address"
        },
        {
          "internalType": "uint256",
          "name": "amount",
          "type": "uint256"
        }
      ],
      "name": "approve",
      "outputs": [
        {
          "internalType": "bool",
          "name": "",
          "type": "bool"
        }
      ],
      "stateMutability": "nonpayable",
      "type": "function"
    },
    {
      "inputs": [],
      "name": "auctionEnd",
      "outputs": [
        {
          "internalType": "uint256",
          "name": "",
          "type": "uint256"
        }
      ],
      "stateMutability": "view",
      "type": "function"
    },
    {
      "inputs": [],
      "name": "auctionLength",
      "outputs": [
        {
          "internalType": "uint256",
          "name": "",
          "type": "uint256"
        }
      ],
      "stateMutability": "view",
      "type": "function"
    },
    {
      "inputs": [],
      "name": "auctionState",
      "outputs": [
        {
          "internalType": "enum TokenVault.State",
          "name": "",
          "type": "uint8"
        }
      ],
      "stateMutability": "view",
      "type": "function"
    },
    {
      "inputs": [
        {
          "internalType": "address",
          "name": "account",
          "type": "address"
        }
      ],
      "name": "balanceOf",
      "outputs": [
        {
          "internalType": "uint256",
          "name": "",
          "type": "uint256"
        }
      ],
      "stateMutability": "view",
      "type": "function"
    },
    {
      "inputs": [],
      "name": "curator",
      "outputs": [
        {
          "internalType": "address",
          "name": "",
          "type": "address"
        }
      ],
      "stateMutability": "view",
      "type": "function"
    },
    {
      "inputs": [],
      "name": "decimals",
      "outputs": [
        {
          "internalType": "uint8",
          "name": "",
          "type": "uint8"
        }
      ],
      "stateMutability": "view",
      "type": "function"
    },
    {
      "inputs": [
        {
          "internalType": "address",
          "name": "spender",
          "type": "address"
        },
        {
          "internalType": "uint256",
          "name": "subtractedValue",
          "type": "uint256"
        }
      ],
      "name": "decreaseAllowance",
      "outputs": [
        {
          "internalType": "bool",
          "name": "",
          "type": "bool"
        }
      ],
      "stateMutability": "nonpayable",
      "type": "function"
    },
    {
      "inputs": [],
      "name": "fee",
      "outputs": [
        {
          "internalType": "uint256",
          "name": "",
          "type": "uint256"
        }
      ],
      "stateMutability": "view",
      "type": "function"
    },
    {
      "inputs": [],
      "name": "id",
      "outputs": [
        {
          "internalType": "uint256",
          "name": "",
          "type": "uint256"
        }
      ],
      "stateMutability": "view",
      "type": "function"
    },
    {
      "inputs": [
        {
          "internalType": "address",
          "name": "spender",
          "type": "address"
        },
        {
          "internalType": "uint256",
          "name": "addedValue",
          "type": "uint256"
        }
      ],
      "name": "increaseAllowance",
      "outputs": [
        {
          "internalType": "bool",
          "name": "",
          "type": "bool"
        }
      ],
      "stateMutability": "nonpayable",
      "type": "function"
    },
    {
      "inputs": [],
      "name": "lastClaimed",
      "outputs": [
        {
          "internalType": "uint256",
          "name": "",
          "type": "uint256"
        }
      ],
      "stateMutability": "view",
      "type": "function"
    },
    {
      "inputs": [],
      "name": "livePrice",
      "outputs": [
        {
          "internalType": "uint256",
          "name": "",
          "type": "uint256"
        }
      ],
      "stateMutability": "view",
      "type": "function"
    },
    {
      "inputs": [],
      "name": "name",
      "outputs": [
        {
          "internalType": "string",
          "name": "",
          "type": "string"
        }
      ],
      "stateMutability": "view",
      "type": "function"
    },
    {
      "inputs": [
        {
          "internalType": "address",
          "name": "",
          "type": "address"
        },
        {
          "internalType": "address",
          "name": "",
          "type": "address"
        },
        {
          "internalType": "uint256",
          "name": "",
          "type": "uint256"
        },
        {
          "internalType": "bytes",
          "name": "",
          "type": "bytes"
        }
      ],
      "name": "onERC721Received",
      "outputs": [
        {
          "internalType": "bytes4",
          "name": "",
          "type": "bytes4"
        }
      ],
      "stateMutability": "nonpayable",
      "type": "function"
    },
    {
      "inputs": [],
      "name": "reserveTotal",
      "outputs": [
        {
          "internalType": "uint256",
          "name": "",
          "type": "uint256"
        }
      ],
      "stateMutability": "view",
      "type": "function"
    },
    {
      "inputs": [],
      "name": "settings",
      "outputs": [
        {
          "internalType": "address",
          "name": "",
          "type": "address"
        }
      ],
      "stateMutability": "view",
      "type": "function"
    },
    {
      "inputs": [],
      "name": "symbol",
      "outputs": [
        {
          "internalType": "string",
          "name": "",
          "type": "string"
        }
      ],
      "stateMutability": "view",
      "type": "function"
    },
    {
      "inputs": [],
      "name": "token",
      "outputs": [
        {
          "internalType": "address",
          "name": "",
          "type": "address"
        }
      ],
      "stateMutability": "view",
      "type": "function"
    },
    {
      "inputs": [],
      "name": "totalSupply",
      "outputs": [
        {
          "internalType": "uint256",
          "name": "",
          "type": "uint256"
        }
      ],
      "stateMutability": "view",
      "type": "function"
    },
    {
      "inputs": [
        {
          "internalType": "address",
          "name": "recipient",
          "type": "address"
        },
        {
          "internalType": "uint256",
          "name": "amount",
          "type": "uint256"
        }
      ],
      "name": "transfer",
      "outputs": [
        {
          "internalType": "bool",
          "name": "",
          "type": "bool"
        }
      ],
      "stateMutability": "nonpayable",
      "type": "function"
    },
    {
      "inputs": [
        {
          "internalType": "address",
          "name": "sender",
          "type": "address"
        },
        {
          "internalType": "address",
          "name": "recipient",
          "type": "address"
        },
        {
          "internalType": "uint256",
          "name": "amount",
          "type": "uint256"
        }
      ],
      "name": "transferFrom",
      "outputs": [
        {
          "internalType": "bool",
          "name": "",
          "type": "bool"
        }
      ],
      "stateMutability": "nonpayable",
      "type": "function"
    },
    {
      "inputs": [
        {
          "internalType": "address",
          "name": "",
          "type": "address"
        }
      ],
      "name": "userPrices",
      "outputs": [
        {
          "internalType": "uint256",
          "name": "",
          "type": "uint256"
        }
      ],
      "stateMutability": "view",
      "type": "function"
    },
    {
      "inputs": [],
      "name": "vaultClosed",
      "outputs": [
        {
          "internalType": "bool",
          "name": "",
          "type": "bool"
        }
      ],
      "stateMutability": "view",
      "type": "function"
    },
    {
      "inputs": [],
      "name": "votingTokens",
      "outputs": [
        {
          "internalType": "uint256",
          "name": "",
          "type": "uint256"
        }
      ],
      "stateMutability": "view",
      "type": "function"
    },
    {
      "inputs": [],
      "name": "weth",
      "outputs": [
        {
          "internalType": "address",
          "name": "",
          "type": "address"
        }
      ],
      "stateMutability": "view",
      "type": "function"
    },
    {
      "inputs": [],
      "name": "winning",
      "outputs": [
        {
          "internalType": "address payable",
          "name": "",
          "type": "address"
        }
      ],
      "stateMutability": "view",
      "type": "function"
    },
    {
      "inputs": [
        {
          "internalType": "address",
          "name": "_curator",
          "type": "address"
        },
        {
          "internalType": "address",
          "name": "_token",
          "type": "address"
        },
        {
          "internalType": "uint256",
          "name": "_id",
          "type": "uint256"
        },
        {
          "internalType": "uint256",
          "name": "_supply",
          "type": "uint256"
        },
        {
          "internalType": "uint256",
          "name": "_listPrice",
          "type": "uint256"
        },
        {
          "internalType": "uint256",
          "name": "_fee",
          "type": "uint256"
        },
        {
          "internalType": "string",
          "name": "_name",
          "type": "string"
        },
        {
          "internalType": "string",
          "name": "_symbol",
          "type": "string"
        }
      ],
      "name": "initialize",
      "outputs": [],
      "stateMutability": "nonpayable",
      "type": "function"
    },
    {
      "inputs": [],
      "name": "reservePrice",
      "outputs": [
        {
          "internalType": "uint256",
          "name": "",
          "type": "uint256"
        }
      ],
      "stateMutability": "view",
      "type": "function"
    },
    {
      "inputs": [
        {
          "internalType": "address",
          "name": "_curator",
          "type": "address"
        }
      ],
      "name": "kickCurator",
      "outputs": [],
      "stateMutability": "nonpayable",
      "type": "function"
    },
    {
      "inputs": [
        {
          "internalType": "address",
          "name": "_user",
          "type": "address"
        }
      ],
      "name": "removeReserve",
      "outputs": [],
      "stateMutability": "nonpayable",
      "type": "function"
    },
    {
      "inputs": [
        {
          "internalType": "address",
          "name": "_curator",
          "type": "address"
        }
      ],
      "name": "updateCurator",
      "outputs": [],
      "stateMutability": "nonpayable",
      "type": "function"
    },
    {
      "inputs": [
        {
          "internalType": "uint256",
          "name": "_length",
          "type": "uint256"
        }
      ],
      "name": "updateAuctionLength",
      "outputs": [],
      "stateMutability": "nonpayable",
      "type": "function"
    },
    {
      "inputs": [
        {
          "internalType": "uint256",
          "name": "_fee",
          "type": "uint256"
        }
      ],
      "name": "updateFee",
      "outputs": [],
      "stateMutability": "nonpayable",
      "type": "function"
    },
    {
      "inputs": [],
      "name": "claimFees",
      "outputs": [],
      "stateMutability": "nonpayable",
      "type": "function"
    },
    {
      "inputs": [
        {
          "internalType": "uint256",
          "name": "_new",
          "type": "uint256"
        }
      ],
      "name": "updateUserPrice",
      "outputs": [],
      "stateMutability": "nonpayable",
      "type": "function"
    },
    {
      "inputs": [],
      "name": "start",
      "outputs": [],
      "stateMutability": "payable",
      "type": "function"
    },
    {
      "inputs": [],
      "name": "bid",
      "outputs": [],
      "stateMutability": "payable",
      "type": "function"
    },
    {
      "inputs": [],
      "name": "end",
      "outputs": [],
      "stateMutability": "nonpayable",
      "type": "function"
    },
    {
      "inputs": [],
      "name": "redeem",
      "outputs": [],
      "stateMutability": "nonpayable",
      "type": "function"
    },
    {
      "inputs": [],
      "name": "cash",
      "outputs": [],
      "stateMutability": "nonpayable",
      "type": "function"
    }
  ],
  "bytecode": "0x60a06040523480156200001157600080fd5b5060405162005e0638038062005e068339818101604052810190620000379190620000dc565b8073ffffffffffffffffffffffffffffffffffffffff1660808173ffffffffffffffffffffffffffffffffffffffff1681525050506200010e565b600080fd5b600073ffffffffffffffffffffffffffffffffffffffff82169050919050565b6000620000a48262000077565b9050919050565b620000b68162000097565b8114620000c257600080fd5b50565b600081519050620000d681620000ab565b92915050565b600060208284031215620000f557620000f462000072565b5b60006200010584828501620000c5565b91505092915050565b608051615c816200018560003960008181610b8501528181610ec9015281816110a801528181611152015281816116ec015281816117eb015281816119af01528181611aae01528181611ce3015281816120c901528181612743015281816129ec015281816135f8015261369c0152615c816000f3fe6080604052600436106102515760003560e01c806380436fe011610139578063be040fb0116100b6578063dd62ed3e1161007a578063dd62ed3e14610866578063ddca3f43146108a3578063e06174e4146108ce578063e66f53b7146108f9578063efbe1c1c14610924578063fc0c546a1461093b57610251565b8063be040fb0146107c6578063be9a6555146107dd578063c91de649146107e7578063d294f09314610824578063db2e1eed1461083b57610251565b80639a4e6d34116100fd5780639a4e6d34146106cb578063a457c2d7146106f6578063a9059cbb14610733578063adc1b95614610770578063af640d0f1461079b57610251565b806380436fe01461060c578063853a1b90146106355780639012c4a81461066057806395d89b4114610689578063961be391146106b457610251565b8063313ce567116101d2578063626fb2f011610196578063626fb2f0146104fc5780636a775714146105255780636da84e6c1461054e57806370a08231146105795780637b5581ed146105b65780637fb45099146105e157610251565b8063313ce56714610413578063325c25a21461043e57806339509351146104695780633fc8cef3146104a65780635c9920fc146104d157610251565b80631998aeef116102195780631998aeef1461034f57806323b872dd146103595780632a24f46c146103965780632a44f120146103c15780632bf33bd9146103ea57610251565b806306fdde0314610256578063095ea7b3146102815780630c6a62dd146102be578063150b7a02146102e757806318160ddd14610324575b600080fd5b34801561026257600080fd5b5061026b610966565b60405161027891906140b2565b60405180910390f35b34801561028d57600080fd5b506102a860048036038101906102a3919061417c565b6109f8565b6040516102b591906141d7565b60405180910390f35b3480156102ca57600080fd5b506102e560048036038101906102e091906141f2565b610a16565b005b3480156102f357600080fd5b5061030e60048036038101906103099190614354565b610aea565b60405161031b9190614412565b60405180910390f35b34801561033057600080fd5b50610339610afe565b604051610346919061443c565b60405180910390f35b610357610b08565b005b34801561036557600080fd5b50610380600480360381019061037b9190614457565b610dc9565b60405161038d91906141d7565b60405180910390f35b3480156103a257600080fd5b506103ab610ec1565b6040516103b8919061443c565b60405180910390f35b3480156103cd57600080fd5b506103e860048036038101906103e391906141f2565b610ec7565b005b3480156103f657600080fd5b50610411600480360381019061040c91906144aa565b611016565b005b34801561041f57600080fd5b50610428611274565b60405161043591906144f3565b60405180910390f35b34801561044a57600080fd5b5061045361127d565b604051610460919061443c565b60405180910390f35b34801561047557600080fd5b50610490600480360381019061048b919061417c565b611283565b60405161049d91906141d7565b60405180910390f35b3480156104b257600080fd5b506104bb61132f565b6040516104c8919061451d565b60405180910390f35b3480156104dd57600080fd5b506104e6611347565b6040516104f391906141d7565b60405180910390f35b34801561050857600080fd5b50610523600480360381019061051e91906145d9565b61135a565b005b34801561053157600080fd5b5061054c600480360381019061054791906144aa565b611567565b005b34801561055a57600080fd5b50610563611c79565b604051610570919061443c565b60405180910390f35b34801561058557600080fd5b506105a0600480360381019061059b91906141f2565b611c7f565b6040516105ad919061443c565b60405180910390f35b3480156105c257600080fd5b506105cb611cc8565b6040516105d8919061443c565b60405180910390f35b3480156105ed57600080fd5b506105f6611cce565b604051610603919061473e565b60405180910390f35b34801561061857600080fd5b50610633600480360381019061062e91906141f2565b611ce1565b005b34801561064157600080fd5b5061064a611fcd565b604051610657919061477a565b60405180910390f35b34801561066c57600080fd5b50610687600480360381019061068291906144aa565b611ff3565b005b34801561069557600080fd5b5061069e6121f4565b6040516106ab91906140b2565b60405180910390f35b3480156106c057600080fd5b506106c9612286565b005b3480156106d757600080fd5b506106e06123d4565b6040516106ed919061443c565b60405180910390f35b34801561070257600080fd5b5061071d6004803603810190610718919061417c565b6123da565b60405161072a91906141d7565b60405180910390f35b34801561073f57600080fd5b5061075a6004803603810190610755919061417c565b6124c5565b60405161076791906141d7565b60405180910390f35b34801561077c57600080fd5b506107856124e3565b604051610792919061443c565b60405180910390f35b3480156107a757600080fd5b506107b06124e9565b6040516107bd919061443c565b60405180910390f35b3480156107d257600080fd5b506107db6124ef565b005b6107e5612679565b005b3480156107f357600080fd5b5061080e600480360381019061080991906141f2565b612913565b60405161081b919061443c565b60405180910390f35b34801561083057600080fd5b5061083961292b565b005b34801561084757600080fd5b50610850612935565b60405161085d919061443c565b60405180910390f35b34801561087257600080fd5b5061088d60048036038101906108889190614795565b61295d565b60405161089a919061443c565b60405180910390f35b3480156108af57600080fd5b506108b86129e4565b6040516108c5919061443c565b60405180910390f35b3480156108da57600080fd5b506108e36129ea565b6040516108f0919061451d565b60405180910390f35b34801561090557600080fd5b5061090e612a0e565b60405161091b919061451d565b60405180910390f35b34801561093057600080fd5b50610939612a34565b005b34801561094757600080fd5b50610950612c4b565b60405161095d919061451d565b60405180910390f35b60606036805461097590614804565b80601f01602080910402602001604051908101604052809291908181526020018280546109a190614804565b80156109ee5780601f106109c3576101008083540402835291602001916109ee565b820191906000526020600020905b8154815290600101906020018083116109d157829003601f168201915b5050505050905090565b6000610a0c610a05612c71565b8484612c79565b6001905092915050565b609e60009054906101000a900473ffffffffffffffffffffffffffffffffffffffff1673ffffffffffffffffffffffffffffffffffffffff163373ffffffffffffffffffffffffffffffffffffffff1614610aa6576040517f08c379a0000000000000000000000000000000000000000000000000000000008152600401610a9d90614882565b60405180910390fd5b80609e60006101000a81548173ffffffffffffffffffffffffffffffffffffffff021916908373ffffffffffffffffffffffffffffffffffffffff16021790555050565b600063150b7a0260e01b9050949350505050565b6000603554905090565b60016003811115610b1c57610b1b6146c7565b5b609d60149054906101000a900460ff166003811115610b3e57610b3d6146c7565b5b14610b7e576040517f08c379a0000000000000000000000000000000000000000000000000000000008152600401610b75906148ee565b60405180910390fd5b60006103e87f000000000000000000000000000000000000000000000000000000000000000073ffffffffffffffffffffffffffffffffffffffff16637c513c0f6040518163ffffffff1660e01b8152600401602060405180830381600087803b158015610beb57600080fd5b505af1158015610bff573d6000803e3d6000fd5b505050506040513d601f19601f82011682018060405250810190610c239190614923565b610c2d919061497f565b905080609c54610c3d91906149d5565b6103e834610c4b91906149d5565b1015610c8c576040517f08c379a0000000000000000000000000000000000000000000000000000000008152600401610c8390614a7b565b60405180910390fd5b6099544210610cd0576040517f08c379a0000000000000000000000000000000000000000000000000000000008152600401610cc790614ae7565b60405180910390fd5b61038442609954610ce19190614b07565b11610d025761038460996000828254610cfa919061497f565b925050819055505b610d30609d60009054906101000a900473ffffffffffffffffffffffffffffffffffffffff16609c54612e44565b34609c8190555033609d60006101000a81548173ffffffffffffffffffffffffffffffffffffffff021916908373ffffffffffffffffffffffffffffffffffffffff1602179055503373ffffffffffffffffffffffffffffffffffffffff167fe684a55f31b79eca403df938249029212a5925ec6be8012e099b45bc1019e5d234604051610dbe919061443c565b60405180910390a250565b6000610dd6848484612f6e565b6000603460008673ffffffffffffffffffffffffffffffffffffffff1673ffffffffffffffffffffffffffffffffffffffff1681526020019081526020016000206000610e21612c71565b73ffffffffffffffffffffffffffffffffffffffff1673ffffffffffffffffffffffffffffffffffffffff16815260200190815260200160002054905082811015610ea1576040517f08c379a0000000000000000000000000000000000000000000000000000000008152600401610e9890614bad565b60405180910390fd5b610eb585610ead612c71565b858403612c79565b60019150509392505050565b60995481565b7f000000000000000000000000000000000000000000000000000000000000000073ffffffffffffffffffffffffffffffffffffffff16638da5cb5b6040518163ffffffff1660e01b815260040160206040518083038186803b158015610f2d57600080fd5b505afa158015610f41573d6000803e3d6000fd5b505050506040513d601f19601f82011682018060405250810190610f659190614be2565b73ffffffffffffffffffffffffffffffffffffffff163373ffffffffffffffffffffffffffffffffffffffff1614610fd2576040517f08c379a0000000000000000000000000000000000000000000000000000000008152600401610fc990614c5b565b60405180910390fd5b80609e60006101000a81548173ffffffffffffffffffffffffffffffffffffffff021916908373ffffffffffffffffffffffffffffffffffffffff16021790555050565b609e60009054906101000a900473ffffffffffffffffffffffffffffffffffffffff1673ffffffffffffffffffffffffffffffffffffffff163373ffffffffffffffffffffffffffffffffffffffff16146110a6576040517f08c379a000000000000000000000000000000000000000000000000000000000815260040161109d90614882565b60405180910390fd5b7f000000000000000000000000000000000000000000000000000000000000000073ffffffffffffffffffffffffffffffffffffffff1663a0b335e36040518163ffffffff1660e01b8152600401602060405180830381600087803b15801561110e57600080fd5b505af1158015611122573d6000803e3d6000fd5b505050506040513d601f19601f820116820180604052508101906111469190614923565b81101580156111f457507f000000000000000000000000000000000000000000000000000000000000000073ffffffffffffffffffffffffffffffffffffffff16630e519ef96040518163ffffffff1660e01b8152600401602060405180830381600087803b1580156111b857600080fd5b505af11580156111cc573d6000803e3d6000fd5b505050506040513d601f19601f820116820180604052508101906111f09190614923565b8111155b611233576040517f08c379a000000000000000000000000000000000000000000000000000000000815260040161122a90614cc7565b60405180910390fd5b80609a819055507f4ab86ae701798277aa378943b9dfd155d3b19703cd57be298908fadd32f7bf4681604051611269919061443c565b60405180910390a150565b60006012905090565b609a5481565b6000611325611290612c71565b84846034600061129e612c71565b73ffffffffffffffffffffffffffffffffffffffff1673ffffffffffffffffffffffffffffffffffffffff16815260200190815260200160002060008873ffffffffffffffffffffffffffffffffffffffff1673ffffffffffffffffffffffffffffffffffffffff16815260200190815260200160002054611320919061497f565b612c79565b6001905092915050565b73c02aaa39b223fe8d0a0e5c4f27ead9083c756cc281565b60a160009054906101000a900460ff1681565b600060019054906101000a900460ff1680611380575060008054906101000a900460ff16155b6113bf576040517f08c379a00000000000000000000000000000000000000000000000000000000081526004016113b690614d59565b60405180910390fd5b60008060019054906101000a900460ff16159050801561140f576001600060016101000a81548160ff02191690831515021790555060016000806101000a81548160ff0219169083151502179055505b61141983836131f2565b6114216132df565b87609760006101000a81548173ffffffffffffffffffffffffffffffffffffffff021916908373ffffffffffffffffffffffffffffffffffffffff160217905550866098819055506203f480609a8190555088609e60006101000a81548173ffffffffffffffffffffffffffffffffffffffff021916908373ffffffffffffffffffffffffffffffffffffffff16021790555083609f819055504260a0819055506000609d60146101000a81548160ff021916908360038111156114e8576114e76146c7565b5b02179055508460a360008b73ffffffffffffffffffffffffffffffffffffffff1673ffffffffffffffffffffffffffffffffffffffff1681526020019081526020016000208190555061153b89876133c0565b801561155c5760008060016101000a81548160ff0219169083151502179055505b505050505050505050565b6000600381111561157b5761157a6146c7565b5b609d60149054906101000a900460ff16600381111561159d5761159c6146c7565b5b146115dd576040517f08c379a00000000000000000000000000000000000000000000000000000000081526004016115d490614deb565b60405180910390fd5b600060a360003373ffffffffffffffffffffffffffffffffffffffff1673ffffffffffffffffffffffffffffffffffffffff16815260200190815260200160002054905080821415611664576040517f08c379a000000000000000000000000000000000000000000000000000000000815260040161165b90614e57565b60405180910390fd5b600061166f33611c7f565b9050600060a254141561169a578060a281905550828161168f91906149d5565b609b81905550611be2565b60a254811480156116ac575060008214155b156116c85782816116bd91906149d5565b609b81905550611be1565b600082141561192857600060a254609b546116e39190614ea6565b905060006103e87f000000000000000000000000000000000000000000000000000000000000000073ffffffffffffffffffffffffffffffffffffffff166309990a966040518163ffffffff1660e01b8152600401602060405180830381600087803b15801561175257600080fd5b505af1158015611766573d6000803e3d6000fd5b505050506040513d601f19601f8201168201806040525081019061178a9190614923565b8361179591906149d5565b61179f9190614ea6565b9050808510156117e4576040517f08c379a00000000000000000000000000000000000000000000000000000000081526004016117db90614f23565b60405180910390fd5b60006103e87f000000000000000000000000000000000000000000000000000000000000000073ffffffffffffffffffffffffffffffffffffffff16635410bfc96040518163ffffffff1660e01b8152600401602060405180830381600087803b15801561185157600080fd5b505af1158015611865573d6000803e3d6000fd5b505050506040513d601f19601f820116820180604052508101906118899190614923565b8461189491906149d5565b61189e9190614ea6565b9050808611156118e3576040517f08c379a00000000000000000000000000000000000000000000000000000000081526004016118da90614f8f565b60405180910390fd5b8360a260008282546118f5919061497f565b92505081905550858461190891906149d5565b609b6000828254611919919061497f565b92505081905550505050611be0565b6000831415611973578060a260008282546119439190614b07565b92505081905550818161195691906149d5565b609b60008282546119679190614b07565b92505081905550611bdf565b60008160a2546119839190614b07565b828461198f91906149d5565b609b5461199c9190614b07565b6119a69190614ea6565b905060006103e87f000000000000000000000000000000000000000000000000000000000000000073ffffffffffffffffffffffffffffffffffffffff166309990a966040518163ffffffff1660e01b8152600401602060405180830381600087803b158015611a1557600080fd5b505af1158015611a29573d6000803e3d6000fd5b505050506040513d601f19601f82011682018060405250810190611a4d9190614923565b83611a5891906149d5565b611a629190614ea6565b905080851015611aa7576040517f08c379a0000000000000000000000000000000000000000000000000000000008152600401611a9e90614f23565b60405180910390fd5b60006103e87f000000000000000000000000000000000000000000000000000000000000000073ffffffffffffffffffffffffffffffffffffffff16635410bfc96040518163ffffffff1660e01b8152600401602060405180830381600087803b158015611b1457600080fd5b505af1158015611b28573d6000803e3d6000fd5b505050506040513d601f19601f82011682018060405250810190611b4c9190614923565b84611b5791906149d5565b611b619190614ea6565b905080861115611ba6576040517f08c379a0000000000000000000000000000000000000000000000000000000008152600401611b9d90614f8f565b60405180910390fd5b8484611bb291906149d5565b8685611bbe91906149d5565b609b54611bcb919061497f565b611bd59190614b07565b609b819055505050505b5b5b5b8260a360003373ffffffffffffffffffffffffffffffffffffffff1673ffffffffffffffffffffffffffffffffffffffff168152602001908152602001600020819055503373ffffffffffffffffffffffffffffffffffffffff167f64e6e7bd72b853c4e62fd6ceaca05a104700c70a4cb567c75c7f2242ba7f037c84604051611c6c919061443c565b60405180910390a2505050565b609c5481565b6000603360008373ffffffffffffffffffffffffffffffffffffffff1673ffffffffffffffffffffffffffffffffffffffff168152602001908152602001600020549050919050565b609b5481565b609d60149054906101000a900460ff1681565b7f000000000000000000000000000000000000000000000000000000000000000073ffffffffffffffffffffffffffffffffffffffff16638da5cb5b6040518163ffffffff1660e01b815260040160206040518083038186803b158015611d4757600080fd5b505afa158015611d5b573d6000803e3d6000fd5b505050506040513d601f19601f82011682018060405250810190611d7f9190614be2565b73ffffffffffffffffffffffffffffffffffffffff163373ffffffffffffffffffffffffffffffffffffffff1614611dec576040517f08c379a0000000000000000000000000000000000000000000000000000000008152600401611de390614ffb565b60405180910390fd5b60006003811115611e0057611dff6146c7565b5b609d60149054906101000a900460ff166003811115611e2257611e216146c7565b5b14611e62576040517f08c379a0000000000000000000000000000000000000000000000000000000008152600401611e5990614deb565b60405180910390fd5b600060a360008373ffffffffffffffffffffffffffffffffffffffff1673ffffffffffffffffffffffffffffffffffffffff1681526020019081526020016000205490508060001415611eea576040517f08c379a0000000000000000000000000000000000000000000000000000000008152600401611ee190614e57565b60405180910390fd5b6000611ef583611c7f565b90508060a26000828254611f099190614b07565b925050819055508181611f1c91906149d5565b609b6000828254611f2d9190614b07565b92505081905550600060a360008573ffffffffffffffffffffffffffffffffffffffff1673ffffffffffffffffffffffffffffffffffffffff168152602001908152602001600020819055508273ffffffffffffffffffffffffffffffffffffffff167f64e6e7bd72b853c4e62fd6ceaca05a104700c70a4cb567c75c7f2242ba7f037c6000604051611fc09190615060565b60405180910390a2505050565b609d60009054906101000a900473ffffffffffffffffffffffffffffffffffffffff1681565b609e60009054906101000a900473ffffffffffffffffffffffffffffffffffffffff1673ffffffffffffffffffffffffffffffffffffffff163373ffffffffffffffffffffffffffffffffffffffff1614612083576040517f08c379a000000000000000000000000000000000000000000000000000000000815260040161207a90614882565b60405180910390fd5b609f5481106120c7576040517f08c379a00000000000000000000000000000000000000000000000000000000081526004016120be906150c7565b60405180910390fd5b7f000000000000000000000000000000000000000000000000000000000000000073ffffffffffffffffffffffffffffffffffffffff16638a364bc16040518163ffffffff1660e01b8152600401602060405180830381600087803b15801561212f57600080fd5b505af1158015612143573d6000803e3d6000fd5b505050506040513d601f19601f820116820180604052508101906121679190614923565b8111156121a9576040517f08c379a00000000000000000000000000000000000000000000000000000000081526004016121a090615159565b60405180910390fd5b6121b1613521565b80609f819055507f2d1dae59a9e9ec0bc2ab19d45b7d10c8c55304fa08b40a7998e9f67f03223d04609f546040516121e9919061443c565b60405180910390a150565b60606037805461220390614804565b80601f016020809104026020016040519081016040528092919081815260200182805461222f90614804565b801561227c5780601f106122515761010080835404028352916020019161227c565b820191906000526020600020905b81548152906001019060200180831161225f57829003601f168201915b5050505050905090565b6002600381111561229a576122996146c7565b5b609d60149054906101000a900460ff1660038111156122bc576122bb6146c7565b5b146122fc576040517f08c379a00000000000000000000000000000000000000000000000000000000081526004016122f3906151c5565b60405180910390fd5b600061230733611c7f565b90506000811161234c576040517f08c379a000000000000000000000000000000000000000000000000000000000815260040161234390615231565b60405180910390fd5b6000612356610afe565b478361236291906149d5565b61236c9190614ea6565b905061237833836138c0565b6123823382612e44565b3373ffffffffffffffffffffffffffffffffffffffff167f730831a1e4aa2d187ddd8e03d7beeac760a3927da5f112d645e0f8df7494b367826040516123c8919061443c565b60405180910390a25050565b60a25481565b600080603460006123e9612c71565b73ffffffffffffffffffffffffffffffffffffffff1673ffffffffffffffffffffffffffffffffffffffff16815260200190815260200160002060008573ffffffffffffffffffffffffffffffffffffffff1673ffffffffffffffffffffffffffffffffffffffff168152602001908152602001600020549050828110156124a6576040517f08c379a000000000000000000000000000000000000000000000000000000000815260040161249d906152c3565b60405180910390fd5b6124ba6124b1612c71565b85858403612c79565b600191505092915050565b60006124d96124d2612c71565b8484612f6e565b6001905092915050565b60a05481565b60985481565b60006003811115612503576125026146c7565b5b609d60149054906101000a900460ff166003811115612525576125246146c7565b5b14612565576040517f08c379a000000000000000000000000000000000000000000000000000000000815260040161255c9061532f565b60405180910390fd5b61257633612571610afe565b6138c0565b609760009054906101000a900473ffffffffffffffffffffffffffffffffffffffff1673ffffffffffffffffffffffffffffffffffffffff166323b872dd30336098546040518463ffffffff1660e01b81526004016125d79392919061534f565b600060405180830381600087803b1580156125f157600080fd5b505af1158015612605573d6000803e3d6000fd5b505050506003609d60146101000a81548160ff0219169083600381111561262f5761262e6146c7565b5b02179055503373ffffffffffffffffffffffffffffffffffffffff167fd1b5ea7fe0f1c2fa09d49c2aa9b2200664ba57a734f1d95481d95b7f99af991c60405160405180910390a2565b6000600381111561268d5761268c6146c7565b5b609d60149054906101000a900460ff1660038111156126af576126ae6146c7565b5b146126ef576040517f08c379a00000000000000000000000000000000000000000000000000000000081526004016126e6906153d2565b60405180910390fd5b6126f7612935565b341015612739576040517f08c379a00000000000000000000000000000000000000000000000000000000081526004016127309061543e565b60405180910390fd5b612741610afe565b7f000000000000000000000000000000000000000000000000000000000000000073ffffffffffffffffffffffffffffffffffffffff166332977c736040518163ffffffff1660e01b8152600401602060405180830381600087803b1580156127a957600080fd5b505af11580156127bd573d6000803e3d6000fd5b505050506040513d601f19601f820116820180604052508101906127e19190614923565b6127eb91906149d5565b6103e860a2546127fb91906149d5565b101561283c576040517f08c379a0000000000000000000000000000000000000000000000000000000008152600401612833906154aa565b60405180910390fd5b609a544261284a919061497f565b6099819055506001609d60146101000a81548160ff02191690836003811115612876576128756146c7565b5b021790555034609c8190555033609d60006101000a81548173ffffffffffffffffffffffffffffffffffffffff021916908373ffffffffffffffffffffffffffffffffffffffff1602179055503373ffffffffffffffffffffffffffffffffffffffff167fcfb9c5312b25ec7b809d61e638df25f749eae5d5c25399e1c93d1d319bfd582134604051612909919061443c565b60405180910390a2565b60a36020528060005260406000206000915090505481565b612933613521565b565b60008060a254146129555760a254609b546129509190614ea6565b612958565b60005b905090565b6000603460008473ffffffffffffffffffffffffffffffffffffffff1673ffffffffffffffffffffffffffffffffffffffff16815260200190815260200160002060008373ffffffffffffffffffffffffffffffffffffffff1673ffffffffffffffffffffffffffffffffffffffff16815260200190815260200160002054905092915050565b609f5481565b7f000000000000000000000000000000000000000000000000000000000000000081565b609e60009054906101000a900473ffffffffffffffffffffffffffffffffffffffff1681565b60016003811115612a4857612a476146c7565b5b609d60149054906101000a900460ff166003811115612a6a57612a696146c7565b5b14612aaa576040517f08c379a0000000000000000000000000000000000000000000000000000000008152600401612aa190615516565b60405180910390fd5b609954421015612aef576040517f08c379a0000000000000000000000000000000000000000000000000000000008152600401612ae690615582565b60405180910390fd5b612af7613521565b609760009054906101000a900473ffffffffffffffffffffffffffffffffffffffff1673ffffffffffffffffffffffffffffffffffffffff166323b872dd30609d60009054906101000a900473ffffffffffffffffffffffffffffffffffffffff166098546040518463ffffffff1660e01b8152600401612b7a939291906155f7565b600060405180830381600087803b158015612b9457600080fd5b505af1158015612ba8573d6000803e3d6000fd5b505050506002609d60146101000a81548160ff02191690836003811115612bd257612bd16146c7565b5b0217905550609d60009054906101000a900473ffffffffffffffffffffffffffffffffffffffff1673ffffffffffffffffffffffffffffffffffffffff167f8b01f9dd0400d6a1e84369a5fb8f6033934856ffa8ebadd707dca302ab551695609c54604051612c41919061443c565b60405180910390a2565b609760009054906101000a900473ffffffffffffffffffffffffffffffffffffffff1681565b600033905090565b600073ffffffffffffffffffffffffffffffffffffffff168373ffffffffffffffffffffffffffffffffffffffff161415612ce9576040517f08c379a0000000000000000000000000000000000000000000000000000000008152600401612ce0906156a0565b60405180910390fd5b600073ffffffffffffffffffffffffffffffffffffffff168273ffffffffffffffffffffffffffffffffffffffff161415612d59576040517f08c379a0000000000000000000000000000000000000000000000000000000008152600401612d5090615732565b60405180910390fd5b80603460008573ffffffffffffffffffffffffffffffffffffffff1673ffffffffffffffffffffffffffffffffffffffff16815260200190815260200160002060008473ffffffffffffffffffffffffffffffffffffffff1673ffffffffffffffffffffffffffffffffffffffff168152602001908152602001600020819055508173ffffffffffffffffffffffffffffffffffffffff168373ffffffffffffffffffffffffffffffffffffffff167f8c5be1e5ebec7d5bd14f71427d1e84f3dd0314c0f7b2291e5b200ac8c7c3b92583604051612e37919061443c565b60405180910390a3505050565b612e4e8282613a99565b612f6a5773c02aaa39b223fe8d0a0e5c4f27ead9083c756cc273ffffffffffffffffffffffffffffffffffffffff1663d0e30db0826040518263ffffffff1660e01b81526004016000604051808303818588803b158015612eae57600080fd5b505af1158015612ec2573d6000803e3d6000fd5b505050505073c02aaa39b223fe8d0a0e5c4f27ead9083c756cc273ffffffffffffffffffffffffffffffffffffffff1663a9059cbb83836040518363ffffffff1660e01b8152600401612f16929190615752565b602060405180830381600087803b158015612f3057600080fd5b505af1158015612f44573d6000803e3d6000fd5b505050506040513d601f19601f82011682018060405250810190612f6891906157a7565b505b5050565b600073ffffffffffffffffffffffffffffffffffffffff168373ffffffffffffffffffffffffffffffffffffffff161415612fde576040517f08c379a0000000000000000000000000000000000000000000000000000000008152600401612fd590615846565b60405180910390fd5b600073ffffffffffffffffffffffffffffffffffffffff168273ffffffffffffffffffffffffffffffffffffffff16141561304e576040517f08c379a0000000000000000000000000000000000000000000000000000000008152600401613045906158d8565b60405180910390fd5b613059838383613b15565b6000603360008573ffffffffffffffffffffffffffffffffffffffff1673ffffffffffffffffffffffffffffffffffffffff168152602001908152602001600020549050818110156130e0576040517f08c379a00000000000000000000000000000000000000000000000000000000081526004016130d79061596a565b60405180910390fd5b818103603360008673ffffffffffffffffffffffffffffffffffffffff1673ffffffffffffffffffffffffffffffffffffffff1681526020019081526020016000208190555081603360008573ffffffffffffffffffffffffffffffffffffffff1673ffffffffffffffffffffffffffffffffffffffff1681526020019081526020016000206000828254613175919061497f565b925050819055508273ffffffffffffffffffffffffffffffffffffffff168473ffffffffffffffffffffffffffffffffffffffff167fddf252ad1be2c89b69c2b068fc378daa952ba7f163c4a11628f55a4df523b3ef846040516131d9919061443c565b60405180910390a36131ec848484613cb6565b50505050565b600060019054906101000a900460ff1680613218575060008054906101000a900460ff16155b613257576040517f08c379a000000000000000000000000000000000000000000000000000000000815260040161324e90614d59565b60405180910390fd5b60008060019054906101000a900460ff1615905080156132a7576001600060016101000a81548160ff02191690831515021790555060016000806101000a81548160ff0219169083151502179055505b6132af613cbb565b6132b98383613d94565b80156132da5760008060016101000a81548160ff0219169083151502179055505b505050565b600060019054906101000a900460ff1680613305575060008054906101000a900460ff16155b613344576040517f08c379a000000000000000000000000000000000000000000000000000000000815260040161333b90614d59565b60405180910390fd5b60008060019054906101000a900460ff161590508015613394576001600060016101000a81548160ff02191690831515021790555060016000806101000a81548160ff0219169083151502179055505b61339c613e9d565b80156133bd5760008060016101000a81548160ff0219169083151502179055505b50565b600073ffffffffffffffffffffffffffffffffffffffff168273ffffffffffffffffffffffffffffffffffffffff161415613430576040517f08c379a0000000000000000000000000000000000000000000000000000000008152600401613427906159d6565b60405180910390fd5b61343c60008383613b15565b806035600082825461344e919061497f565b9250508190555080603360008473ffffffffffffffffffffffffffffffffffffffff1673ffffffffffffffffffffffffffffffffffffffff16815260200190815260200160002060008282546134a4919061497f565b925050819055508173ffffffffffffffffffffffffffffffffffffffff16600073ffffffffffffffffffffffffffffffffffffffff167fddf252ad1be2c89b69c2b068fc378daa952ba7f163c4a11628f55a4df523b3ef83604051613509919061443c565b60405180910390a361351d60008383613cb6565b5050565b60026003811115613535576135346146c7565b5b609d60149054906101000a900460ff166003811115613557576135566146c7565b5b1415613598576040517f08c379a000000000000000000000000000000000000000000000000000000000815260040161358f90615a68565b60405180910390fd5b60006103e86135a5610afe565b609f546135b291906149d5565b6135bc9190614ea6565b905060006301e13380826135d09190614ea6565b9050600060a054426135e29190614b07565b9050600082826135f291906149d5565b905060007f000000000000000000000000000000000000000000000000000000000000000073ffffffffffffffffffffffffffffffffffffffff1663b3f006746040518163ffffffff1660e01b8152600401602060405180830381600087803b15801561365e57600080fd5b505af1158015613672573d6000803e3d6000fd5b505050506040513d601f19601f820116820180604052508101906136969190615ab4565b905060007f000000000000000000000000000000000000000000000000000000000000000073ffffffffffffffffffffffffffffffffffffffff16630ea90a126040518163ffffffff1660e01b8152600401602060405180830381600087803b15801561370257600080fd5b505af1158015613716573d6000803e3d6000fd5b505050506040513d601f19601f8201168201806040525081019061373a9190614923565b90506103e8613747610afe565b8261375291906149d5565b61375c9190614ea6565b95506301e133808661376e9190614ea6565b94506000858561377e91906149d5565b90504260a081905550600073ffffffffffffffffffffffffffffffffffffffff16609e60009054906101000a900473ffffffffffffffffffffffffffffffffffffffff1673ffffffffffffffffffffffffffffffffffffffff161461384157613809609e60009054906101000a900473ffffffffffffffffffffffffffffffffffffffff16856133c0565b7f62b10e3ff3d45b5ff546e740b893897facb1680285f989a64ae932d62c5388e184604051613838919061443c565b60405180910390a15b600073ffffffffffffffffffffffffffffffffffffffff168373ffffffffffffffffffffffffffffffffffffffff16146138b75761387f83826133c0565b7f62b10e3ff3d45b5ff546e740b893897facb1680285f989a64ae932d62c5388e1816040516138ae919061443c565b60405180910390a15b50505050505050565b600073ffffffffffffffffffffffffffffffffffffffff168273ffffffffffffffffffffffffffffffffffffffff161415613930576040517f08c379a000000000000000000000000000000000000000000000000000000000815260040161392790615b53565b60405180910390fd5b61393c82600083613b15565b6000603360008473ffffffffffffffffffffffffffffffffffffffff1673ffffffffffffffffffffffffffffffffffffffff168152602001908152602001600020549050818110156139c3576040517f08c379a00000000000000000000000000000000000000000000000000000000081526004016139ba90615be5565b60405180910390fd5b818103603360008573ffffffffffffffffffffffffffffffffffffffff1673ffffffffffffffffffffffffffffffffffffffff168152602001908152602001600020819055508160356000828254613a1b9190614b07565b92505081905550600073ffffffffffffffffffffffffffffffffffffffff168373ffffffffffffffffffffffffffffffffffffffff167fddf252ad1be2c89b69c2b068fc378daa952ba7f163c4a11628f55a4df523b3ef84604051613a80919061443c565b60405180910390a3613a9483600084613cb6565b505050565b6000808373ffffffffffffffffffffffffffffffffffffffff168361753090604051613ac490615c36565b600060405180830381858888f193505050503d8060008114613b02576040519150601f19603f3d011682016040523d82523d6000602084013e613b07565b606091505b505090508091505092915050565b60006003811115613b2957613b286146c7565b5b609d60149054906101000a900460ff166003811115613b4b57613b4a6146c7565b5b1415613cb157600060a360008573ffffffffffffffffffffffffffffffffffffffff1673ffffffffffffffffffffffffffffffffffffffff168152602001908152602001600020549050600060a360008573ffffffffffffffffffffffffffffffffffffffff1673ffffffffffffffffffffffffffffffffffffffff168152602001908152602001600020549050818114613cae576000811415613c2b578260a26000828254613bfb9190614b07565b925050819055508183613c0e91906149d5565b609b6000828254613c1f9190614b07565b92505081905550613cad565b6000821415613c76578260a26000828254613c46919061497f565b925050819055508083613c5991906149d5565b609b6000828254613c6a919061497f565b92505081905550613cac565b8183613c8291906149d5565b8184613c8e91906149d5565b609b54613c9b919061497f565b613ca59190614b07565b609b819055505b5b5b50505b505050565b505050565b600060019054906101000a900460ff1680613ce1575060008054906101000a900460ff16155b613d20576040517f08c379a0000000000000000000000000000000000000000000000000000000008152600401613d1790614d59565b60405180910390fd5b60008060019054906101000a900460ff161590508015613d70576001600060016101000a81548160ff02191690831515021790555060016000806101000a81548160ff0219169083151502179055505b8015613d915760008060016101000a81548160ff0219169083151502179055505b50565b600060019054906101000a900460ff1680613dba575060008054906101000a900460ff16155b613df9576040517f08c379a0000000000000000000000000000000000000000000000000000000008152600401613df090614d59565b60405180910390fd5b60008060019054906101000a900460ff161590508015613e49576001600060016101000a81548160ff02191690831515021790555060016000806101000a81548160ff0219169083151502179055505b8260369080519060200190613e5f929190613f76565b508160379080519060200190613e76929190613f76565b508015613e985760008060016101000a81548160ff0219169083151502179055505b505050565b600060019054906101000a900460ff1680613ec3575060008054906101000a900460ff16155b613f02576040517f08c379a0000000000000000000000000000000000000000000000000000000008152600401613ef990614d59565b60405180910390fd5b60008060019054906101000a900460ff161590508015613f52576001600060016101000a81548160ff02191690831515021790555060016000806101000a81548160ff0219169083151502179055505b8015613f735760008060016101000a81548160ff0219169083151502179055505b50565b828054613f8290614804565b90600052602060002090601f016020900481019282613fa45760008555613feb565b82601f10613fbd57805160ff1916838001178555613feb565b82800160010185558215613feb579182015b82811115613fea578251825591602001919060010190613fcf565b5b509050613ff89190613ffc565b5090565b5b80821115614015576000816000905550600101613ffd565b5090565b600081519050919050565b600082825260208201905092915050565b60005b83811015614053578082015181840152602081019050614038565b83811115614062576000848401525b50505050565b6000601f19601f8301169050919050565b600061408482614019565b61408e8185614024565b935061409e818560208601614035565b6140a781614068565b840191505092915050565b600060208201905081810360008301526140cc8184614079565b905092915050565b6000604051905090565b600080fd5b600080fd5b600073ffffffffffffffffffffffffffffffffffffffff82169050919050565b6000614113826140e8565b9050919050565b61412381614108565b811461412e57600080fd5b50565b6000813590506141408161411a565b92915050565b6000819050919050565b61415981614146565b811461416457600080fd5b50565b60008135905061417681614150565b92915050565b60008060408385031215614193576141926140de565b5b60006141a185828601614131565b92505060206141b285828601614167565b9150509250929050565b60008115159050919050565b6141d1816141bc565b82525050565b60006020820190506141ec60008301846141c8565b92915050565b600060208284031215614208576142076140de565b5b600061421684828501614131565b91505092915050565b600080fd5b600080fd5b7f4e487b7100000000000000000000000000000000000000000000000000000000600052604160045260246000fd5b61426182614068565b810181811067ffffffffffffffff821117156142805761427f614229565b5b80604052505050565b60006142936140d4565b905061429f8282614258565b919050565b600067ffffffffffffffff8211156142bf576142be614229565b5b6142c882614068565b9050602081019050919050565b82818337600083830152505050565b60006142f76142f2846142a4565b614289565b90508281526020810184848401111561431357614312614224565b5b61431e8482856142d5565b509392505050565b600082601f83011261433b5761433a61421f565b5b813561434b8482602086016142e4565b91505092915050565b6000806000806080858703121561436e5761436d6140de565b5b600061437c87828801614131565b945050602061438d87828801614131565b935050604061439e87828801614167565b925050606085013567ffffffffffffffff8111156143bf576143be6140e3565b5b6143cb87828801614326565b91505092959194509250565b60007fffffffff0000000000000000000000000000000000000000000000000000000082169050919050565b61440c816143d7565b82525050565b60006020820190506144276000830184614403565b92915050565b61443681614146565b82525050565b6000602082019050614451600083018461442d565b92915050565b6000806000606084860312156144705761446f6140de565b5b600061447e86828701614131565b935050602061448f86828701614131565b92505060406144a086828701614167565b9150509250925092565b6000602082840312156144c0576144bf6140de565b5b60006144ce84828501614167565b91505092915050565b600060ff82169050919050565b6144ed816144d7565b82525050565b600060208201905061450860008301846144e4565b92915050565b61451781614108565b82525050565b6000602082019050614532600083018461450e565b92915050565b600067ffffffffffffffff82111561455357614552614229565b5b61455c82614068565b9050602081019050919050565b600061457c61457784614538565b614289565b90508281526020810184848401111561459857614597614224565b5b6145a38482856142d5565b509392505050565b600082601f8301126145c0576145bf61421f565b5b81356145d0848260208601614569565b91505092915050565b600080600080600080600080610100898b0312156145fa576145f96140de565b5b60006146088b828c01614131565b98505060206146198b828c01614131565b975050604061462a8b828c01614167565b965050606061463b8b828c01614167565b955050608061464c8b828c01614167565b94505060a061465d8b828c01614167565b93505060c089013567ffffffffffffffff81111561467e5761467d6140e3565b5b61468a8b828c016145ab565b92505060e089013567ffffffffffffffff8111156146ab576146aa6140e3565b5b6146b78b828c016145ab565b9150509295985092959890939650565b7f4e487b7100000000000000000000000000000000000000000000000000000000600052602160045260246000fd5b60048110614707576147066146c7565b5b50565b6000819050614718826146f6565b919050565b60006147288261470a565b9050919050565b6147388161471d565b82525050565b6000602082019050614753600083018461472f565b92915050565b6000614764826140e8565b9050919050565b61477481614759565b82525050565b600060208201905061478f600083018461476b565b92915050565b600080604083850312156147ac576147ab6140de565b5b60006147ba85828601614131565b92505060206147cb85828601614131565b9150509250929050565b7f4e487b7100000000000000000000000000000000000000000000000000000000600052602260045260246000fd5b6000600282049050600182168061481c57607f821691505b602082108114156148305761482f6147d5565b5b50919050565b7f7570646174653a6e6f742063757261746f720000000000000000000000000000600082015250565b600061486c601283614024565b915061487782614836565b602082019050919050565b6000602082019050818103600083015261489b8161485f565b9050919050565b7f6269643a61756374696f6e206973206e6f74206c697665000000000000000000600082015250565b60006148d8601783614024565b91506148e3826148a2565b602082019050919050565b60006020820190508181036000830152614907816148cb565b9050919050565b60008151905061491d81614150565b92915050565b600060208284031215614939576149386140de565b5b60006149478482850161490e565b91505092915050565b7f4e487b7100000000000000000000000000000000000000000000000000000000600052601160045260246000fd5b600061498a82614146565b915061499583614146565b9250827fffffffffffffffffffffffffffffffffffffffffffffffffffffffffffffffff038211156149ca576149c9614950565b5b828201905092915050565b60006149e082614146565b91506149eb83614146565b9250817fffffffffffffffffffffffffffffffffffffffffffffffffffffffffffffffff0483118215151615614a2457614a23614950565b5b828202905092915050565b7f6269643a746f6f206c6f77206269640000000000000000000000000000000000600082015250565b6000614a65600f83614024565b9150614a7082614a2f565b602082019050919050565b60006020820190508181036000830152614a9481614a58565b9050919050565b7f6269643a61756374696f6e20656e646564000000000000000000000000000000600082015250565b6000614ad1601183614024565b9150614adc82614a9b565b602082019050919050565b60006020820190508181036000830152614b0081614ac4565b9050919050565b6000614b1282614146565b9150614b1d83614146565b925082821015614b3057614b2f614950565b5b828203905092915050565b7f45524332303a207472616e7366657220616d6f756e742065786365656473206160008201527f6c6c6f77616e6365000000000000000000000000000000000000000000000000602082015250565b6000614b97602883614024565b9150614ba282614b3b565b604082019050919050565b60006020820190508181036000830152614bc681614b8a565b9050919050565b600081519050614bdc8161411a565b92915050565b600060208284031215614bf857614bf76140de565b5b6000614c0684828501614bcd565b91505092915050565b7f6b69636b3a6e6f7420676f760000000000000000000000000000000000000000600082015250565b6000614c45600c83614024565b9150614c5082614c0f565b602082019050919050565b60006020820190508181036000830152614c7481614c38565b9050919050565b7f7570646174653a696e76616c69642061756374696f6e206c656e677468000000600082015250565b6000614cb1601d83614024565b9150614cbc82614c7b565b602082019050919050565b60006020820190508181036000830152614ce081614ca4565b9050919050565b7f496e697469616c697a61626c653a20636f6e747261637420697320616c72656160008201527f647920696e697469616c697a6564000000000000000000000000000000000000602082015250565b6000614d43602e83614024565b9150614d4e82614ce7565b604082019050919050565b60006020820190508181036000830152614d7281614d36565b9050919050565b7f7570646174653a61756374696f6e206c6976652063616e6e6f7420757064617460008201527f6520707269636500000000000000000000000000000000000000000000000000602082015250565b6000614dd5602783614024565b9150614de082614d79565b604082019050919050565b60006020820190508181036000830152614e0481614dc8565b9050919050565b7f7570646174653a6e6f7420616e20757064617465000000000000000000000000600082015250565b6000614e41601483614024565b9150614e4c82614e0b565b602082019050919050565b60006020820190508181036000830152614e7081614e34565b9050919050565b7f4e487b7100000000000000000000000000000000000000000000000000000000600052601260045260246000fd5b6000614eb182614146565b9150614ebc83614146565b925082614ecc57614ecb614e77565b5b828204905092915050565b7f7570646174653a7265736572766520707269636520746f6f206c6f7700000000600082015250565b6000614f0d601c83614024565b9150614f1882614ed7565b602082019050919050565b60006020820190508181036000830152614f3c81614f00565b9050919050565b7f7570646174653a7265736572766520707269636520746f6f2068696768000000600082015250565b6000614f79601d83614024565b9150614f8482614f43565b602082019050919050565b60006020820190508181036000830152614fa881614f6c565b9050919050565b7f72656d6f76653a6e6f7420676f76000000000000000000000000000000000000600082015250565b6000614fe5600e83614024565b9150614ff082614faf565b602082019050919050565b6000602082019050818103600083015261501481614fd8565b9050919050565b6000819050919050565b6000819050919050565b600061504a6150456150408461501b565b615025565b614146565b9050919050565b61505a8161502f565b82525050565b60006020820190506150756000830184615051565b92915050565b7f7570646174653a63616e27742072616973650000000000000000000000000000600082015250565b60006150b1601283614024565b91506150bc8261507b565b602082019050919050565b600060208201905081810360008301526150e0816150a4565b9050919050565b7f7570646174653a63616e6e6f7420696e6372656173652066656520746869732060008201527f6869676800000000000000000000000000000000000000000000000000000000602082015250565b6000615143602483614024565b915061514e826150e7565b604082019050919050565b6000602082019050818103600083015261517281615136565b9050919050565b7f636173683a7661756c74206e6f7420636c6f7365642079657400000000000000600082015250565b60006151af601983614024565b91506151ba82615179565b602082019050919050565b600060208201905081810360008301526151de816151a2565b9050919050565b7f636173683a6e6f20746f6b656e7320746f2063617368206f7574000000000000600082015250565b600061521b601a83614024565b9150615226826151e5565b602082019050919050565b6000602082019050818103600083015261524a8161520e565b9050919050565b7f45524332303a2064656372656173656420616c6c6f77616e63652062656c6f7760008201527f207a65726f000000000000000000000000000000000000000000000000000000602082015250565b60006152ad602583614024565b91506152b882615251565b604082019050919050565b600060208201905081810360008301526152dc816152a0565b9050919050565b7f72656465656d3a6e6f2072656465656d696e6700000000000000000000000000600082015250565b6000615319601383614024565b9150615324826152e3565b602082019050919050565b600060208201905081810360008301526153488161530c565b9050919050565b6000606082019050615364600083018661450e565b615371602083018561450e565b61537e604083018461442d565b949350505050565b7f73746172743a6e6f2061756374696f6e20737461727473000000000000000000600082015250565b60006153bc601783614024565b91506153c782615386565b602082019050919050565b600060208201905081810360008301526153eb816153af565b9050919050565b7f73746172743a746f6f206c6f7720626964000000000000000000000000000000600082015250565b6000615428601183614024565b9150615433826153f2565b602082019050919050565b600060208201905081810360008301526154578161541b565b9050919050565b7f73746172743a6e6f7420656e6f75676820766f74657273000000000000000000600082015250565b6000615494601783614024565b915061549f8261545e565b602082019050919050565b600060208201905081810360008301526154c381615487565b9050919050565b7f656e643a7661756c742068617320616c726561647920636c6f73656400000000600082015250565b6000615500601c83614024565b915061550b826154ca565b602082019050919050565b6000602082019050818103600083015261552f816154f3565b9050919050565b7f656e643a61756374696f6e206c69766500000000000000000000000000000000600082015250565b600061556c601083614024565b915061557782615536565b602082019050919050565b6000602082019050818103600083015261559b8161555f565b9050919050565b60006155bd6155b86155b3846140e8565b615025565b6140e8565b9050919050565b60006155cf826155a2565b9050919050565b60006155e1826155c4565b9050919050565b6155f1816155d6565b82525050565b600060608201905061560c600083018661450e565b61561960208301856155e8565b615626604083018461442d565b949350505050565b7f45524332303a20617070726f76652066726f6d20746865207a65726f2061646460008201527f7265737300000000000000000000000000000000000000000000000000000000602082015250565b600061568a602483614024565b91506156958261562e565b604082019050919050565b600060208201905081810360008301526156b98161567d565b9050919050565b7f45524332303a20617070726f766520746f20746865207a65726f20616464726560008201527f7373000000000000000000000000000000000000000000000000000000000000602082015250565b600061571c602283614024565b9150615727826156c0565b604082019050919050565b6000602082019050818103600083015261574b8161570f565b9050919050565b6000604082019050615767600083018561450e565b615774602083018461442d565b9392505050565b615784816141bc565b811461578f57600080fd5b50565b6000815190506157a18161577b565b92915050565b6000602082840312156157bd576157bc6140de565b5b60006157cb84828501615792565b91505092915050565b7f45524332303a207472616e736665722066726f6d20746865207a65726f20616460008201527f6472657373000000000000000000000000000000000000000000000000000000602082015250565b6000615830602583614024565b915061583b826157d4565b604082019050919050565b6000602082019050818103600083015261585f81615823565b9050919050565b7f45524332303a207472616e7366657220746f20746865207a65726f206164647260008201527f6573730000000000000000000000000000000000000000000000000000000000602082015250565b60006158c2602383614024565b91506158cd82615866565b604082019050919050565b600060208201905081810360008301526158f1816158b5565b9050919050565b7f45524332303a207472616e7366657220616d6f756e742065786365656473206260008201527f616c616e63650000000000000000000000000000000000000000000000000000602082015250565b6000615954602683614024565b915061595f826158f8565b604082019050919050565b6000602082019050818103600083015261598381615947565b9050919050565b7f45524332303a206d696e7420746f20746865207a65726f206164647265737300600082015250565b60006159c0601f83614024565b91506159cb8261598a565b602082019050919050565b600060208201905081810360008301526159ef816159b3565b9050919050565b7f636c61696d3a63616e6e6f7420636c61696d2061667465722061756374696f6e60008201527f20656e6473000000000000000000000000000000000000000000000000000000602082015250565b6000615a52602583614024565b9150615a5d826159f6565b604082019050919050565b60006020820190508181036000830152615a8181615a45565b9050919050565b615a9181614759565b8114615a9c57600080fd5b50565b600081519050615aae81615a88565b92915050565b600060208284031215615aca57615ac96140de565b5b6000615ad884828501615a9f565b91505092915050565b7f45524332303a206275726e2066726f6d20746865207a65726f2061646472657360008201527f7300000000000000000000000000000000000000000000000000000000000000602082015250565b6000615b3d602183614024565b9150615b4882615ae1565b604082019050919050565b60006020820190508181036000830152615b6c81615b30565b9050919050565b7f45524332303a206275726e20616d6f756e7420657863656564732062616c616e60008201527f6365000000000000000000000000000000000000000000000000000000000000602082015250565b6000615bcf602283614024565b9150615bda82615b73565b604082019050919050565b60006020820190508181036000830152615bfe81615bc2565b9050919050565b600081905092915050565b50565b6000615c20600083615c05565b9150615c2b82615c10565b600082019050919050565b6000615c4182615c13565b915081905091905056fea264697066735822122083bc75da22a06aa49633218bc62a9b50e624155540850d572fbadc8bd2f27b2364736f6c63430008090033",
  "immutableReferences": {
    "2662": [
      {
        "length": 32,
        "start": 2949
      },
      {
        "length": 32,
        "start": 3785
      },
      {
        "length": 32,
        "start": 4264
      },
      {
        "length": 32,
        "start": 4434
      },
      {
        "length": 32,
        "start": 5868
      },
      {
        "length": 32,
        "start": 6123
      },
      {
        "length": 32,
        "start": 6575
      },
      {
        "length": 32,
        "start": 6830
      },
      {
        "length": 32,
        "start": 7395
      },
      {
        "length": 32,
        "start": 8393
      },
      {
        "length": 32,
        "start": 10051
      },
      {
        "length": 32,
        "start": 10732
      },
      {
        "length": 32,
        "start": 13816
      },
      {
        "length": 32,
        "start": 13980
      }
    ]
  },
  "source": "//SPDX-License-Identifier: MIT\npragma solidity ^0.8.0;\n\nimport \"./Settings.sol\";\nimport \"./Interfaces/IWETH.sol\";\nimport \"@openzeppelin/contracts/token/ERC721/ERC721.sol\";\nimport \"@openzeppelin/contracts-upgradeable/token/ERC20/ERC20Upgradeable.sol\";\nimport \"@openzeppelin/contracts-upgradeable/token/ERC721/utils/ERC721HolderUpgradeable.sol\";\n\ncontract TokenVault is ERC20Upgradeable, ERC721HolderUpgradeable {\n    using Address for address;\n\n    /// -----------------------------------\n    /// -------- BASIC INFORMATION --------\n    /// -----------------------------------\n\n    /// @notice weth address\n    address public constant weth = 0xC02aaA39b223FE8D0A0e5C4F27eAD9083C756Cc2;\n\n    /// -----------------------------------\n    /// -------- TOKEN INFORMATION --------\n    /// -----------------------------------\n\n    /// @notice the ERC721 token address of the vault's token\n    address public token;\n\n    /// @notice the ERC721 token ID of the vault's token\n    uint256 public id;\n\n    /// -------------------------------------\n    /// -------- AUCTION INFORMATION --------\n    /// -------------------------------------\n\n    /// @notice the unix timestamp end time of the token auction\n    uint256 public auctionEnd;\n\n    /// @notice the length of auctions\n    uint256 public auctionLength;\n\n    /// @notice reservePrice * votingTokens\n    uint256 public reserveTotal;\n\n    /// @notice the current price of the token during an auction\n    uint256 public livePrice;\n\n    /// @notice the current user winning the token auction\n    address payable public winning;\n\n    enum State { inactive, live, ended, redeemed }\n\n    State public auctionState;\n\n    /// -----------------------------------\n    /// -------- VAULT INFORMATION --------\n    /// -----------------------------------\n\n    /// @notice the governance contract which gets paid in ETH\n    address public immutable settings;\n\n    /// @notice the address who initially deposited the NFT\n    address public curator;\n\n    /// @notice the AUM fee paid to the curator yearly. 3 decimals. ie. 100 = 10%\n    uint256 public fee;\n\n    /// @notice the last timestamp where fees were claimed\n    uint256 public lastClaimed;\n\n    /// @notice a boolean to indicate if the vault has closed\n    bool public vaultClosed;\n\n    /// @notice the number of ownership tokens voting on the reserve price at any given time\n    uint256 public votingTokens;\n\n    /// @notice a mapping of users to their desired token price\n    mapping(address => uint256) public userPrices;\n\n    /// ------------------------\n    /// -------- EVENTS --------\n    /// ------------------------\n\n    /// @notice An event emitted when a user updates their price\n    event PriceUpdate(address indexed user, uint price);\n\n    /// @notice An event emitted when an auction starts\n    event Start(address indexed buyer, uint price);\n\n    /// @notice An event emitted when a bid is made\n    event Bid(address indexed buyer, uint price);\n\n    /// @notice An event emitted when an auction is won\n    event Won(address indexed buyer, uint price);\n\n    /// @notice An event emitted when someone redeems all tokens for the NFT\n    event Redeem(address indexed redeemer);\n\n    /// @notice An event emitted when someone cashes in ERC20 tokens for ETH from an ERC721 token sale\n    event Cash(address indexed owner, uint256 shares);\n\n    event UpdateAuctionLength(uint256 length);\n\n    event UpdateCuratorFee(uint256 fee);\n\n    event FeeClaimed(uint256 fee);\n\n    constructor(address _settings) {\n        settings = _settings;\n    }\n\n    function initialize(address _curator, address _token, uint256 _id, uint256 _supply, uint256 _listPrice, uint256 _fee, string memory _name, string memory _symbol) external initializer {\n        // initialize inherited contracts\n        __ERC20_init(_name, _symbol);\n        __ERC721Holder_init();\n        // set storage variables\n        token = _token;\n        id = _id;\n        auctionLength = 3 days;\n        curator = _curator;\n        fee = _fee;\n        lastClaimed = block.timestamp;\n        auctionState = State.inactive;\n        userPrices[_curator] = _listPrice;\n\n        _mint(_curator, _supply);\n    }\n\n    /// --------------------------------\n    /// -------- VIEW FUNCTIONS --------\n    /// --------------------------------\n\n    function reservePrice() public view returns(uint256) {\n        return votingTokens == 0 ? 0 : reserveTotal / votingTokens;\n    }\n\n    /// -------------------------------\n    /// -------- GOV FUNCTIONS --------\n    /// -------------------------------\n\n    /// @notice allow governance to boot a bad actor curator\n    /// @param _curator the new curator\n    function kickCurator(address _curator) external {\n        require(msg.sender == Ownable(settings).owner(), \"kick:not gov\");\n\n        curator = _curator;\n    }\n\n    /// @notice allow governance to remove bad reserve prices\n    function removeReserve(address _user) external {\n        require(msg.sender == Ownable(settings).owner(), \"remove:not gov\");\n        require(auctionState == State.inactive, \"update:auction live cannot update price\");\n\n        uint256 old = userPrices[_user];\n        require(0 != old, \"update:not an update\");\n        uint256 weight = balanceOf(_user);\n\n        votingTokens -= weight;\n        reserveTotal -= weight * old;\n        \n        userPrices[_user] = 0;\n\n        emit PriceUpdate(_user, 0);\n    }\n\n    /// -----------------------------------\n    /// -------- CURATOR FUNCTIONS --------\n    /// -----------------------------------\n\n    /// @notice allow curator to update the curator address\n    /// @param _curator the new curator\n    function updateCurator(address _curator) external {\n        require(msg.sender == curator, \"update:not curator\");\n\n        curator = _curator;\n    }\n\n    /// @notice allow curator to update the auction length\n    /// @param _length the new base price\n    function updateAuctionLength(uint256 _length) external {\n        require(msg.sender == curator, \"update:not curator\");\n        require(_length >= ISettings(settings).minAuctionLength() && _length <= ISettings(settings).maxAuctionLength(), \"update:invalid auction length\");\n\n        auctionLength = _length;\n        emit UpdateAuctionLength(_length);\n    }\n\n    /// @notice allow the curator to change their fee\n    /// @param _fee the new fee\n    function updateFee(uint256 _fee) external {\n        require(msg.sender == curator, \"update:not curator\");\n        require(_fee < fee, \"update:can't raise\");\n        require(_fee <= ISettings(settings).maxCuratorFee(), \"update:cannot increase fee this high\");\n\n        _claimFees();\n\n        fee = _fee;\n        emit UpdateCuratorFee(fee);\n    }\n\n    /// @notice external function to claim fees for the curator and governance\n    function claimFees() external {\n        _claimFees();\n    }\n\n    /// @dev interal fuction to calculate and mint fees\n    function _claimFees() internal {\n        require(auctionState != State.ended, \"claim:cannot claim after auction ends\");\n\n        // get how much in fees the curator would make in a year\n        uint256 currentAnnualFee = fee * totalSupply() / 1000; \n        // get how much that is per second;\n        uint256 feePerSecond = currentAnnualFee / 31536000;\n        // get how many seconds they are eligible to claim\n        uint256 sinceLastClaim = block.timestamp - lastClaimed;\n        // get the amount of tokens to mint\n        uint256 curatorMint = sinceLastClaim * feePerSecond;\n\n        // now lets do the same for governance\n        address govAddress = ISettings(settings).feeReceiver();\n        uint256 govFee = ISettings(settings).governanceFee();\n        currentAnnualFee = govFee * totalSupply() / 1000; \n        feePerSecond = currentAnnualFee / 31536000;\n        uint256 govMint = sinceLastClaim * feePerSecond;\n\n        lastClaimed = block.timestamp;\n\n        if (curator != address(0)) {\n            _mint(curator, curatorMint);\n            emit FeeClaimed(curatorMint);\n        }\n        if (govAddress != address(0)) {\n            _mint(govAddress, govMint);\n            emit FeeClaimed(govMint);\n        }\n    }\n\n    /// --------------------------------\n    /// -------- CORE FUNCTIONS --------\n    /// --------------------------------\n\n    /// @notice a function for an end user to update their desired sale price\n    /// @param _new the desired price in ETH\n    function updateUserPrice(uint256 _new) external {\n        require(auctionState == State.inactive, \"update:auction live cannot update price\");\n        uint256 old = userPrices[msg.sender];\n        require(_new != old, \"update:not an update\");\n        uint256 weight = balanceOf(msg.sender);\n\n        if (votingTokens == 0) {\n            votingTokens = weight;\n            reserveTotal = weight * _new;\n        }\n        // they are the only one voting\n        else if (weight == votingTokens && old != 0) {\n            reserveTotal = weight * _new;\n        }\n        // previously they were not voting\n        else if (old == 0) {\n            uint256 averageReserve = reserveTotal / votingTokens;\n\n            uint256 reservePriceMin = averageReserve * ISettings(settings).minReserveFactor() / 1000;\n            require(_new >= reservePriceMin, \"update:reserve price too low\");\n            uint256 reservePriceMax = averageReserve * ISettings(settings).maxReserveFactor() / 1000;\n            require(_new <= reservePriceMax, \"update:reserve price too high\");\n\n            votingTokens += weight;\n            reserveTotal += weight * _new;\n        } \n        // they no longer want to vote\n        else if (_new == 0) {\n            votingTokens -= weight;\n            reserveTotal -= weight * old;\n        } \n        // they are updating their vote\n        else {\n            uint256 averageReserve = (reserveTotal - (old * weight)) / (votingTokens - weight);\n\n            uint256 reservePriceMin = averageReserve * ISettings(settings).minReserveFactor() / 1000;\n            require(_new >= reservePriceMin, \"update:reserve price too low\");\n            uint256 reservePriceMax = averageReserve * ISettings(settings).maxReserveFactor() / 1000;\n            require(_new <= reservePriceMax, \"update:reserve price too high\");\n\n            reserveTotal = reserveTotal + (weight * _new) - (weight * old);\n        }\n\n        userPrices[msg.sender] = _new;\n\n        emit PriceUpdate(msg.sender, _new);\n    }\n\n    /// @notice an internal function used to update sender and receivers price on token transfer\n    /// @param _from the ERC20 token sender\n    /// @param _to the ERC20 token receiver\n    /// @param _amount the ERC20 token amount\n    function _beforeTokenTransfer(address _from, address _to, uint256 _amount) internal virtual override {\n        if (auctionState == State.inactive) {\n            uint256 fromPrice = userPrices[_from];\n            uint256 toPrice = userPrices[_to];\n\n            // only do something if users have different reserve price\n            if (toPrice != fromPrice) {\n                // new holder is not a voter\n                if (toPrice == 0) {\n                    // get the average reserve price ignoring the senders amount\n                    votingTokens -= _amount;\n                    reserveTotal -= _amount * fromPrice;\n                }\n                // old holder is not a voter\n                else if (fromPrice == 0) {\n                    votingTokens += _amount;\n                    reserveTotal += _amount * toPrice;\n                }\n                // both holders are voters\n                else {\n                    reserveTotal = reserveTotal + (_amount * toPrice) - (_amount * fromPrice);\n                }\n            }\n        }\n    }\n\n    /// @notice kick off an auction. Must send reservePrice in ETH\n    function start() external payable {\n        require(auctionState == State.inactive, \"start:no auction starts\");\n        require(msg.value >= reservePrice(), \"start:too low bid\");\n        require(votingTokens * 1000 >= ISettings(settings).minVotePercentage() * totalSupply(), \"start:not enough voters\");\n        \n        auctionEnd = block.timestamp + auctionLength;\n        auctionState = State.live;\n\n        livePrice = msg.value;\n        winning = payable(msg.sender);\n\n        emit Start(msg.sender, msg.value);\n    }\n\n    /// @notice an external function to bid on purchasing the vaults NFT. The msg.value is the bid amount\n    function bid() external payable {\n        require(auctionState == State.live, \"bid:auction is not live\");\n        uint256 increase = ISettings(settings).minBidIncrease() + 1000;\n        require(msg.value * 1000 >= livePrice * increase, \"bid:too low bid\");\n        require(block.timestamp < auctionEnd, \"bid:auction ended\");\n\n        // If bid is within 15 minutes of auction end, extend auction\n        if (auctionEnd - block.timestamp <= 15 minutes) {\n            auctionEnd += 15 minutes;\n        }\n\n        _sendETHOrWETH(winning, livePrice);\n\n        livePrice = msg.value;\n        winning = payable(msg.sender);\n\n        emit Bid(msg.sender, msg.value);\n    }\n\n    /// @notice an external function to end an auction after the timer has run out\n    function end() external {\n        require(auctionState == State.live, \"end:vault has already closed\");\n        require(block.timestamp >= auctionEnd, \"end:auction live\");\n\n        _claimFees();\n\n        // transfer erc721 to winner\n        IERC721(token).transferFrom(address(this), winning, id);\n\n        auctionState = State.ended;\n\n        emit Won(winning, livePrice);\n    }\n\n    /// @notice an external function to burn all ERC20 tokens to receive the ERC721 token\n    function redeem() external {\n        require(auctionState == State.inactive, \"redeem:no redeeming\");\n        _burn(msg.sender, totalSupply());\n        \n        // transfer erc721 to redeemer\n        IERC721(token).transferFrom(address(this), msg.sender, id);\n        \n        auctionState = State.redeemed;\n\n        emit Redeem(msg.sender);\n    }\n\n    /// @notice an external function to burn ERC20 tokens to receive ETH from ERC721 token purchase\n    function cash() external {\n        require(auctionState == State.ended, \"cash:vault not closed yet\");\n        uint256 bal = balanceOf(msg.sender);\n        require(bal > 0, \"cash:no tokens to cash out\");\n        uint256 share = bal * address(this).balance / totalSupply();\n        _burn(msg.sender, bal);\n\n        _sendETHOrWETH(payable(msg.sender), share);\n\n        emit Cash(msg.sender, share);\n    }\n\n    // Will attempt to transfer ETH, but will transfer WETH instead if it fails.\n    function _sendETHOrWETH(address to, uint256 value) internal {\n        // Try to transfer ETH to the given recipient.\n        if (!_attemptETHTransfer(to, value)) {\n            // If the transfer fails, wrap and send as WETH, so that\n            // the auction is not impeded and the recipient still\n            // can claim ETH via the WETH contract (similar to escrow).\n            IWETH(weth).deposit{value: value}();\n            IWETH(weth).transfer(to, value);\n            // At this point, the recipient can unwrap WETH.\n        }\n    }\n\n    // Sending ETH is not guaranteed complete, and the method used here will return false if\n    // it fails. For example, a contract can block ETH transfer, or might use\n    // an excessive amount of gas, thereby griefing a new bidder.\n    // We should limit the gas used in transfers, and handle failure cases.\n    function _attemptETHTransfer(address to, uint256 value)\n        internal\n        returns (bool)\n    {\n        // Here increase the gas limit a reasonable amount above the default, and try\n        // to send ETH to the recipient.\n        // NOTE: This might allow the recipient to attempt a limited reentrancy attack.\n        (bool success, ) = to.call{value: value, gas: 30000}(\"\");\n        return success;\n    }\n\n}",
  "sourcePath": "/home/user/Desktop/NFTY/contracts/fractional/ERC721TokenVault.sol",
  "compiler": {
    "name": "solc",
    "version": "0.8.9+commit.e5eed63a.Emscripten.clang"
  },
  "schemaVersion": "3.4.3",
  "updatedAt": "2021-11-27T10:52:52.638Z",
  "devdoc": {
    "kind": "dev",
    "methods": {
      "allowance(address,address)": {
        "details": "See {IERC20-allowance}."
      },
      "approve(address,uint256)": {
        "details": "See {IERC20-approve}. Requirements: - `spender` cannot be the zero address."
      },
      "balanceOf(address)": {
        "details": "See {IERC20-balanceOf}."
      },
      "decimals()": {
        "details": "Returns the number of decimals used to get its user representation. For example, if `decimals` equals `2`, a balance of `505` tokens should be displayed to a user as `5.05` (`505 / 10 ** 2`). Tokens usually opt for a value of 18, imitating the relationship between Ether and Wei. This is the value {ERC20} uses, unless this function is overridden; NOTE: This information is only used for _display_ purposes: it in no way affects any of the arithmetic of the contract, including {IERC20-balanceOf} and {IERC20-transfer}."
      },
      "decreaseAllowance(address,uint256)": {
        "details": "Atomically decreases the allowance granted to `spender` by the caller. This is an alternative to {approve} that can be used as a mitigation for problems described in {IERC20-approve}. Emits an {Approval} event indicating the updated allowance. Requirements: - `spender` cannot be the zero address. - `spender` must have allowance for the caller of at least `subtractedValue`."
      },
      "increaseAllowance(address,uint256)": {
        "details": "Atomically increases the allowance granted to `spender` by the caller. This is an alternative to {approve} that can be used as a mitigation for problems described in {IERC20-approve}. Emits an {Approval} event indicating the updated allowance. Requirements: - `spender` cannot be the zero address."
      },
      "kickCurator(address)": {
        "params": {
          "_curator": "the new curator"
        }
      },
      "name()": {
        "details": "Returns the name of the token."
      },
      "onERC721Received(address,address,uint256,bytes)": {
        "details": "See {IERC721Receiver-onERC721Received}. Always returns `IERC721Receiver.onERC721Received.selector`."
      },
      "symbol()": {
        "details": "Returns the symbol of the token, usually a shorter version of the name."
      },
      "totalSupply()": {
        "details": "See {IERC20-totalSupply}."
      },
      "transfer(address,uint256)": {
        "details": "See {IERC20-transfer}. Requirements: - `recipient` cannot be the zero address. - the caller must have a balance of at least `amount`."
      },
      "transferFrom(address,address,uint256)": {
        "details": "See {IERC20-transferFrom}. Emits an {Approval} event indicating the updated allowance. This is not required by the EIP. See the note at the beginning of {ERC20}. Requirements: - `sender` and `recipient` cannot be the zero address. - `sender` must have a balance of at least `amount`. - the caller must have allowance for ``sender``'s tokens of at least `amount`."
      },
      "updateAuctionLength(uint256)": {
        "params": {
          "_length": "the new base price"
        }
      },
      "updateCurator(address)": {
        "params": {
          "_curator": "the new curator"
        }
      },
      "updateFee(uint256)": {
        "params": {
          "_fee": "the new fee"
        }
      },
      "updateUserPrice(uint256)": {
        "params": {
          "_new": "the desired price in ETH"
        }
      }
    },
    "version": 1
  },
  "userdoc": {
    "events": {
      "Bid(address,uint256)": {
        "notice": "An event emitted when a bid is made"
      },
      "Cash(address,uint256)": {
        "notice": "An event emitted when someone cashes in ERC20 tokens for ETH from an ERC721 token sale"
      },
      "PriceUpdate(address,uint256)": {
        "notice": "An event emitted when a user updates their price"
      },
      "Redeem(address)": {
        "notice": "An event emitted when someone redeems all tokens for the NFT"
      },
      "Start(address,uint256)": {
        "notice": "An event emitted when an auction starts"
      },
      "Won(address,uint256)": {
        "notice": "An event emitted when an auction is won"
      }
    },
    "kind": "user",
    "methods": {
      "auctionEnd()": {
        "notice": "the unix timestamp end time of the token auction"
      },
      "auctionLength()": {
        "notice": "the length of auctions"
      },
      "bid()": {
        "notice": "an external function to bid on purchasing the vaults NFT. The msg.value is the bid amount"
      },
      "cash()": {
        "notice": "an external function to burn ERC20 tokens to receive ETH from ERC721 token purchase"
      },
      "claimFees()": {
        "notice": "external function to claim fees for the curator and governance"
      },
      "curator()": {
        "notice": "the address who initially deposited the NFT"
      },
      "end()": {
        "notice": "an external function to end an auction after the timer has run out"
      },
      "fee()": {
        "notice": "the AUM fee paid to the curator yearly. 3 decimals. ie. 100 = 10%"
      },
      "id()": {
        "notice": "the ERC721 token ID of the vault's token"
      },
      "kickCurator(address)": {
        "notice": "allow governance to boot a bad actor curator"
      },
      "lastClaimed()": {
        "notice": "the last timestamp where fees were claimed"
      },
      "livePrice()": {
        "notice": "the current price of the token during an auction"
      },
      "redeem()": {
        "notice": "an external function to burn all ERC20 tokens to receive the ERC721 token"
      },
      "removeReserve(address)": {
        "notice": "allow governance to remove bad reserve prices"
      },
      "reservePrice()": {
        "notice": "-------------------------------- -------- VIEW FUNCTIONS -------- --------------------------------"
      },
      "reserveTotal()": {
        "notice": "reservePrice * votingTokens"
      },
      "settings()": {
        "notice": "the governance contract which gets paid in ETH"
      },
      "start()": {
        "notice": "kick off an auction. Must send reservePrice in ETH"
      },
      "token()": {
        "notice": "the ERC721 token address of the vault's token"
      },
      "updateAuctionLength(uint256)": {
        "notice": "allow curator to update the auction length"
      },
      "updateCurator(address)": {
        "notice": "allow curator to update the curator address"
      },
      "updateFee(uint256)": {
        "notice": "allow the curator to change their fee"
      },
      "updateUserPrice(uint256)": {
        "notice": "a function for an end user to update their desired sale price"
      },
      "userPrices(address)": {
        "notice": "a mapping of users to their desired token price"
      },
      "vaultClosed()": {
        "notice": "a boolean to indicate if the vault has closed"
      },
      "votingTokens()": {
        "notice": "the number of ownership tokens voting on the reserve price at any given time"
      },
      "weth()": {
        "notice": "weth address"
      },
      "winning()": {
        "notice": "the current user winning the token auction"
      }
    },
    "version": 1
  }
}